{"contracts/Raffle.sol":{"Raffle":{"abi":[{"inputs":[{"internalType":"address","name":"vrfCoordinatorV2","type":"address"},{"internalType":"uint256","name":"entrancefee","type":"uint256"},{"internalType":"uint256","name":"subscriptionId","type":"uint256"},{"internalType":"uint32","name":"callbackGasLimit","type":"uint32"},{"internalType":"bytes32","name":"gasLane","type":"bytes32"}],"stateMutability":"nonpayable","type":"constructor"},{"inputs":[{"internalType":"address","name":"have","type":"address"},{"internalType":"address","name":"want","type":"address"}],"name":"OnlyCoordinatorCanFulfill","type":"error"},{"inputs":[],"name":"OnlySimulatedBackend","type":"error"},{"inputs":[],"name":"Raffle_TransferUnsuccessful","type":"error"},{"inputs":[],"name":"Raffle__SendMoreToEnterRaffle","type":"error"},{"anonymous":false,"inputs":[{"indexed":true,"internalType":"address","name":"player","type":"address"}],"name":"raffleEnter","type":"event"},{"anonymous":false,"inputs":[{"indexed":true,"internalType":"address","name":"winner","type":"address"}],"name":"winnerPicked","type":"event"},{"inputs":[{"internalType":"bytes","name":"","type":"bytes"}],"name":"checkUpkeep","outputs":[{"internalType":"bool","name":"upkeepNeeded","type":"bool"},{"internalType":"bytes","name":"performData","type":"bytes"}],"stateMutability":"view","type":"function"},{"inputs":[],"name":"enterRaffle","outputs":[],"stateMutability":"payable","type":"function"},{"inputs":[],"name":"getEntranceFee","outputs":[{"internalType":"uint256","name":"","type":"uint256"}],"stateMutability":"view","type":"function"},{"inputs":[{"internalType":"uint256","name":"index","type":"uint256"}],"name":"getPlayer","outputs":[{"internalType":"address payable","name":"","type":"address"}],"stateMutability":"view","type":"function"},{"inputs":[],"name":"getRecentWinner","outputs":[{"internalType":"address","name":"","type":"address"}],"stateMutability":"view","type":"function"},{"inputs":[{"internalType":"bytes","name":"performData","type":"bytes"}],"name":"performUpkeep","outputs":[],"stateMutability":"nonpayable","type":"function"},{"inputs":[{"internalType":"uint256","name":"requestId","type":"uint256"},{"internalType":"uint256[]","name":"randomWords","type":"uint256[]"}],"name":"rawFulfillRandomWords","outputs":[],"stateMutability":"nonpayable","type":"function"},{"inputs":[],"name":"requestRandomWinner","outputs":[],"stateMutability":"nonpayable","type":"function"}],"devdoc":{"kind":"dev","methods":{"performUpkeep(bytes)":{"details":"The input to this method should not be trusted, and the caller of the method should not even be restricted to any single registry. Anyone should be able call it, and the input should be validated, there is no guarantee that the data passed in is the performData returned from checkUpkeep. This could happen due to malicious keepers, racing keepers, or simply a state change while the performUpkeep transaction is waiting for confirmation. Always validate the data passed in.","params":{"performData":"is the data which was passed back from the checkData simulation. If it is encoded, it can easily be decoded into other types by calling `abi.decode`. This data should not be trusted, and should be validated against the contract's current state."}}},"version":1},"evm":{"bytecode":{"linkReferences":{},"object":"61014060405234801561001157600080fd5b5060405161107f38038061107f833981810160405281019061003391906101e0565b848073ffffffffffffffffffffffffffffffffffffffff1660808173ffffffffffffffffffffffffffffffffffffffff1681525050508360a081815250508473ffffffffffffffffffffffffffffffffffffffff1660c08173ffffffffffffffffffffffffffffffffffffffff16815250508260e081815250508163ffffffff166101008163ffffffff1681525050806101208181525050505050505061025b565b600080fd5b600073ffffffffffffffffffffffffffffffffffffffff82169050919050565b6000610105826100da565b9050919050565b610115816100fa565b811461012057600080fd5b50565b6000815190506101328161010c565b92915050565b6000819050919050565b61014b81610138565b811461015657600080fd5b50565b60008151905061016881610142565b92915050565b600063ffffffff82169050919050565b6101878161016e565b811461019257600080fd5b50565b6000815190506101a48161017e565b92915050565b6000819050919050565b6101bd816101aa565b81146101c857600080fd5b50565b6000815190506101da816101b4565b92915050565b600080600080600060a086880312156101fc576101fb6100d5565b5b600061020a88828901610123565b955050602061021b88828901610159565b945050604061022c88828901610159565b935050606061023d88828901610195565b925050608061024e888289016101cb565b9150509295509295909350565b60805160a05160c05160e0516101005161012051610dc76102b860003960006104240152600061046801526000610445015260006103e80152600081816101c801526102ae0152600081816101ee01526102420152610dc76000f3fe60806040526004361061007b5760003560e01c8063473f1ddc1161004e578063473f1ddc14610107578063522a1f0b146101325780636e04ff0d14610149578063e55ae4e8146101875761007b565b806309bc33a7146100805780631fe543e3146100ab5780632cfcc539146100d45780634585e33b146100de575b600080fd5b34801561008c57600080fd5b506100956101c4565b6040516100a2919061073f565b60405180910390f35b3480156100b757600080fd5b506100d260048036038101906100cd91906108f3565b6101ec565b005b6100dc6102ac565b005b3480156100ea57600080fd5b50610105600480360381019061010091906109aa565b6103ae565b005b34801561011357600080fd5b5061011c6103ba565b6040516101299190610a38565b60405180910390f35b34801561013e57600080fd5b506101476103e4565b005b34801561015557600080fd5b50610170600480360381019061016b91906109aa565b6104f1565b60405161017e929190610aed565b60405180910390f35b34801561019357600080fd5b506101ae60048036038101906101a99190610b1d565b6104fc565b6040516101bb9190610b6b565b60405180910390f35b60007f0000000000000000000000000000000000000000000000000000000000000000905090565b7f000000000000000000000000000000000000000000000000000000000000000073ffffffffffffffffffffffffffffffffffffffff163373ffffffffffffffffffffffffffffffffffffffff161461029e57337f00000000000000000000000000000000000000000000000000000000000000006040517f1cf993f4000000000000000000000000000000000000000000000000000000008152600401610295929190610b86565b60405180910390fd5b6102a88282610543565b5050565b7f0000000000000000000000000000000000000000000000000000000000000000341015610306576040517f3038c00a00000000000000000000000000000000000000000000000000000000815260040160405180910390fd5b6000339080600181540180825580915050600190039060005260206000200160009091909190916101000a81548173ffffffffffffffffffffffffffffffffffffffff021916908373ffffffffffffffffffffffffffffffffffffffff1602179055503373ffffffffffffffffffffffffffffffffffffffff167f742d070bf0f3edace132a9da8ba725e8cf99c478869cee7f673ed6085e2f8e6460405160405180910390a2565b6103b66103e4565b5050565b6000600160009054906101000a900473ffffffffffffffffffffffffffffffffffffffff16905090565b60007f000000000000000000000000000000000000000000000000000000000000000073ffffffffffffffffffffffffffffffffffffffff16635d3b1d307f00000000000000000000000000000000000000000000000000000000000000007f000000000000000000000000000000000000000000000000000000000000000060037f000000000000000000000000000000000000000000000000000000000000000060016040518663ffffffff1660e01b81526004016104a9959493929190610c27565b6020604051808303816000875af11580156104c8573d6000803e3d6000fd5b505050506040513d601f19601f820116820180604052508101906104ec9190610c8f565b905050565b600060609250929050565b600080828154811061051157610510610cbc565b5b9060005260206000200160009054906101000a900473ffffffffffffffffffffffffffffffffffffffff169050919050565b600080805490508260008151811061055e5761055d610cbc565b5b60200260200101516105709190610d1a565b9050600080828154811061058757610586610cbc565b5b9060005260206000200160009054906101000a900473ffffffffffffffffffffffffffffffffffffffff16905080600160006101000a81548173ffffffffffffffffffffffffffffffffffffffff021916908373ffffffffffffffffffffffffffffffffffffffff1602179055506000600160009054906101000a900473ffffffffffffffffffffffffffffffffffffffff1673ffffffffffffffffffffffffffffffffffffffff164760405161063d90610d7c565b60006040518083038185875af1925050503d806000811461067a576040519150601f19603f3d011682016040523d82523d6000602084013e61067f565b606091505b50509050806106ba576040517f5714df0a00000000000000000000000000000000000000000000000000000000815260040160405180910390fd5b600160009054906101000a900473ffffffffffffffffffffffffffffffffffffffff1673ffffffffffffffffffffffffffffffffffffffff167f794919b0f484b8e90b1b817ac7f880f846fbd8a9813dee2a378e820db094e3d160405160405180910390a25050505050565b6000819050919050565b61073981610726565b82525050565b60006020820190506107546000830184610730565b92915050565b6000604051905090565b600080fd5b600080fd5b61077781610726565b811461078257600080fd5b50565b6000813590506107948161076e565b92915050565b600080fd5b6000601f19601f8301169050919050565b7f4e487b7100000000000000000000000000000000000000000000000000000000600052604160045260246000fd5b6107e88261079f565b810181811067ffffffffffffffff82111715610807576108066107b0565b5b80604052505050565b600061081a61075a565b905061082682826107df565b919050565b600067ffffffffffffffff821115610846576108456107b0565b5b602082029050602081019050919050565b600080fd5b600061086f61086a8461082b565b610810565b9050808382526020820190506020840283018581111561089257610891610857565b5b835b818110156108bb57806108a78882610785565b845260208401935050602081019050610894565b5050509392505050565b600082601f8301126108da576108d961079a565b5b81356108ea84826020860161085c565b91505092915050565b6000806040838503121561090a57610909610764565b5b600061091885828601610785565b925050602083013567ffffffffffffffff81111561093957610938610769565b5b610945858286016108c5565b9150509250929050565b600080fd5b60008083601f84011261096a5761096961079a565b5b8235905067ffffffffffffffff8111156109875761098661094f565b5b6020830191508360018202830111156109a3576109a2610857565b5b9250929050565b600080602083850312156109c1576109c0610764565b5b600083013567ffffffffffffffff8111156109df576109de610769565b5b6109eb85828601610954565b92509250509250929050565b600073ffffffffffffffffffffffffffffffffffffffff82169050919050565b6000610a22826109f7565b9050919050565b610a3281610a17565b82525050565b6000602082019050610a4d6000830184610a29565b92915050565b60008115159050919050565b610a6881610a53565b82525050565b600081519050919050565b600082825260208201905092915050565b60005b83811015610aa8578082015181840152602081019050610a8d565b60008484015250505050565b6000610abf82610a6e565b610ac98185610a79565b9350610ad9818560208601610a8a565b610ae28161079f565b840191505092915050565b6000604082019050610b026000830185610a5f565b8181036020830152610b148184610ab4565b90509392505050565b600060208284031215610b3357610b32610764565b5b6000610b4184828501610785565b91505092915050565b6000610b55826109f7565b9050919050565b610b6581610b4a565b82525050565b6000602082019050610b806000830184610b5c565b92915050565b6000604082019050610b9b6000830185610a29565b610ba86020830184610a29565b9392505050565b6000819050919050565b610bc281610baf565b82525050565b600067ffffffffffffffff82169050919050565b610be581610bc8565b82525050565b600061ffff82169050919050565b610c0281610beb565b82525050565b600063ffffffff82169050919050565b610c2181610c08565b82525050565b600060a082019050610c3c6000830188610bb9565b610c496020830187610bdc565b610c566040830186610bf9565b610c636060830185610c18565b610c706080830184610c18565b9695505050505050565b600081519050610c898161076e565b92915050565b600060208284031215610ca557610ca4610764565b5b6000610cb384828501610c7a565b91505092915050565b7f4e487b7100000000000000000000000000000000000000000000000000000000600052603260045260246000fd5b7f4e487b7100000000000000000000000000000000000000000000000000000000600052601260045260246000fd5b6000610d2582610726565b9150610d3083610726565b925082610d4057610d3f610ceb565b5b828206905092915050565b600081905092915050565b50565b6000610d66600083610d4b565b9150610d7182610d56565b600082019050919050565b6000610d8782610d59565b915081905091905056fea26469706673582212206c9bcf8ed0e22cd7e4e6d5e0125c1ff39deb7db19df7fca015badefed35ba4b164736f6c634300081c0033","opcodes":"PUSH2 0x140 PUSH1 0x40 MSTORE CALLVALUE DUP1 ISZERO PUSH2 0x11 JUMPI PUSH1 0x0 DUP1 REVERT JUMPDEST POP PUSH1 0x40 MLOAD PUSH2 0x107F CODESIZE SUB DUP1 PUSH2 0x107F DUP4 CODECOPY DUP2 DUP2 ADD PUSH1 0x40 MSTORE DUP2 ADD SWAP1 PUSH2 0x33 SWAP2 SWAP1 PUSH2 0x1E0 JUMP JUMPDEST DUP5 DUP1 PUSH20 0xFFFFFFFFFFFFFFFFFFFFFFFFFFFFFFFFFFFFFFFF AND PUSH1 0x80 DUP2 PUSH20 0xFFFFFFFFFFFFFFFFFFFFFFFFFFFFFFFFFFFFFFFF AND DUP2 MSTORE POP POP POP DUP4 PUSH1 0xA0 DUP2 DUP2 MSTORE POP POP DUP5 PUSH20 0xFFFFFFFFFFFFFFFFFFFFFFFFFFFFFFFFFFFFFFFF AND PUSH1 0xC0 DUP2 PUSH20 0xFFFFFFFFFFFFFFFFFFFFFFFFFFFFFFFFFFFFFFFF AND DUP2 MSTORE POP POP DUP3 PUSH1 0xE0 DUP2 DUP2 MSTORE POP POP DUP2 PUSH4 0xFFFFFFFF AND PUSH2 0x100 DUP2 PUSH4 0xFFFFFFFF AND DUP2 MSTORE POP POP DUP1 PUSH2 0x120 DUP2 DUP2 MSTORE POP POP POP POP POP POP POP PUSH2 0x25B JUMP JUMPDEST PUSH1 0x0 DUP1 REVERT JUMPDEST PUSH1 0x0 PUSH20 0xFFFFFFFFFFFFFFFFFFFFFFFFFFFFFFFFFFFFFFFF DUP3 AND SWAP1 POP SWAP2 SWAP1 POP JUMP JUMPDEST PUSH1 0x0 PUSH2 0x105 DUP3 PUSH2 0xDA JUMP JUMPDEST SWAP1 POP SWAP2 SWAP1 POP JUMP JUMPDEST PUSH2 0x115 DUP2 PUSH2 0xFA JUMP JUMPDEST DUP2 EQ PUSH2 0x120 JUMPI PUSH1 0x0 DUP1 REVERT JUMPDEST POP JUMP JUMPDEST PUSH1 0x0 DUP2 MLOAD SWAP1 POP PUSH2 0x132 DUP2 PUSH2 0x10C JUMP JUMPDEST SWAP3 SWAP2 POP POP JUMP JUMPDEST PUSH1 0x0 DUP2 SWAP1 POP SWAP2 SWAP1 POP JUMP JUMPDEST PUSH2 0x14B DUP2 PUSH2 0x138 JUMP JUMPDEST DUP2 EQ PUSH2 0x156 JUMPI PUSH1 0x0 DUP1 REVERT JUMPDEST POP JUMP JUMPDEST PUSH1 0x0 DUP2 MLOAD SWAP1 POP PUSH2 0x168 DUP2 PUSH2 0x142 JUMP JUMPDEST SWAP3 SWAP2 POP POP JUMP JUMPDEST PUSH1 0x0 PUSH4 0xFFFFFFFF DUP3 AND SWAP1 POP SWAP2 SWAP1 POP JUMP JUMPDEST PUSH2 0x187 DUP2 PUSH2 0x16E JUMP JUMPDEST DUP2 EQ PUSH2 0x192 JUMPI PUSH1 0x0 DUP1 REVERT JUMPDEST POP JUMP JUMPDEST PUSH1 0x0 DUP2 MLOAD SWAP1 POP PUSH2 0x1A4 DUP2 PUSH2 0x17E JUMP JUMPDEST SWAP3 SWAP2 POP POP JUMP JUMPDEST PUSH1 0x0 DUP2 SWAP1 POP SWAP2 SWAP1 POP JUMP JUMPDEST PUSH2 0x1BD DUP2 PUSH2 0x1AA JUMP JUMPDEST DUP2 EQ PUSH2 0x1C8 JUMPI PUSH1 0x0 DUP1 REVERT JUMPDEST POP JUMP JUMPDEST PUSH1 0x0 DUP2 MLOAD SWAP1 POP PUSH2 0x1DA DUP2 PUSH2 0x1B4 JUMP JUMPDEST SWAP3 SWAP2 POP POP JUMP JUMPDEST PUSH1 0x0 DUP1 PUSH1 0x0 DUP1 PUSH1 0x0 PUSH1 0xA0 DUP7 DUP9 SUB SLT ISZERO PUSH2 0x1FC JUMPI PUSH2 0x1FB PUSH2 0xD5 JUMP JUMPDEST JUMPDEST PUSH1 0x0 PUSH2 0x20A DUP9 DUP3 DUP10 ADD PUSH2 0x123 JUMP JUMPDEST SWAP6 POP POP PUSH1 0x20 PUSH2 0x21B DUP9 DUP3 DUP10 ADD PUSH2 0x159 JUMP JUMPDEST SWAP5 POP POP PUSH1 0x40 PUSH2 0x22C DUP9 DUP3 DUP10 ADD PUSH2 0x159 JUMP JUMPDEST SWAP4 POP POP PUSH1 0x60 PUSH2 0x23D DUP9 DUP3 DUP10 ADD PUSH2 0x195 JUMP JUMPDEST SWAP3 POP POP PUSH1 0x80 PUSH2 0x24E DUP9 DUP3 DUP10 ADD PUSH2 0x1CB JUMP JUMPDEST SWAP2 POP POP SWAP3 SWAP6 POP SWAP3 SWAP6 SWAP1 SWAP4 POP JUMP JUMPDEST PUSH1 0x80 MLOAD PUSH1 0xA0 MLOAD PUSH1 0xC0 MLOAD PUSH1 0xE0 MLOAD PUSH2 0x100 MLOAD PUSH2 0x120 MLOAD PUSH2 0xDC7 PUSH2 0x2B8 PUSH1 0x0 CODECOPY PUSH1 0x0 PUSH2 0x424 ADD MSTORE PUSH1 0x0 PUSH2 0x468 ADD MSTORE PUSH1 0x0 PUSH2 0x445 ADD MSTORE PUSH1 0x0 PUSH2 0x3E8 ADD MSTORE PUSH1 0x0 DUP2 DUP2 PUSH2 0x1C8 ADD MSTORE PUSH2 0x2AE ADD MSTORE PUSH1 0x0 DUP2 DUP2 PUSH2 0x1EE ADD MSTORE PUSH2 0x242 ADD MSTORE PUSH2 0xDC7 PUSH1 0x0 RETURN INVALID PUSH1 0x80 PUSH1 0x40 MSTORE PUSH1 0x4 CALLDATASIZE LT PUSH2 0x7B JUMPI PUSH1 0x0 CALLDATALOAD PUSH1 0xE0 SHR DUP1 PUSH4 0x473F1DDC GT PUSH2 0x4E JUMPI DUP1 PUSH4 0x473F1DDC EQ PUSH2 0x107 JUMPI DUP1 PUSH4 0x522A1F0B EQ PUSH2 0x132 JUMPI DUP1 PUSH4 0x6E04FF0D EQ PUSH2 0x149 JUMPI DUP1 PUSH4 0xE55AE4E8 EQ PUSH2 0x187 JUMPI PUSH2 0x7B JUMP JUMPDEST DUP1 PUSH4 0x9BC33A7 EQ PUSH2 0x80 JUMPI DUP1 PUSH4 0x1FE543E3 EQ PUSH2 0xAB JUMPI DUP1 PUSH4 0x2CFCC539 EQ PUSH2 0xD4 JUMPI DUP1 PUSH4 0x4585E33B EQ PUSH2 0xDE JUMPI JUMPDEST PUSH1 0x0 DUP1 REVERT JUMPDEST CALLVALUE DUP1 ISZERO PUSH2 0x8C JUMPI PUSH1 0x0 DUP1 REVERT JUMPDEST POP PUSH2 0x95 PUSH2 0x1C4 JUMP JUMPDEST PUSH1 0x40 MLOAD PUSH2 0xA2 SWAP2 SWAP1 PUSH2 0x73F JUMP JUMPDEST PUSH1 0x40 MLOAD DUP1 SWAP2 SUB SWAP1 RETURN JUMPDEST CALLVALUE DUP1 ISZERO PUSH2 0xB7 JUMPI PUSH1 0x0 DUP1 REVERT JUMPDEST POP PUSH2 0xD2 PUSH1 0x4 DUP1 CALLDATASIZE SUB DUP2 ADD SWAP1 PUSH2 0xCD SWAP2 SWAP1 PUSH2 0x8F3 JUMP JUMPDEST PUSH2 0x1EC JUMP JUMPDEST STOP JUMPDEST PUSH2 0xDC PUSH2 0x2AC JUMP JUMPDEST STOP JUMPDEST CALLVALUE DUP1 ISZERO PUSH2 0xEA JUMPI PUSH1 0x0 DUP1 REVERT JUMPDEST POP PUSH2 0x105 PUSH1 0x4 DUP1 CALLDATASIZE SUB DUP2 ADD SWAP1 PUSH2 0x100 SWAP2 SWAP1 PUSH2 0x9AA JUMP JUMPDEST PUSH2 0x3AE JUMP JUMPDEST STOP JUMPDEST CALLVALUE DUP1 ISZERO PUSH2 0x113 JUMPI PUSH1 0x0 DUP1 REVERT JUMPDEST POP PUSH2 0x11C PUSH2 0x3BA JUMP JUMPDEST PUSH1 0x40 MLOAD PUSH2 0x129 SWAP2 SWAP1 PUSH2 0xA38 JUMP JUMPDEST PUSH1 0x40 MLOAD DUP1 SWAP2 SUB SWAP1 RETURN JUMPDEST CALLVALUE DUP1 ISZERO PUSH2 0x13E JUMPI PUSH1 0x0 DUP1 REVERT JUMPDEST POP PUSH2 0x147 PUSH2 0x3E4 JUMP JUMPDEST STOP JUMPDEST CALLVALUE DUP1 ISZERO PUSH2 0x155 JUMPI PUSH1 0x0 DUP1 REVERT JUMPDEST POP PUSH2 0x170 PUSH1 0x4 DUP1 CALLDATASIZE SUB DUP2 ADD SWAP1 PUSH2 0x16B SWAP2 SWAP1 PUSH2 0x9AA JUMP JUMPDEST PUSH2 0x4F1 JUMP JUMPDEST PUSH1 0x40 MLOAD PUSH2 0x17E SWAP3 SWAP2 SWAP1 PUSH2 0xAED JUMP JUMPDEST PUSH1 0x40 MLOAD DUP1 SWAP2 SUB SWAP1 RETURN JUMPDEST CALLVALUE DUP1 ISZERO PUSH2 0x193 JUMPI PUSH1 0x0 DUP1 REVERT JUMPDEST POP PUSH2 0x1AE PUSH1 0x4 DUP1 CALLDATASIZE SUB DUP2 ADD SWAP1 PUSH2 0x1A9 SWAP2 SWAP1 PUSH2 0xB1D JUMP JUMPDEST PUSH2 0x4FC JUMP JUMPDEST PUSH1 0x40 MLOAD PUSH2 0x1BB SWAP2 SWAP1 PUSH2 0xB6B JUMP JUMPDEST PUSH1 0x40 MLOAD DUP1 SWAP2 SUB SWAP1 RETURN JUMPDEST PUSH1 0x0 PUSH32 0x0 SWAP1 POP SWAP1 JUMP JUMPDEST PUSH32 0x0 PUSH20 0xFFFFFFFFFFFFFFFFFFFFFFFFFFFFFFFFFFFFFFFF AND CALLER PUSH20 0xFFFFFFFFFFFFFFFFFFFFFFFFFFFFFFFFFFFFFFFF AND EQ PUSH2 0x29E JUMPI CALLER PUSH32 0x0 PUSH1 0x40 MLOAD PUSH32 0x1CF993F400000000000000000000000000000000000000000000000000000000 DUP2 MSTORE PUSH1 0x4 ADD PUSH2 0x295 SWAP3 SWAP2 SWAP1 PUSH2 0xB86 JUMP JUMPDEST PUSH1 0x40 MLOAD DUP1 SWAP2 SUB SWAP1 REVERT JUMPDEST PUSH2 0x2A8 DUP3 DUP3 PUSH2 0x543 JUMP JUMPDEST POP POP JUMP JUMPDEST PUSH32 0x0 CALLVALUE LT ISZERO PUSH2 0x306 JUMPI PUSH1 0x40 MLOAD PUSH32 0x3038C00A00000000000000000000000000000000000000000000000000000000 DUP2 MSTORE PUSH1 0x4 ADD PUSH1 0x40 MLOAD DUP1 SWAP2 SUB SWAP1 REVERT JUMPDEST PUSH1 0x0 CALLER SWAP1 DUP1 PUSH1 0x1 DUP2 SLOAD ADD DUP1 DUP3 SSTORE DUP1 SWAP2 POP POP PUSH1 0x1 SWAP1 SUB SWAP1 PUSH1 0x0 MSTORE PUSH1 0x20 PUSH1 0x0 KECCAK256 ADD PUSH1 0x0 SWAP1 SWAP2 SWAP1 SWAP2 SWAP1 SWAP2 PUSH2 0x100 EXP DUP2 SLOAD DUP2 PUSH20 0xFFFFFFFFFFFFFFFFFFFFFFFFFFFFFFFFFFFFFFFF MUL NOT AND SWAP1 DUP4 PUSH20 0xFFFFFFFFFFFFFFFFFFFFFFFFFFFFFFFFFFFFFFFF AND MUL OR SWAP1 SSTORE POP CALLER PUSH20 0xFFFFFFFFFFFFFFFFFFFFFFFFFFFFFFFFFFFFFFFF AND PUSH32 0x742D070BF0F3EDACE132A9DA8BA725E8CF99C478869CEE7F673ED6085E2F8E64 PUSH1 0x40 MLOAD PUSH1 0x40 MLOAD DUP1 SWAP2 SUB SWAP1 LOG2 JUMP JUMPDEST PUSH2 0x3B6 PUSH2 0x3E4 JUMP JUMPDEST POP POP JUMP JUMPDEST PUSH1 0x0 PUSH1 0x1 PUSH1 0x0 SWAP1 SLOAD SWAP1 PUSH2 0x100 EXP SWAP1 DIV PUSH20 0xFFFFFFFFFFFFFFFFFFFFFFFFFFFFFFFFFFFFFFFF AND SWAP1 POP SWAP1 JUMP JUMPDEST PUSH1 0x0 PUSH32 0x0 PUSH20 0xFFFFFFFFFFFFFFFFFFFFFFFFFFFFFFFFFFFFFFFF AND PUSH4 0x5D3B1D30 PUSH32 0x0 PUSH32 0x0 PUSH1 0x3 PUSH32 0x0 PUSH1 0x1 PUSH1 0x40 MLOAD DUP7 PUSH4 0xFFFFFFFF AND PUSH1 0xE0 SHL DUP2 MSTORE PUSH1 0x4 ADD PUSH2 0x4A9 SWAP6 SWAP5 SWAP4 SWAP3 SWAP2 SWAP1 PUSH2 0xC27 JUMP JUMPDEST PUSH1 0x20 PUSH1 0x40 MLOAD DUP1 DUP4 SUB DUP2 PUSH1 0x0 DUP8 GAS CALL ISZERO DUP1 ISZERO PUSH2 0x4C8 JUMPI RETURNDATASIZE PUSH1 0x0 DUP1 RETURNDATACOPY RETURNDATASIZE PUSH1 0x0 REVERT JUMPDEST POP POP POP POP PUSH1 0x40 MLOAD RETURNDATASIZE PUSH1 0x1F NOT PUSH1 0x1F DUP3 ADD AND DUP3 ADD DUP1 PUSH1 0x40 MSTORE POP DUP2 ADD SWAP1 PUSH2 0x4EC SWAP2 SWAP1 PUSH2 0xC8F JUMP JUMPDEST SWAP1 POP POP JUMP JUMPDEST PUSH1 0x0 PUSH1 0x60 SWAP3 POP SWAP3 SWAP1 POP JUMP JUMPDEST PUSH1 0x0 DUP1 DUP3 DUP2 SLOAD DUP2 LT PUSH2 0x511 JUMPI PUSH2 0x510 PUSH2 0xCBC JUMP JUMPDEST JUMPDEST SWAP1 PUSH1 0x0 MSTORE PUSH1 0x20 PUSH1 0x0 KECCAK256 ADD PUSH1 0x0 SWAP1 SLOAD SWAP1 PUSH2 0x100 EXP SWAP1 DIV PUSH20 0xFFFFFFFFFFFFFFFFFFFFFFFFFFFFFFFFFFFFFFFF AND SWAP1 POP SWAP2 SWAP1 POP JUMP JUMPDEST PUSH1 0x0 DUP1 DUP1 SLOAD SWAP1 POP DUP3 PUSH1 0x0 DUP2 MLOAD DUP2 LT PUSH2 0x55E JUMPI PUSH2 0x55D PUSH2 0xCBC JUMP JUMPDEST JUMPDEST PUSH1 0x20 MUL PUSH1 0x20 ADD ADD MLOAD PUSH2 0x570 SWAP2 SWAP1 PUSH2 0xD1A JUMP JUMPDEST SWAP1 POP PUSH1 0x0 DUP1 DUP3 DUP2 SLOAD DUP2 LT PUSH2 0x587 JUMPI PUSH2 0x586 PUSH2 0xCBC JUMP JUMPDEST JUMPDEST SWAP1 PUSH1 0x0 MSTORE PUSH1 0x20 PUSH1 0x0 KECCAK256 ADD PUSH1 0x0 SWAP1 SLOAD SWAP1 PUSH2 0x100 EXP SWAP1 DIV PUSH20 0xFFFFFFFFFFFFFFFFFFFFFFFFFFFFFFFFFFFFFFFF AND SWAP1 POP DUP1 PUSH1 0x1 PUSH1 0x0 PUSH2 0x100 EXP DUP2 SLOAD DUP2 PUSH20 0xFFFFFFFFFFFFFFFFFFFFFFFFFFFFFFFFFFFFFFFF MUL NOT AND SWAP1 DUP4 PUSH20 0xFFFFFFFFFFFFFFFFFFFFFFFFFFFFFFFFFFFFFFFF AND MUL OR SWAP1 SSTORE POP PUSH1 0x0 PUSH1 0x1 PUSH1 0x0 SWAP1 SLOAD SWAP1 PUSH2 0x100 EXP SWAP1 DIV PUSH20 0xFFFFFFFFFFFFFFFFFFFFFFFFFFFFFFFFFFFFFFFF AND PUSH20 0xFFFFFFFFFFFFFFFFFFFFFFFFFFFFFFFFFFFFFFFF AND SELFBALANCE PUSH1 0x40 MLOAD PUSH2 0x63D SWAP1 PUSH2 0xD7C JUMP JUMPDEST PUSH1 0x0 PUSH1 0x40 MLOAD DUP1 DUP4 SUB DUP2 DUP6 DUP8 GAS CALL SWAP3 POP POP POP RETURNDATASIZE DUP1 PUSH1 0x0 DUP2 EQ PUSH2 0x67A JUMPI PUSH1 0x40 MLOAD SWAP2 POP PUSH1 0x1F NOT PUSH1 0x3F RETURNDATASIZE ADD AND DUP3 ADD PUSH1 0x40 MSTORE RETURNDATASIZE DUP3 MSTORE RETURNDATASIZE PUSH1 0x0 PUSH1 0x20 DUP5 ADD RETURNDATACOPY PUSH2 0x67F JUMP JUMPDEST PUSH1 0x60 SWAP2 POP JUMPDEST POP POP SWAP1 POP DUP1 PUSH2 0x6BA JUMPI PUSH1 0x40 MLOAD PUSH32 0x5714DF0A00000000000000000000000000000000000000000000000000000000 DUP2 MSTORE PUSH1 0x4 ADD PUSH1 0x40 MLOAD DUP1 SWAP2 SUB SWAP1 REVERT JUMPDEST PUSH1 0x1 PUSH1 0x0 SWAP1 SLOAD SWAP1 PUSH2 0x100 EXP SWAP1 DIV PUSH20 0xFFFFFFFFFFFFFFFFFFFFFFFFFFFFFFFFFFFFFFFF AND PUSH20 0xFFFFFFFFFFFFFFFFFFFFFFFFFFFFFFFFFFFFFFFF AND PUSH32 0x794919B0F484B8E90B1B817AC7F880F846FBD8A9813DEE2A378E820DB094E3D1 PUSH1 0x40 MLOAD PUSH1 0x40 MLOAD DUP1 SWAP2 SUB SWAP1 LOG2 POP POP POP POP POP JUMP JUMPDEST PUSH1 0x0 DUP2 SWAP1 POP SWAP2 SWAP1 POP JUMP JUMPDEST PUSH2 0x739 DUP2 PUSH2 0x726 JUMP JUMPDEST DUP3 MSTORE POP POP JUMP JUMPDEST PUSH1 0x0 PUSH1 0x20 DUP3 ADD SWAP1 POP PUSH2 0x754 PUSH1 0x0 DUP4 ADD DUP5 PUSH2 0x730 JUMP JUMPDEST SWAP3 SWAP2 POP POP JUMP JUMPDEST PUSH1 0x0 PUSH1 0x40 MLOAD SWAP1 POP SWAP1 JUMP JUMPDEST PUSH1 0x0 DUP1 REVERT JUMPDEST PUSH1 0x0 DUP1 REVERT JUMPDEST PUSH2 0x777 DUP2 PUSH2 0x726 JUMP JUMPDEST DUP2 EQ PUSH2 0x782 JUMPI PUSH1 0x0 DUP1 REVERT JUMPDEST POP JUMP JUMPDEST PUSH1 0x0 DUP2 CALLDATALOAD SWAP1 POP PUSH2 0x794 DUP2 PUSH2 0x76E JUMP JUMPDEST SWAP3 SWAP2 POP POP JUMP JUMPDEST PUSH1 0x0 DUP1 REVERT JUMPDEST PUSH1 0x0 PUSH1 0x1F NOT PUSH1 0x1F DUP4 ADD AND SWAP1 POP SWAP2 SWAP1 POP JUMP JUMPDEST PUSH32 0x4E487B7100000000000000000000000000000000000000000000000000000000 PUSH1 0x0 MSTORE PUSH1 0x41 PUSH1 0x4 MSTORE PUSH1 0x24 PUSH1 0x0 REVERT JUMPDEST PUSH2 0x7E8 DUP3 PUSH2 0x79F JUMP JUMPDEST DUP2 ADD DUP2 DUP2 LT PUSH8 0xFFFFFFFFFFFFFFFF DUP3 GT OR ISZERO PUSH2 0x807 JUMPI PUSH2 0x806 PUSH2 0x7B0 JUMP JUMPDEST JUMPDEST DUP1 PUSH1 0x40 MSTORE POP POP POP JUMP JUMPDEST PUSH1 0x0 PUSH2 0x81A PUSH2 0x75A JUMP JUMPDEST SWAP1 POP PUSH2 0x826 DUP3 DUP3 PUSH2 0x7DF JUMP JUMPDEST SWAP2 SWAP1 POP JUMP JUMPDEST PUSH1 0x0 PUSH8 0xFFFFFFFFFFFFFFFF DUP3 GT ISZERO PUSH2 0x846 JUMPI PUSH2 0x845 PUSH2 0x7B0 JUMP JUMPDEST JUMPDEST PUSH1 0x20 DUP3 MUL SWAP1 POP PUSH1 0x20 DUP2 ADD SWAP1 POP SWAP2 SWAP1 POP JUMP JUMPDEST PUSH1 0x0 DUP1 REVERT JUMPDEST PUSH1 0x0 PUSH2 0x86F PUSH2 0x86A DUP5 PUSH2 0x82B JUMP JUMPDEST PUSH2 0x810 JUMP JUMPDEST SWAP1 POP DUP1 DUP4 DUP3 MSTORE PUSH1 0x20 DUP3 ADD SWAP1 POP PUSH1 0x20 DUP5 MUL DUP4 ADD DUP6 DUP2 GT ISZERO PUSH2 0x892 JUMPI PUSH2 0x891 PUSH2 0x857 JUMP JUMPDEST JUMPDEST DUP4 JUMPDEST DUP2 DUP2 LT ISZERO PUSH2 0x8BB JUMPI DUP1 PUSH2 0x8A7 DUP9 DUP3 PUSH2 0x785 JUMP JUMPDEST DUP5 MSTORE PUSH1 0x20 DUP5 ADD SWAP4 POP POP PUSH1 0x20 DUP2 ADD SWAP1 POP PUSH2 0x894 JUMP JUMPDEST POP POP POP SWAP4 SWAP3 POP POP POP JUMP JUMPDEST PUSH1 0x0 DUP3 PUSH1 0x1F DUP4 ADD SLT PUSH2 0x8DA JUMPI PUSH2 0x8D9 PUSH2 0x79A JUMP JUMPDEST JUMPDEST DUP2 CALLDATALOAD PUSH2 0x8EA DUP5 DUP3 PUSH1 0x20 DUP7 ADD PUSH2 0x85C JUMP JUMPDEST SWAP2 POP POP SWAP3 SWAP2 POP POP JUMP JUMPDEST PUSH1 0x0 DUP1 PUSH1 0x40 DUP4 DUP6 SUB SLT ISZERO PUSH2 0x90A JUMPI PUSH2 0x909 PUSH2 0x764 JUMP JUMPDEST JUMPDEST PUSH1 0x0 PUSH2 0x918 DUP6 DUP3 DUP7 ADD PUSH2 0x785 JUMP JUMPDEST SWAP3 POP POP PUSH1 0x20 DUP4 ADD CALLDATALOAD PUSH8 0xFFFFFFFFFFFFFFFF DUP2 GT ISZERO PUSH2 0x939 JUMPI PUSH2 0x938 PUSH2 0x769 JUMP JUMPDEST JUMPDEST PUSH2 0x945 DUP6 DUP3 DUP7 ADD PUSH2 0x8C5 JUMP JUMPDEST SWAP2 POP POP SWAP3 POP SWAP3 SWAP1 POP JUMP JUMPDEST PUSH1 0x0 DUP1 REVERT JUMPDEST PUSH1 0x0 DUP1 DUP4 PUSH1 0x1F DUP5 ADD SLT PUSH2 0x96A JUMPI PUSH2 0x969 PUSH2 0x79A JUMP JUMPDEST JUMPDEST DUP3 CALLDATALOAD SWAP1 POP PUSH8 0xFFFFFFFFFFFFFFFF DUP2 GT ISZERO PUSH2 0x987 JUMPI PUSH2 0x986 PUSH2 0x94F JUMP JUMPDEST JUMPDEST PUSH1 0x20 DUP4 ADD SWAP2 POP DUP4 PUSH1 0x1 DUP3 MUL DUP4 ADD GT ISZERO PUSH2 0x9A3 JUMPI PUSH2 0x9A2 PUSH2 0x857 JUMP JUMPDEST JUMPDEST SWAP3 POP SWAP3 SWAP1 POP JUMP JUMPDEST PUSH1 0x0 DUP1 PUSH1 0x20 DUP4 DUP6 SUB SLT ISZERO PUSH2 0x9C1 JUMPI PUSH2 0x9C0 PUSH2 0x764 JUMP JUMPDEST JUMPDEST PUSH1 0x0 DUP4 ADD CALLDATALOAD PUSH8 0xFFFFFFFFFFFFFFFF DUP2 GT ISZERO PUSH2 0x9DF JUMPI PUSH2 0x9DE PUSH2 0x769 JUMP JUMPDEST JUMPDEST PUSH2 0x9EB DUP6 DUP3 DUP7 ADD PUSH2 0x954 JUMP JUMPDEST SWAP3 POP SWAP3 POP POP SWAP3 POP SWAP3 SWAP1 POP JUMP JUMPDEST PUSH1 0x0 PUSH20 0xFFFFFFFFFFFFFFFFFFFFFFFFFFFFFFFFFFFFFFFF DUP3 AND SWAP1 POP SWAP2 SWAP1 POP JUMP JUMPDEST PUSH1 0x0 PUSH2 0xA22 DUP3 PUSH2 0x9F7 JUMP JUMPDEST SWAP1 POP SWAP2 SWAP1 POP JUMP JUMPDEST PUSH2 0xA32 DUP2 PUSH2 0xA17 JUMP JUMPDEST DUP3 MSTORE POP POP JUMP JUMPDEST PUSH1 0x0 PUSH1 0x20 DUP3 ADD SWAP1 POP PUSH2 0xA4D PUSH1 0x0 DUP4 ADD DUP5 PUSH2 0xA29 JUMP JUMPDEST SWAP3 SWAP2 POP POP JUMP JUMPDEST PUSH1 0x0 DUP2 ISZERO ISZERO SWAP1 POP SWAP2 SWAP1 POP JUMP JUMPDEST PUSH2 0xA68 DUP2 PUSH2 0xA53 JUMP JUMPDEST DUP3 MSTORE POP POP JUMP JUMPDEST PUSH1 0x0 DUP2 MLOAD SWAP1 POP SWAP2 SWAP1 POP JUMP JUMPDEST PUSH1 0x0 DUP3 DUP3 MSTORE PUSH1 0x20 DUP3 ADD SWAP1 POP SWAP3 SWAP2 POP POP JUMP JUMPDEST PUSH1 0x0 JUMPDEST DUP4 DUP2 LT ISZERO PUSH2 0xAA8 JUMPI DUP1 DUP3 ADD MLOAD DUP2 DUP5 ADD MSTORE PUSH1 0x20 DUP2 ADD SWAP1 POP PUSH2 0xA8D JUMP JUMPDEST PUSH1 0x0 DUP5 DUP5 ADD MSTORE POP POP POP POP JUMP JUMPDEST PUSH1 0x0 PUSH2 0xABF DUP3 PUSH2 0xA6E JUMP JUMPDEST PUSH2 0xAC9 DUP2 DUP6 PUSH2 0xA79 JUMP JUMPDEST SWAP4 POP PUSH2 0xAD9 DUP2 DUP6 PUSH1 0x20 DUP7 ADD PUSH2 0xA8A JUMP JUMPDEST PUSH2 0xAE2 DUP2 PUSH2 0x79F JUMP JUMPDEST DUP5 ADD SWAP2 POP POP SWAP3 SWAP2 POP POP JUMP JUMPDEST PUSH1 0x0 PUSH1 0x40 DUP3 ADD SWAP1 POP PUSH2 0xB02 PUSH1 0x0 DUP4 ADD DUP6 PUSH2 0xA5F JUMP JUMPDEST DUP2 DUP2 SUB PUSH1 0x20 DUP4 ADD MSTORE PUSH2 0xB14 DUP2 DUP5 PUSH2 0xAB4 JUMP JUMPDEST SWAP1 POP SWAP4 SWAP3 POP POP POP JUMP JUMPDEST PUSH1 0x0 PUSH1 0x20 DUP3 DUP5 SUB SLT ISZERO PUSH2 0xB33 JUMPI PUSH2 0xB32 PUSH2 0x764 JUMP JUMPDEST JUMPDEST PUSH1 0x0 PUSH2 0xB41 DUP5 DUP3 DUP6 ADD PUSH2 0x785 JUMP JUMPDEST SWAP2 POP POP SWAP3 SWAP2 POP POP JUMP JUMPDEST PUSH1 0x0 PUSH2 0xB55 DUP3 PUSH2 0x9F7 JUMP JUMPDEST SWAP1 POP SWAP2 SWAP1 POP JUMP JUMPDEST PUSH2 0xB65 DUP2 PUSH2 0xB4A JUMP JUMPDEST DUP3 MSTORE POP POP JUMP JUMPDEST PUSH1 0x0 PUSH1 0x20 DUP3 ADD SWAP1 POP PUSH2 0xB80 PUSH1 0x0 DUP4 ADD DUP5 PUSH2 0xB5C JUMP JUMPDEST SWAP3 SWAP2 POP POP JUMP JUMPDEST PUSH1 0x0 PUSH1 0x40 DUP3 ADD SWAP1 POP PUSH2 0xB9B PUSH1 0x0 DUP4 ADD DUP6 PUSH2 0xA29 JUMP JUMPDEST PUSH2 0xBA8 PUSH1 0x20 DUP4 ADD DUP5 PUSH2 0xA29 JUMP JUMPDEST SWAP4 SWAP3 POP POP POP JUMP JUMPDEST PUSH1 0x0 DUP2 SWAP1 POP SWAP2 SWAP1 POP JUMP JUMPDEST PUSH2 0xBC2 DUP2 PUSH2 0xBAF JUMP JUMPDEST DUP3 MSTORE POP POP JUMP JUMPDEST PUSH1 0x0 PUSH8 0xFFFFFFFFFFFFFFFF DUP3 AND SWAP1 POP SWAP2 SWAP1 POP JUMP JUMPDEST PUSH2 0xBE5 DUP2 PUSH2 0xBC8 JUMP JUMPDEST DUP3 MSTORE POP POP JUMP JUMPDEST PUSH1 0x0 PUSH2 0xFFFF DUP3 AND SWAP1 POP SWAP2 SWAP1 POP JUMP JUMPDEST PUSH2 0xC02 DUP2 PUSH2 0xBEB JUMP JUMPDEST DUP3 MSTORE POP POP JUMP JUMPDEST PUSH1 0x0 PUSH4 0xFFFFFFFF DUP3 AND SWAP1 POP SWAP2 SWAP1 POP JUMP JUMPDEST PUSH2 0xC21 DUP2 PUSH2 0xC08 JUMP JUMPDEST DUP3 MSTORE POP POP JUMP JUMPDEST PUSH1 0x0 PUSH1 0xA0 DUP3 ADD SWAP1 POP PUSH2 0xC3C PUSH1 0x0 DUP4 ADD DUP9 PUSH2 0xBB9 JUMP JUMPDEST PUSH2 0xC49 PUSH1 0x20 DUP4 ADD DUP8 PUSH2 0xBDC JUMP JUMPDEST PUSH2 0xC56 PUSH1 0x40 DUP4 ADD DUP7 PUSH2 0xBF9 JUMP JUMPDEST PUSH2 0xC63 PUSH1 0x60 DUP4 ADD DUP6 PUSH2 0xC18 JUMP JUMPDEST PUSH2 0xC70 PUSH1 0x80 DUP4 ADD DUP5 PUSH2 0xC18 JUMP JUMPDEST SWAP7 SWAP6 POP POP POP POP POP POP JUMP JUMPDEST PUSH1 0x0 DUP2 MLOAD SWAP1 POP PUSH2 0xC89 DUP2 PUSH2 0x76E JUMP JUMPDEST SWAP3 SWAP2 POP POP JUMP JUMPDEST PUSH1 0x0 PUSH1 0x20 DUP3 DUP5 SUB SLT ISZERO PUSH2 0xCA5 JUMPI PUSH2 0xCA4 PUSH2 0x764 JUMP JUMPDEST JUMPDEST PUSH1 0x0 PUSH2 0xCB3 DUP5 DUP3 DUP6 ADD PUSH2 0xC7A JUMP JUMPDEST SWAP2 POP POP SWAP3 SWAP2 POP POP JUMP JUMPDEST PUSH32 0x4E487B7100000000000000000000000000000000000000000000000000000000 PUSH1 0x0 MSTORE PUSH1 0x32 PUSH1 0x4 MSTORE PUSH1 0x24 PUSH1 0x0 REVERT JUMPDEST PUSH32 0x4E487B7100000000000000000000000000000000000000000000000000000000 PUSH1 0x0 MSTORE PUSH1 0x12 PUSH1 0x4 MSTORE PUSH1 0x24 PUSH1 0x0 REVERT JUMPDEST PUSH1 0x0 PUSH2 0xD25 DUP3 PUSH2 0x726 JUMP JUMPDEST SWAP2 POP PUSH2 0xD30 DUP4 PUSH2 0x726 JUMP JUMPDEST SWAP3 POP DUP3 PUSH2 0xD40 JUMPI PUSH2 0xD3F PUSH2 0xCEB JUMP JUMPDEST JUMPDEST DUP3 DUP3 MOD SWAP1 POP SWAP3 SWAP2 POP POP JUMP JUMPDEST PUSH1 0x0 DUP2 SWAP1 POP SWAP3 SWAP2 POP POP JUMP JUMPDEST POP JUMP JUMPDEST PUSH1 0x0 PUSH2 0xD66 PUSH1 0x0 DUP4 PUSH2 0xD4B JUMP JUMPDEST SWAP2 POP PUSH2 0xD71 DUP3 PUSH2 0xD56 JUMP JUMPDEST PUSH1 0x0 DUP3 ADD SWAP1 POP SWAP2 SWAP1 POP JUMP JUMPDEST PUSH1 0x0 PUSH2 0xD87 DUP3 PUSH2 0xD59 JUMP JUMPDEST SWAP2 POP DUP2 SWAP1 POP SWAP2 SWAP1 POP JUMP INVALID LOG2 PUSH5 0x6970667358 0x22 SLT KECCAK256 PUSH13 0x9BCF8ED0E22CD7E4E6D5E0125C 0x1F RETURN SWAP14 0xEB PUSH30 0xB19DF7FCA015BADEFED35BA4B164736F6C634300081C0033000000000000 "},"gasEstimates":{"creation":{"codeDepositCost":"705400","executionCost":"infinite","totalCost":"infinite"},"external":{"checkUpkeep(bytes)":"infinite","enterRaffle()":"infinite","getEntranceFee()":"infinite","getPlayer(uint256)":"5033","getRecentWinner()":"2522","performUpkeep(bytes)":"infinite","rawFulfillRandomWords(uint256,uint256[])":"infinite","requestRandomWinner()":"infinite"},"internal":{"fulfillRandomWords(uint256,uint256[] memory)":"infinite"}},"methodIdentifiers":{"checkUpkeep(bytes)":"6e04ff0d","enterRaffle()":"2cfcc539","getEntranceFee()":"09bc33a7","getPlayer(uint256)":"e55ae4e8","getRecentWinner()":"473f1ddc","performUpkeep(bytes)":"4585e33b","rawFulfillRandomWords(uint256,uint256[])":"1fe543e3","requestRandomWinner()":"522a1f0b"}},"storageLayout":{"storage":[{"astId":239,"contract":"contracts/Raffle.sol:Raffle","label":"s_players","offset":0,"slot":"0","type":"t_array(t_address_payable)dyn_storage"},{"astId":246,"contract":"contracts/Raffle.sol:Raffle","label":"recentWinner","offset":0,"slot":"1","type":"t_address_payable"}],"types":{"t_address_payable":{"encoding":"inplace","label":"address payable","numberOfBytes":"20"},"t_array(t_address_payable)dyn_storage":{"base":"t_address_payable","encoding":"dynamic_array","label":"address payable[]","numberOfBytes":"32"}}},"userdoc":{"kind":"user","methods":{"performUpkeep(bytes)":{"notice":"method that is actually executed by the keepers, via the registry. The data returned by the checkUpkeep simulation will be passed into this method to actually be executed."}},"version":1}}}}