{"contracts/Raffle.sol":{"Raffle":{"abi":[{"inputs":[{"internalType":"address","name":"vrfCoordinatorV2","type":"address"},{"internalType":"uint256","name":"entrancefee","type":"uint256"},{"internalType":"uint256","name":"subscriptionId","type":"uint256"},{"internalType":"uint32","name":"callbackGasLimit","type":"uint32"},{"internalType":"bytes32","name":"gasLane","type":"bytes32"},{"internalType":"uint256","name":"interval","type":"uint256"}],"stateMutability":"nonpayable","type":"constructor"},{"inputs":[{"internalType":"address","name":"have","type":"address"},{"internalType":"address","name":"want","type":"address"}],"name":"OnlyCoordinatorCanFulfill","type":"error"},{"inputs":[],"name":"OnlySimulatedBackend","type":"error"},{"inputs":[],"name":"Raffle_Not_Open","type":"error"},{"inputs":[],"name":"Raffle_TransferUnsuccessful","type":"error"},{"inputs":[],"name":"Raffle__SendMoreToEnterRaffle","type":"error"},{"inputs":[{"internalType":"uint256","name":"currentBalance","type":"uint256"},{"internalType":"uint256","name":"numPlayers","type":"uint256"},{"internalType":"uint256","name":"raffleState","type":"uint256"}],"name":"checkUpkeep_Not_Needed","type":"error"},{"anonymous":false,"inputs":[{"indexed":true,"internalType":"uint256","name":"requestId","type":"uint256"}],"name":"RequestedRandomWords","type":"event"},{"anonymous":false,"inputs":[{"indexed":true,"internalType":"address","name":"player","type":"address"}],"name":"raffleEnter","type":"event"},{"anonymous":false,"inputs":[{"indexed":true,"internalType":"address","name":"winner","type":"address"}],"name":"winnerPicked","type":"event"},{"inputs":[],"name":"changerafflestate","outputs":[],"stateMutability":"nonpayable","type":"function"},{"inputs":[{"internalType":"bytes","name":"","type":"bytes"}],"name":"checkUpkeep","outputs":[{"internalType":"bool","name":"upkeepNeeded","type":"bool"},{"internalType":"bytes","name":"","type":"bytes"}],"stateMutability":"view","type":"function"},{"inputs":[],"name":"enterRaffle","outputs":[],"stateMutability":"payable","type":"function"},{"inputs":[],"name":"getEntranceFee","outputs":[{"internalType":"uint256","name":"","type":"uint256"}],"stateMutability":"view","type":"function"},{"inputs":[],"name":"getInterval","outputs":[{"internalType":"uint256","name":"","type":"uint256"}],"stateMutability":"view","type":"function"},{"inputs":[],"name":"getLastTimeStamp","outputs":[{"internalType":"uint256","name":"","type":"uint256"}],"stateMutability":"view","type":"function"},{"inputs":[{"internalType":"uint256","name":"index","type":"uint256"}],"name":"getPlayer","outputs":[{"internalType":"address payable","name":"","type":"address"}],"stateMutability":"view","type":"function"},{"inputs":[],"name":"getRaffleState","outputs":[{"internalType":"enum Raffle.RaffleState","name":"","type":"uint8"}],"stateMutability":"view","type":"function"},{"inputs":[],"name":"getRecentWinner","outputs":[{"internalType":"address","name":"","type":"address"}],"stateMutability":"view","type":"function"},{"inputs":[{"internalType":"bytes","name":"","type":"bytes"}],"name":"performUpkeep","outputs":[],"stateMutability":"nonpayable","type":"function"},{"inputs":[{"internalType":"uint256","name":"requestId","type":"uint256"},{"internalType":"uint256[]","name":"randomWords","type":"uint256[]"}],"name":"rawFulfillRandomWords","outputs":[],"stateMutability":"nonpayable","type":"function"}],"devdoc":{"kind":"dev","methods":{},"version":1},"evm":{"bytecode":{"linkReferences":{},"object":"61016060405234801561001157600080fd5b506040516118063803806118068339818101604052810190610033919061021c565b858073ffffffffffffffffffffffffffffffffffffffff1660808173ffffffffffffffffffffffffffffffffffffffff1681525050508460a081815250508573ffffffffffffffffffffffffffffffffffffffff1660c08173ffffffffffffffffffffffffffffffffffffffff16815250508360e081815250508263ffffffff166101008163ffffffff16815250508161012081815250506000600460006101000a81548160ff021916908360018111156100f1576100f06102a9565b5b0217905550806101408181525050426003819055505050505050506102d8565b600080fd5b600073ffffffffffffffffffffffffffffffffffffffff82169050919050565b600061014182610116565b9050919050565b61015181610136565b811461015c57600080fd5b50565b60008151905061016e81610148565b92915050565b6000819050919050565b61018781610174565b811461019257600080fd5b50565b6000815190506101a48161017e565b92915050565b600063ffffffff82169050919050565b6101c3816101aa565b81146101ce57600080fd5b50565b6000815190506101e0816101ba565b92915050565b6000819050919050565b6101f9816101e6565b811461020457600080fd5b50565b600081519050610216816101f0565b92915050565b60008060008060008060c0878903121561023957610238610111565b5b600061024789828a0161015f565b965050602061025889828a01610195565b955050604061026989828a01610195565b945050606061027a89828a016101d1565b935050608061028b89828a01610207565b92505060a061029c89828a01610195565b9150509295509295509295565b7f4e487b7100000000000000000000000000000000000000000000000000000000600052602160045260246000fd5b60805160a05160c05160e0516101005161012051610140516114bf610347600039600081816107310152610838015260006105c80152600061060c015260006105e90152600061058c01526000818161026a01526103d40152600081816102a701526102fb01526114bf6000f3fe60806040526004361061009c5760003560e01c8063473f1ddc11610064578063473f1ddc146101535780636e04ff0d1461017e5780638a84c58e146101bc57806391ad27b4146101d3578063c1c244e8146101fe578063e55ae4e8146102295761009c565b806309bc33a7146100a1578063115cbaf5146100cc5780631fe543e3146100f75780632cfcc539146101205780634585e33b1461012a575b600080fd5b3480156100ad57600080fd5b506100b6610266565b6040516100c39190610c0d565b60405180910390f35b3480156100d857600080fd5b506100e161028e565b6040516100ee9190610c9f565b60405180910390f35b34801561010357600080fd5b5061011e60048036038101906101199190610e53565b6102a5565b005b610128610365565b005b34801561013657600080fd5b50610151600480360381019061014c9190610f0a565b6104d4565b005b34801561015f57600080fd5b506101686106c5565b6040516101759190610f98565b60405180910390f35b34801561018a57600080fd5b506101a560048036038101906101a09190611068565b6106ef565b6040516101b392919061114b565b60405180910390f35b3480156101c857600080fd5b506101d161079b565b005b3480156101df57600080fd5b506101e8610834565b6040516101f59190610c0d565b60405180910390f35b34801561020a57600080fd5b5061021361085c565b6040516102209190610c0d565b60405180910390f35b34801561023557600080fd5b50610250600480360381019061024b919061117b565b610866565b60405161025d91906111c9565b60405180910390f35b60007f0000000000000000000000000000000000000000000000000000000000000000905090565b6000600460009054906101000a900460ff16905090565b7f000000000000000000000000000000000000000000000000000000000000000073ffffffffffffffffffffffffffffffffffffffff163373ffffffffffffffffffffffffffffffffffffffff161461035757337f00000000000000000000000000000000000000000000000000000000000000006040517f1cf993f400000000000000000000000000000000000000000000000000000000815260040161034e9291906111e4565b60405180910390fd5b61036182826108ad565b5050565b6000600181111561037957610378610c28565b5b600460009054906101000a900460ff16600181111561039b5761039a610c28565b5b146103d2576040517f286c89dd00000000000000000000000000000000000000000000000000000000815260040160405180910390fd5b7f000000000000000000000000000000000000000000000000000000000000000034101561042c576040517f3038c00a00000000000000000000000000000000000000000000000000000000815260040160405180910390fd5b6000339080600181540180825580915050600190039060005260206000200160009091909190916101000a81548173ffffffffffffffffffffffffffffffffffffffff021916908373ffffffffffffffffffffffffffffffffffffffff1602179055503373ffffffffffffffffffffffffffffffffffffffff167f742d070bf0f3edace132a9da8ba725e8cf99c478869cee7f673ed6085e2f8e6460405160405180910390a2565b60006104ee604051806020016040528060008152506106ef565b5090508061055d5747600080549050600460009054906101000a900460ff16600181111561051f5761051e610c28565b5b6040517f5711a4030000000000000000000000000000000000000000000000000000000081526004016105549392919061120d565b60405180910390fd5b6001600460006101000a81548160ff0219169083600181111561058357610582610c28565b5b021790555060007f000000000000000000000000000000000000000000000000000000000000000073ffffffffffffffffffffffffffffffffffffffff16635d3b1d307f00000000000000000000000000000000000000000000000000000000000000007f000000000000000000000000000000000000000000000000000000000000000060037f000000000000000000000000000000000000000000000000000000000000000060016040518663ffffffff1660e01b815260040161064d9594939291906112bc565b6020604051808303816000875af115801561066c573d6000803e3d6000fd5b505050506040513d601f19601f820116820180604052508101906106909190611324565b9050807fc3d0c9fbc1987665462eec0262eb7fc743a27d411fd3a0b9c20c1c64d99347d360405160405180910390a250505050565b6000600160009054906101000a900473ffffffffffffffffffffffffffffffffffffffff16905090565b60006060600080600181111561070857610707610c28565b5b600460009054906101000a900460ff16600181111561072a57610729610c28565b5b14905060007f00000000000000000000000000000000000000000000000000000000000000006003544261075e9190611380565b1190506000806000805490501190506000804711905083801561077e5750825b80156107875750815b80156107905750805b955050505050915091565b600060018111156107af576107ae610c28565b5b600460009054906101000a900460ff1660018111156107d1576107d0610c28565b5b03610806576001600460006101000a81548160ff021916908360018111156107fc576107fb610c28565b5b0217905550610832565b6000600460006101000a81548160ff0219169083600181111561082c5761082b610c28565b5b02179055505b565b60007f0000000000000000000000000000000000000000000000000000000000000000905090565b6000600354905090565b600080828154811061087b5761087a6113b4565b5b9060005260206000200160009054906101000a900473ffffffffffffffffffffffffffffffffffffffff169050919050565b6001600460006101000a81548160ff021916908360018111156108d3576108d2610c28565b5b021790555060008080549050826000815181106108f3576108f26113b4565b5b60200260200101516109059190611412565b9050600080828154811061091c5761091b6113b4565b5b9060005260206000200160009054906101000a900473ffffffffffffffffffffffffffffffffffffffff16905080600160006101000a81548173ffffffffffffffffffffffffffffffffffffffff021916908373ffffffffffffffffffffffffffffffffffffffff1602179055506000600460006101000a81548160ff021916908360018111156109b0576109af610c28565b5b0217905550600067ffffffffffffffff8111156109d0576109cf610d10565b5b6040519080825280602002602001820160405280156109fe5781602001602082028036833780820191505090505b5060009080519060200190610a14929190610b4d565b50426003819055506000600160009054906101000a900473ffffffffffffffffffffffffffffffffffffffff1673ffffffffffffffffffffffffffffffffffffffff1647604051610a6490611474565b60006040518083038185875af1925050503d8060008114610aa1576040519150601f19603f3d011682016040523d82523d6000602084013e610aa6565b606091505b5050905080610ae1576040517f5714df0a00000000000000000000000000000000000000000000000000000000815260040160405180910390fd5b600160009054906101000a900473ffffffffffffffffffffffffffffffffffffffff1673ffffffffffffffffffffffffffffffffffffffff167f794919b0f484b8e90b1b817ac7f880f846fbd8a9813dee2a378e820db094e3d160405160405180910390a25050505050565b828054828255906000526020600020908101928215610bc6579160200282015b82811115610bc55782518260006101000a81548173ffffffffffffffffffffffffffffffffffffffff021916908373ffffffffffffffffffffffffffffffffffffffff16021790555091602001919060010190610b6d565b5b509050610bd39190610bd7565b5090565b5b80821115610bf0576000816000905550600101610bd8565b5090565b6000819050919050565b610c0781610bf4565b82525050565b6000602082019050610c226000830184610bfe565b92915050565b7f4e487b7100000000000000000000000000000000000000000000000000000000600052602160045260246000fd5b60028110610c6857610c67610c28565b5b50565b6000819050610c7982610c57565b919050565b6000610c8982610c6b565b9050919050565b610c9981610c7e565b82525050565b6000602082019050610cb46000830184610c90565b92915050565b6000604051905090565b600080fd5b600080fd5b610cd781610bf4565b8114610ce257600080fd5b50565b600081359050610cf481610cce565b92915050565b600080fd5b6000601f19601f8301169050919050565b7f4e487b7100000000000000000000000000000000000000000000000000000000600052604160045260246000fd5b610d4882610cff565b810181811067ffffffffffffffff82111715610d6757610d66610d10565b5b80604052505050565b6000610d7a610cba565b9050610d868282610d3f565b919050565b600067ffffffffffffffff821115610da657610da5610d10565b5b602082029050602081019050919050565b600080fd5b6000610dcf610dca84610d8b565b610d70565b90508083825260208201905060208402830185811115610df257610df1610db7565b5b835b81811015610e1b5780610e078882610ce5565b845260208401935050602081019050610df4565b5050509392505050565b600082601f830112610e3a57610e39610cfa565b5b8135610e4a848260208601610dbc565b91505092915050565b60008060408385031215610e6a57610e69610cc4565b5b6000610e7885828601610ce5565b925050602083013567ffffffffffffffff811115610e9957610e98610cc9565b5b610ea585828601610e25565b9150509250929050565b600080fd5b60008083601f840112610eca57610ec9610cfa565b5b8235905067ffffffffffffffff811115610ee757610ee6610eaf565b5b602083019150836001820283011115610f0357610f02610db7565b5b9250929050565b60008060208385031215610f2157610f20610cc4565b5b600083013567ffffffffffffffff811115610f3f57610f3e610cc9565b5b610f4b85828601610eb4565b92509250509250929050565b600073ffffffffffffffffffffffffffffffffffffffff82169050919050565b6000610f8282610f57565b9050919050565b610f9281610f77565b82525050565b6000602082019050610fad6000830184610f89565b92915050565b600080fd5b600067ffffffffffffffff821115610fd357610fd2610d10565b5b610fdc82610cff565b9050602081019050919050565b82818337600083830152505050565b600061100b61100684610fb8565b610d70565b90508281526020810184848401111561102757611026610fb3565b5b611032848285610fe9565b509392505050565b600082601f83011261104f5761104e610cfa565b5b813561105f848260208601610ff8565b91505092915050565b60006020828403121561107e5761107d610cc4565b5b600082013567ffffffffffffffff81111561109c5761109b610cc9565b5b6110a88482850161103a565b91505092915050565b60008115159050919050565b6110c6816110b1565b82525050565b600081519050919050565b600082825260208201905092915050565b60005b838110156111065780820151818401526020810190506110eb565b60008484015250505050565b600061111d826110cc565b61112781856110d7565b93506111378185602086016110e8565b61114081610cff565b840191505092915050565b600060408201905061116060008301856110bd565b81810360208301526111728184611112565b90509392505050565b60006020828403121561119157611190610cc4565b5b600061119f84828501610ce5565b91505092915050565b60006111b382610f57565b9050919050565b6111c3816111a8565b82525050565b60006020820190506111de60008301846111ba565b92915050565b60006040820190506111f96000830185610f89565b6112066020830184610f89565b9392505050565b60006060820190506112226000830186610bfe565b61122f6020830185610bfe565b61123c6040830184610bfe565b949350505050565b6000819050919050565b61125781611244565b82525050565b600067ffffffffffffffff82169050919050565b61127a8161125d565b82525050565b600061ffff82169050919050565b61129781611280565b82525050565b600063ffffffff82169050919050565b6112b68161129d565b82525050565b600060a0820190506112d1600083018861124e565b6112de6020830187611271565b6112eb604083018661128e565b6112f860608301856112ad565b61130560808301846112ad565b9695505050505050565b60008151905061131e81610cce565b92915050565b60006020828403121561133a57611339610cc4565b5b60006113488482850161130f565b91505092915050565b7f4e487b7100000000000000000000000000000000000000000000000000000000600052601160045260246000fd5b600061138b82610bf4565b915061139683610bf4565b92508282039050818111156113ae576113ad611351565b5b92915050565b7f4e487b7100000000000000000000000000000000000000000000000000000000600052603260045260246000fd5b7f4e487b7100000000000000000000000000000000000000000000000000000000600052601260045260246000fd5b600061141d82610bf4565b915061142883610bf4565b925082611438576114376113e3565b5b828206905092915050565b600081905092915050565b50565b600061145e600083611443565b91506114698261144e565b600082019050919050565b600061147f82611451565b915081905091905056fea2646970667358221220ccee18e063c7611cccf3c26cd5e5905607c6f39a4a28620f567a15461978974f64736f6c634300081c0033","opcodes":"PUSH2 0x160 PUSH1 0x40 MSTORE CALLVALUE DUP1 ISZERO PUSH2 0x11 JUMPI PUSH1 0x0 DUP1 REVERT JUMPDEST POP PUSH1 0x40 MLOAD PUSH2 0x1806 CODESIZE SUB DUP1 PUSH2 0x1806 DUP4 CODECOPY DUP2 DUP2 ADD PUSH1 0x40 MSTORE DUP2 ADD SWAP1 PUSH2 0x33 SWAP2 SWAP1 PUSH2 0x21C JUMP JUMPDEST DUP6 DUP1 PUSH20 0xFFFFFFFFFFFFFFFFFFFFFFFFFFFFFFFFFFFFFFFF AND PUSH1 0x80 DUP2 PUSH20 0xFFFFFFFFFFFFFFFFFFFFFFFFFFFFFFFFFFFFFFFF AND DUP2 MSTORE POP POP POP DUP5 PUSH1 0xA0 DUP2 DUP2 MSTORE POP POP DUP6 PUSH20 0xFFFFFFFFFFFFFFFFFFFFFFFFFFFFFFFFFFFFFFFF AND PUSH1 0xC0 DUP2 PUSH20 0xFFFFFFFFFFFFFFFFFFFFFFFFFFFFFFFFFFFFFFFF AND DUP2 MSTORE POP POP DUP4 PUSH1 0xE0 DUP2 DUP2 MSTORE POP POP DUP3 PUSH4 0xFFFFFFFF AND PUSH2 0x100 DUP2 PUSH4 0xFFFFFFFF AND DUP2 MSTORE POP POP DUP2 PUSH2 0x120 DUP2 DUP2 MSTORE POP POP PUSH1 0x0 PUSH1 0x4 PUSH1 0x0 PUSH2 0x100 EXP DUP2 SLOAD DUP2 PUSH1 0xFF MUL NOT AND SWAP1 DUP4 PUSH1 0x1 DUP2 GT ISZERO PUSH2 0xF1 JUMPI PUSH2 0xF0 PUSH2 0x2A9 JUMP JUMPDEST JUMPDEST MUL OR SWAP1 SSTORE POP DUP1 PUSH2 0x140 DUP2 DUP2 MSTORE POP POP TIMESTAMP PUSH1 0x3 DUP2 SWAP1 SSTORE POP POP POP POP POP POP POP PUSH2 0x2D8 JUMP JUMPDEST PUSH1 0x0 DUP1 REVERT JUMPDEST PUSH1 0x0 PUSH20 0xFFFFFFFFFFFFFFFFFFFFFFFFFFFFFFFFFFFFFFFF DUP3 AND SWAP1 POP SWAP2 SWAP1 POP JUMP JUMPDEST PUSH1 0x0 PUSH2 0x141 DUP3 PUSH2 0x116 JUMP JUMPDEST SWAP1 POP SWAP2 SWAP1 POP JUMP JUMPDEST PUSH2 0x151 DUP2 PUSH2 0x136 JUMP JUMPDEST DUP2 EQ PUSH2 0x15C JUMPI PUSH1 0x0 DUP1 REVERT JUMPDEST POP JUMP JUMPDEST PUSH1 0x0 DUP2 MLOAD SWAP1 POP PUSH2 0x16E DUP2 PUSH2 0x148 JUMP JUMPDEST SWAP3 SWAP2 POP POP JUMP JUMPDEST PUSH1 0x0 DUP2 SWAP1 POP SWAP2 SWAP1 POP JUMP JUMPDEST PUSH2 0x187 DUP2 PUSH2 0x174 JUMP JUMPDEST DUP2 EQ PUSH2 0x192 JUMPI PUSH1 0x0 DUP1 REVERT JUMPDEST POP JUMP JUMPDEST PUSH1 0x0 DUP2 MLOAD SWAP1 POP PUSH2 0x1A4 DUP2 PUSH2 0x17E JUMP JUMPDEST SWAP3 SWAP2 POP POP JUMP JUMPDEST PUSH1 0x0 PUSH4 0xFFFFFFFF DUP3 AND SWAP1 POP SWAP2 SWAP1 POP JUMP JUMPDEST PUSH2 0x1C3 DUP2 PUSH2 0x1AA JUMP JUMPDEST DUP2 EQ PUSH2 0x1CE JUMPI PUSH1 0x0 DUP1 REVERT JUMPDEST POP JUMP JUMPDEST PUSH1 0x0 DUP2 MLOAD SWAP1 POP PUSH2 0x1E0 DUP2 PUSH2 0x1BA JUMP JUMPDEST SWAP3 SWAP2 POP POP JUMP JUMPDEST PUSH1 0x0 DUP2 SWAP1 POP SWAP2 SWAP1 POP JUMP JUMPDEST PUSH2 0x1F9 DUP2 PUSH2 0x1E6 JUMP JUMPDEST DUP2 EQ PUSH2 0x204 JUMPI PUSH1 0x0 DUP1 REVERT JUMPDEST POP JUMP JUMPDEST PUSH1 0x0 DUP2 MLOAD SWAP1 POP PUSH2 0x216 DUP2 PUSH2 0x1F0 JUMP JUMPDEST SWAP3 SWAP2 POP POP JUMP JUMPDEST PUSH1 0x0 DUP1 PUSH1 0x0 DUP1 PUSH1 0x0 DUP1 PUSH1 0xC0 DUP8 DUP10 SUB SLT ISZERO PUSH2 0x239 JUMPI PUSH2 0x238 PUSH2 0x111 JUMP JUMPDEST JUMPDEST PUSH1 0x0 PUSH2 0x247 DUP10 DUP3 DUP11 ADD PUSH2 0x15F JUMP JUMPDEST SWAP7 POP POP PUSH1 0x20 PUSH2 0x258 DUP10 DUP3 DUP11 ADD PUSH2 0x195 JUMP JUMPDEST SWAP6 POP POP PUSH1 0x40 PUSH2 0x269 DUP10 DUP3 DUP11 ADD PUSH2 0x195 JUMP JUMPDEST SWAP5 POP POP PUSH1 0x60 PUSH2 0x27A DUP10 DUP3 DUP11 ADD PUSH2 0x1D1 JUMP JUMPDEST SWAP4 POP POP PUSH1 0x80 PUSH2 0x28B DUP10 DUP3 DUP11 ADD PUSH2 0x207 JUMP JUMPDEST SWAP3 POP POP PUSH1 0xA0 PUSH2 0x29C DUP10 DUP3 DUP11 ADD PUSH2 0x195 JUMP JUMPDEST SWAP2 POP POP SWAP3 SWAP6 POP SWAP3 SWAP6 POP SWAP3 SWAP6 JUMP JUMPDEST PUSH32 0x4E487B7100000000000000000000000000000000000000000000000000000000 PUSH1 0x0 MSTORE PUSH1 0x21 PUSH1 0x4 MSTORE PUSH1 0x24 PUSH1 0x0 REVERT JUMPDEST PUSH1 0x80 MLOAD PUSH1 0xA0 MLOAD PUSH1 0xC0 MLOAD PUSH1 0xE0 MLOAD PUSH2 0x100 MLOAD PUSH2 0x120 MLOAD PUSH2 0x140 MLOAD PUSH2 0x14BF PUSH2 0x347 PUSH1 0x0 CODECOPY PUSH1 0x0 DUP2 DUP2 PUSH2 0x731 ADD MSTORE PUSH2 0x838 ADD MSTORE PUSH1 0x0 PUSH2 0x5C8 ADD MSTORE PUSH1 0x0 PUSH2 0x60C ADD MSTORE PUSH1 0x0 PUSH2 0x5E9 ADD MSTORE PUSH1 0x0 PUSH2 0x58C ADD MSTORE PUSH1 0x0 DUP2 DUP2 PUSH2 0x26A ADD MSTORE PUSH2 0x3D4 ADD MSTORE PUSH1 0x0 DUP2 DUP2 PUSH2 0x2A7 ADD MSTORE PUSH2 0x2FB ADD MSTORE PUSH2 0x14BF PUSH1 0x0 RETURN INVALID PUSH1 0x80 PUSH1 0x40 MSTORE PUSH1 0x4 CALLDATASIZE LT PUSH2 0x9C JUMPI PUSH1 0x0 CALLDATALOAD PUSH1 0xE0 SHR DUP1 PUSH4 0x473F1DDC GT PUSH2 0x64 JUMPI DUP1 PUSH4 0x473F1DDC EQ PUSH2 0x153 JUMPI DUP1 PUSH4 0x6E04FF0D EQ PUSH2 0x17E JUMPI DUP1 PUSH4 0x8A84C58E EQ PUSH2 0x1BC JUMPI DUP1 PUSH4 0x91AD27B4 EQ PUSH2 0x1D3 JUMPI DUP1 PUSH4 0xC1C244E8 EQ PUSH2 0x1FE JUMPI DUP1 PUSH4 0xE55AE4E8 EQ PUSH2 0x229 JUMPI PUSH2 0x9C JUMP JUMPDEST DUP1 PUSH4 0x9BC33A7 EQ PUSH2 0xA1 JUMPI DUP1 PUSH4 0x115CBAF5 EQ PUSH2 0xCC JUMPI DUP1 PUSH4 0x1FE543E3 EQ PUSH2 0xF7 JUMPI DUP1 PUSH4 0x2CFCC539 EQ PUSH2 0x120 JUMPI DUP1 PUSH4 0x4585E33B EQ PUSH2 0x12A JUMPI JUMPDEST PUSH1 0x0 DUP1 REVERT JUMPDEST CALLVALUE DUP1 ISZERO PUSH2 0xAD JUMPI PUSH1 0x0 DUP1 REVERT JUMPDEST POP PUSH2 0xB6 PUSH2 0x266 JUMP JUMPDEST PUSH1 0x40 MLOAD PUSH2 0xC3 SWAP2 SWAP1 PUSH2 0xC0D JUMP JUMPDEST PUSH1 0x40 MLOAD DUP1 SWAP2 SUB SWAP1 RETURN JUMPDEST CALLVALUE DUP1 ISZERO PUSH2 0xD8 JUMPI PUSH1 0x0 DUP1 REVERT JUMPDEST POP PUSH2 0xE1 PUSH2 0x28E JUMP JUMPDEST PUSH1 0x40 MLOAD PUSH2 0xEE SWAP2 SWAP1 PUSH2 0xC9F JUMP JUMPDEST PUSH1 0x40 MLOAD DUP1 SWAP2 SUB SWAP1 RETURN JUMPDEST CALLVALUE DUP1 ISZERO PUSH2 0x103 JUMPI PUSH1 0x0 DUP1 REVERT JUMPDEST POP PUSH2 0x11E PUSH1 0x4 DUP1 CALLDATASIZE SUB DUP2 ADD SWAP1 PUSH2 0x119 SWAP2 SWAP1 PUSH2 0xE53 JUMP JUMPDEST PUSH2 0x2A5 JUMP JUMPDEST STOP JUMPDEST PUSH2 0x128 PUSH2 0x365 JUMP JUMPDEST STOP JUMPDEST CALLVALUE DUP1 ISZERO PUSH2 0x136 JUMPI PUSH1 0x0 DUP1 REVERT JUMPDEST POP PUSH2 0x151 PUSH1 0x4 DUP1 CALLDATASIZE SUB DUP2 ADD SWAP1 PUSH2 0x14C SWAP2 SWAP1 PUSH2 0xF0A JUMP JUMPDEST PUSH2 0x4D4 JUMP JUMPDEST STOP JUMPDEST CALLVALUE DUP1 ISZERO PUSH2 0x15F JUMPI PUSH1 0x0 DUP1 REVERT JUMPDEST POP PUSH2 0x168 PUSH2 0x6C5 JUMP JUMPDEST PUSH1 0x40 MLOAD PUSH2 0x175 SWAP2 SWAP1 PUSH2 0xF98 JUMP JUMPDEST PUSH1 0x40 MLOAD DUP1 SWAP2 SUB SWAP1 RETURN JUMPDEST CALLVALUE DUP1 ISZERO PUSH2 0x18A JUMPI PUSH1 0x0 DUP1 REVERT JUMPDEST POP PUSH2 0x1A5 PUSH1 0x4 DUP1 CALLDATASIZE SUB DUP2 ADD SWAP1 PUSH2 0x1A0 SWAP2 SWAP1 PUSH2 0x1068 JUMP JUMPDEST PUSH2 0x6EF JUMP JUMPDEST PUSH1 0x40 MLOAD PUSH2 0x1B3 SWAP3 SWAP2 SWAP1 PUSH2 0x114B JUMP JUMPDEST PUSH1 0x40 MLOAD DUP1 SWAP2 SUB SWAP1 RETURN JUMPDEST CALLVALUE DUP1 ISZERO PUSH2 0x1C8 JUMPI PUSH1 0x0 DUP1 REVERT JUMPDEST POP PUSH2 0x1D1 PUSH2 0x79B JUMP JUMPDEST STOP JUMPDEST CALLVALUE DUP1 ISZERO PUSH2 0x1DF JUMPI PUSH1 0x0 DUP1 REVERT JUMPDEST POP PUSH2 0x1E8 PUSH2 0x834 JUMP JUMPDEST PUSH1 0x40 MLOAD PUSH2 0x1F5 SWAP2 SWAP1 PUSH2 0xC0D JUMP JUMPDEST PUSH1 0x40 MLOAD DUP1 SWAP2 SUB SWAP1 RETURN JUMPDEST CALLVALUE DUP1 ISZERO PUSH2 0x20A JUMPI PUSH1 0x0 DUP1 REVERT JUMPDEST POP PUSH2 0x213 PUSH2 0x85C JUMP JUMPDEST PUSH1 0x40 MLOAD PUSH2 0x220 SWAP2 SWAP1 PUSH2 0xC0D JUMP JUMPDEST PUSH1 0x40 MLOAD DUP1 SWAP2 SUB SWAP1 RETURN JUMPDEST CALLVALUE DUP1 ISZERO PUSH2 0x235 JUMPI PUSH1 0x0 DUP1 REVERT JUMPDEST POP PUSH2 0x250 PUSH1 0x4 DUP1 CALLDATASIZE SUB DUP2 ADD SWAP1 PUSH2 0x24B SWAP2 SWAP1 PUSH2 0x117B JUMP JUMPDEST PUSH2 0x866 JUMP JUMPDEST PUSH1 0x40 MLOAD PUSH2 0x25D SWAP2 SWAP1 PUSH2 0x11C9 JUMP JUMPDEST PUSH1 0x40 MLOAD DUP1 SWAP2 SUB SWAP1 RETURN JUMPDEST PUSH1 0x0 PUSH32 0x0 SWAP1 POP SWAP1 JUMP JUMPDEST PUSH1 0x0 PUSH1 0x4 PUSH1 0x0 SWAP1 SLOAD SWAP1 PUSH2 0x100 EXP SWAP1 DIV PUSH1 0xFF AND SWAP1 POP SWAP1 JUMP JUMPDEST PUSH32 0x0 PUSH20 0xFFFFFFFFFFFFFFFFFFFFFFFFFFFFFFFFFFFFFFFF AND CALLER PUSH20 0xFFFFFFFFFFFFFFFFFFFFFFFFFFFFFFFFFFFFFFFF AND EQ PUSH2 0x357 JUMPI CALLER PUSH32 0x0 PUSH1 0x40 MLOAD PUSH32 0x1CF993F400000000000000000000000000000000000000000000000000000000 DUP2 MSTORE PUSH1 0x4 ADD PUSH2 0x34E SWAP3 SWAP2 SWAP1 PUSH2 0x11E4 JUMP JUMPDEST PUSH1 0x40 MLOAD DUP1 SWAP2 SUB SWAP1 REVERT JUMPDEST PUSH2 0x361 DUP3 DUP3 PUSH2 0x8AD JUMP JUMPDEST POP POP JUMP JUMPDEST PUSH1 0x0 PUSH1 0x1 DUP2 GT ISZERO PUSH2 0x379 JUMPI PUSH2 0x378 PUSH2 0xC28 JUMP JUMPDEST JUMPDEST PUSH1 0x4 PUSH1 0x0 SWAP1 SLOAD SWAP1 PUSH2 0x100 EXP SWAP1 DIV PUSH1 0xFF AND PUSH1 0x1 DUP2 GT ISZERO PUSH2 0x39B JUMPI PUSH2 0x39A PUSH2 0xC28 JUMP JUMPDEST JUMPDEST EQ PUSH2 0x3D2 JUMPI PUSH1 0x40 MLOAD PUSH32 0x286C89DD00000000000000000000000000000000000000000000000000000000 DUP2 MSTORE PUSH1 0x4 ADD PUSH1 0x40 MLOAD DUP1 SWAP2 SUB SWAP1 REVERT JUMPDEST PUSH32 0x0 CALLVALUE LT ISZERO PUSH2 0x42C JUMPI PUSH1 0x40 MLOAD PUSH32 0x3038C00A00000000000000000000000000000000000000000000000000000000 DUP2 MSTORE PUSH1 0x4 ADD PUSH1 0x40 MLOAD DUP1 SWAP2 SUB SWAP1 REVERT JUMPDEST PUSH1 0x0 CALLER SWAP1 DUP1 PUSH1 0x1 DUP2 SLOAD ADD DUP1 DUP3 SSTORE DUP1 SWAP2 POP POP PUSH1 0x1 SWAP1 SUB SWAP1 PUSH1 0x0 MSTORE PUSH1 0x20 PUSH1 0x0 KECCAK256 ADD PUSH1 0x0 SWAP1 SWAP2 SWAP1 SWAP2 SWAP1 SWAP2 PUSH2 0x100 EXP DUP2 SLOAD DUP2 PUSH20 0xFFFFFFFFFFFFFFFFFFFFFFFFFFFFFFFFFFFFFFFF MUL NOT AND SWAP1 DUP4 PUSH20 0xFFFFFFFFFFFFFFFFFFFFFFFFFFFFFFFFFFFFFFFF AND MUL OR SWAP1 SSTORE POP CALLER PUSH20 0xFFFFFFFFFFFFFFFFFFFFFFFFFFFFFFFFFFFFFFFF AND PUSH32 0x742D070BF0F3EDACE132A9DA8BA725E8CF99C478869CEE7F673ED6085E2F8E64 PUSH1 0x40 MLOAD PUSH1 0x40 MLOAD DUP1 SWAP2 SUB SWAP1 LOG2 JUMP JUMPDEST PUSH1 0x0 PUSH2 0x4EE PUSH1 0x40 MLOAD DUP1 PUSH1 0x20 ADD PUSH1 0x40 MSTORE DUP1 PUSH1 0x0 DUP2 MSTORE POP PUSH2 0x6EF JUMP JUMPDEST POP SWAP1 POP DUP1 PUSH2 0x55D JUMPI SELFBALANCE PUSH1 0x0 DUP1 SLOAD SWAP1 POP PUSH1 0x4 PUSH1 0x0 SWAP1 SLOAD SWAP1 PUSH2 0x100 EXP SWAP1 DIV PUSH1 0xFF AND PUSH1 0x1 DUP2 GT ISZERO PUSH2 0x51F JUMPI PUSH2 0x51E PUSH2 0xC28 JUMP JUMPDEST JUMPDEST PUSH1 0x40 MLOAD PUSH32 0x5711A40300000000000000000000000000000000000000000000000000000000 DUP2 MSTORE PUSH1 0x4 ADD PUSH2 0x554 SWAP4 SWAP3 SWAP2 SWAP1 PUSH2 0x120D JUMP JUMPDEST PUSH1 0x40 MLOAD DUP1 SWAP2 SUB SWAP1 REVERT JUMPDEST PUSH1 0x1 PUSH1 0x4 PUSH1 0x0 PUSH2 0x100 EXP DUP2 SLOAD DUP2 PUSH1 0xFF MUL NOT AND SWAP1 DUP4 PUSH1 0x1 DUP2 GT ISZERO PUSH2 0x583 JUMPI PUSH2 0x582 PUSH2 0xC28 JUMP JUMPDEST JUMPDEST MUL OR SWAP1 SSTORE POP PUSH1 0x0 PUSH32 0x0 PUSH20 0xFFFFFFFFFFFFFFFFFFFFFFFFFFFFFFFFFFFFFFFF AND PUSH4 0x5D3B1D30 PUSH32 0x0 PUSH32 0x0 PUSH1 0x3 PUSH32 0x0 PUSH1 0x1 PUSH1 0x40 MLOAD DUP7 PUSH4 0xFFFFFFFF AND PUSH1 0xE0 SHL DUP2 MSTORE PUSH1 0x4 ADD PUSH2 0x64D SWAP6 SWAP5 SWAP4 SWAP3 SWAP2 SWAP1 PUSH2 0x12BC JUMP JUMPDEST PUSH1 0x20 PUSH1 0x40 MLOAD DUP1 DUP4 SUB DUP2 PUSH1 0x0 DUP8 GAS CALL ISZERO DUP1 ISZERO PUSH2 0x66C JUMPI RETURNDATASIZE PUSH1 0x0 DUP1 RETURNDATACOPY RETURNDATASIZE PUSH1 0x0 REVERT JUMPDEST POP POP POP POP PUSH1 0x40 MLOAD RETURNDATASIZE PUSH1 0x1F NOT PUSH1 0x1F DUP3 ADD AND DUP3 ADD DUP1 PUSH1 0x40 MSTORE POP DUP2 ADD SWAP1 PUSH2 0x690 SWAP2 SWAP1 PUSH2 0x1324 JUMP JUMPDEST SWAP1 POP DUP1 PUSH32 0xC3D0C9FBC1987665462EEC0262EB7FC743A27D411FD3A0B9C20C1C64D99347D3 PUSH1 0x40 MLOAD PUSH1 0x40 MLOAD DUP1 SWAP2 SUB SWAP1 LOG2 POP POP POP POP JUMP JUMPDEST PUSH1 0x0 PUSH1 0x1 PUSH1 0x0 SWAP1 SLOAD SWAP1 PUSH2 0x100 EXP SWAP1 DIV PUSH20 0xFFFFFFFFFFFFFFFFFFFFFFFFFFFFFFFFFFFFFFFF AND SWAP1 POP SWAP1 JUMP JUMPDEST PUSH1 0x0 PUSH1 0x60 PUSH1 0x0 DUP1 PUSH1 0x1 DUP2 GT ISZERO PUSH2 0x708 JUMPI PUSH2 0x707 PUSH2 0xC28 JUMP JUMPDEST JUMPDEST PUSH1 0x4 PUSH1 0x0 SWAP1 SLOAD SWAP1 PUSH2 0x100 EXP SWAP1 DIV PUSH1 0xFF AND PUSH1 0x1 DUP2 GT ISZERO PUSH2 0x72A JUMPI PUSH2 0x729 PUSH2 0xC28 JUMP JUMPDEST JUMPDEST EQ SWAP1 POP PUSH1 0x0 PUSH32 0x0 PUSH1 0x3 SLOAD TIMESTAMP PUSH2 0x75E SWAP2 SWAP1 PUSH2 0x1380 JUMP JUMPDEST GT SWAP1 POP PUSH1 0x0 DUP1 PUSH1 0x0 DUP1 SLOAD SWAP1 POP GT SWAP1 POP PUSH1 0x0 DUP1 SELFBALANCE GT SWAP1 POP DUP4 DUP1 ISZERO PUSH2 0x77E JUMPI POP DUP3 JUMPDEST DUP1 ISZERO PUSH2 0x787 JUMPI POP DUP2 JUMPDEST DUP1 ISZERO PUSH2 0x790 JUMPI POP DUP1 JUMPDEST SWAP6 POP POP POP POP POP SWAP2 POP SWAP2 JUMP JUMPDEST PUSH1 0x0 PUSH1 0x1 DUP2 GT ISZERO PUSH2 0x7AF JUMPI PUSH2 0x7AE PUSH2 0xC28 JUMP JUMPDEST JUMPDEST PUSH1 0x4 PUSH1 0x0 SWAP1 SLOAD SWAP1 PUSH2 0x100 EXP SWAP1 DIV PUSH1 0xFF AND PUSH1 0x1 DUP2 GT ISZERO PUSH2 0x7D1 JUMPI PUSH2 0x7D0 PUSH2 0xC28 JUMP JUMPDEST JUMPDEST SUB PUSH2 0x806 JUMPI PUSH1 0x1 PUSH1 0x4 PUSH1 0x0 PUSH2 0x100 EXP DUP2 SLOAD DUP2 PUSH1 0xFF MUL NOT AND SWAP1 DUP4 PUSH1 0x1 DUP2 GT ISZERO PUSH2 0x7FC JUMPI PUSH2 0x7FB PUSH2 0xC28 JUMP JUMPDEST JUMPDEST MUL OR SWAP1 SSTORE POP PUSH2 0x832 JUMP JUMPDEST PUSH1 0x0 PUSH1 0x4 PUSH1 0x0 PUSH2 0x100 EXP DUP2 SLOAD DUP2 PUSH1 0xFF MUL NOT AND SWAP1 DUP4 PUSH1 0x1 DUP2 GT ISZERO PUSH2 0x82C JUMPI PUSH2 0x82B PUSH2 0xC28 JUMP JUMPDEST JUMPDEST MUL OR SWAP1 SSTORE POP JUMPDEST JUMP JUMPDEST PUSH1 0x0 PUSH32 0x0 SWAP1 POP SWAP1 JUMP JUMPDEST PUSH1 0x0 PUSH1 0x3 SLOAD SWAP1 POP SWAP1 JUMP JUMPDEST PUSH1 0x0 DUP1 DUP3 DUP2 SLOAD DUP2 LT PUSH2 0x87B JUMPI PUSH2 0x87A PUSH2 0x13B4 JUMP JUMPDEST JUMPDEST SWAP1 PUSH1 0x0 MSTORE PUSH1 0x20 PUSH1 0x0 KECCAK256 ADD PUSH1 0x0 SWAP1 SLOAD SWAP1 PUSH2 0x100 EXP SWAP1 DIV PUSH20 0xFFFFFFFFFFFFFFFFFFFFFFFFFFFFFFFFFFFFFFFF AND SWAP1 POP SWAP2 SWAP1 POP JUMP JUMPDEST PUSH1 0x1 PUSH1 0x4 PUSH1 0x0 PUSH2 0x100 EXP DUP2 SLOAD DUP2 PUSH1 0xFF MUL NOT AND SWAP1 DUP4 PUSH1 0x1 DUP2 GT ISZERO PUSH2 0x8D3 JUMPI PUSH2 0x8D2 PUSH2 0xC28 JUMP JUMPDEST JUMPDEST MUL OR SWAP1 SSTORE POP PUSH1 0x0 DUP1 DUP1 SLOAD SWAP1 POP DUP3 PUSH1 0x0 DUP2 MLOAD DUP2 LT PUSH2 0x8F3 JUMPI PUSH2 0x8F2 PUSH2 0x13B4 JUMP JUMPDEST JUMPDEST PUSH1 0x20 MUL PUSH1 0x20 ADD ADD MLOAD PUSH2 0x905 SWAP2 SWAP1 PUSH2 0x1412 JUMP JUMPDEST SWAP1 POP PUSH1 0x0 DUP1 DUP3 DUP2 SLOAD DUP2 LT PUSH2 0x91C JUMPI PUSH2 0x91B PUSH2 0x13B4 JUMP JUMPDEST JUMPDEST SWAP1 PUSH1 0x0 MSTORE PUSH1 0x20 PUSH1 0x0 KECCAK256 ADD PUSH1 0x0 SWAP1 SLOAD SWAP1 PUSH2 0x100 EXP SWAP1 DIV PUSH20 0xFFFFFFFFFFFFFFFFFFFFFFFFFFFFFFFFFFFFFFFF AND SWAP1 POP DUP1 PUSH1 0x1 PUSH1 0x0 PUSH2 0x100 EXP DUP2 SLOAD DUP2 PUSH20 0xFFFFFFFFFFFFFFFFFFFFFFFFFFFFFFFFFFFFFFFF MUL NOT AND SWAP1 DUP4 PUSH20 0xFFFFFFFFFFFFFFFFFFFFFFFFFFFFFFFFFFFFFFFF AND MUL OR SWAP1 SSTORE POP PUSH1 0x0 PUSH1 0x4 PUSH1 0x0 PUSH2 0x100 EXP DUP2 SLOAD DUP2 PUSH1 0xFF MUL NOT AND SWAP1 DUP4 PUSH1 0x1 DUP2 GT ISZERO PUSH2 0x9B0 JUMPI PUSH2 0x9AF PUSH2 0xC28 JUMP JUMPDEST JUMPDEST MUL OR SWAP1 SSTORE POP PUSH1 0x0 PUSH8 0xFFFFFFFFFFFFFFFF DUP2 GT ISZERO PUSH2 0x9D0 JUMPI PUSH2 0x9CF PUSH2 0xD10 JUMP JUMPDEST JUMPDEST PUSH1 0x40 MLOAD SWAP1 DUP1 DUP3 MSTORE DUP1 PUSH1 0x20 MUL PUSH1 0x20 ADD DUP3 ADD PUSH1 0x40 MSTORE DUP1 ISZERO PUSH2 0x9FE JUMPI DUP2 PUSH1 0x20 ADD PUSH1 0x20 DUP3 MUL DUP1 CALLDATASIZE DUP4 CALLDATACOPY DUP1 DUP3 ADD SWAP2 POP POP SWAP1 POP JUMPDEST POP PUSH1 0x0 SWAP1 DUP1 MLOAD SWAP1 PUSH1 0x20 ADD SWAP1 PUSH2 0xA14 SWAP3 SWAP2 SWAP1 PUSH2 0xB4D JUMP JUMPDEST POP TIMESTAMP PUSH1 0x3 DUP2 SWAP1 SSTORE POP PUSH1 0x0 PUSH1 0x1 PUSH1 0x0 SWAP1 SLOAD SWAP1 PUSH2 0x100 EXP SWAP1 DIV PUSH20 0xFFFFFFFFFFFFFFFFFFFFFFFFFFFFFFFFFFFFFFFF AND PUSH20 0xFFFFFFFFFFFFFFFFFFFFFFFFFFFFFFFFFFFFFFFF AND SELFBALANCE PUSH1 0x40 MLOAD PUSH2 0xA64 SWAP1 PUSH2 0x1474 JUMP JUMPDEST PUSH1 0x0 PUSH1 0x40 MLOAD DUP1 DUP4 SUB DUP2 DUP6 DUP8 GAS CALL SWAP3 POP POP POP RETURNDATASIZE DUP1 PUSH1 0x0 DUP2 EQ PUSH2 0xAA1 JUMPI PUSH1 0x40 MLOAD SWAP2 POP PUSH1 0x1F NOT PUSH1 0x3F RETURNDATASIZE ADD AND DUP3 ADD PUSH1 0x40 MSTORE RETURNDATASIZE DUP3 MSTORE RETURNDATASIZE PUSH1 0x0 PUSH1 0x20 DUP5 ADD RETURNDATACOPY PUSH2 0xAA6 JUMP JUMPDEST PUSH1 0x60 SWAP2 POP JUMPDEST POP POP SWAP1 POP DUP1 PUSH2 0xAE1 JUMPI PUSH1 0x40 MLOAD PUSH32 0x5714DF0A00000000000000000000000000000000000000000000000000000000 DUP2 MSTORE PUSH1 0x4 ADD PUSH1 0x40 MLOAD DUP1 SWAP2 SUB SWAP1 REVERT JUMPDEST PUSH1 0x1 PUSH1 0x0 SWAP1 SLOAD SWAP1 PUSH2 0x100 EXP SWAP1 DIV PUSH20 0xFFFFFFFFFFFFFFFFFFFFFFFFFFFFFFFFFFFFFFFF AND PUSH20 0xFFFFFFFFFFFFFFFFFFFFFFFFFFFFFFFFFFFFFFFF AND PUSH32 0x794919B0F484B8E90B1B817AC7F880F846FBD8A9813DEE2A378E820DB094E3D1 PUSH1 0x40 MLOAD PUSH1 0x40 MLOAD DUP1 SWAP2 SUB SWAP1 LOG2 POP POP POP POP POP JUMP JUMPDEST DUP3 DUP1 SLOAD DUP3 DUP3 SSTORE SWAP1 PUSH1 0x0 MSTORE PUSH1 0x20 PUSH1 0x0 KECCAK256 SWAP1 DUP2 ADD SWAP3 DUP3 ISZERO PUSH2 0xBC6 JUMPI SWAP2 PUSH1 0x20 MUL DUP3 ADD JUMPDEST DUP3 DUP2 GT ISZERO PUSH2 0xBC5 JUMPI DUP3 MLOAD DUP3 PUSH1 0x0 PUSH2 0x100 EXP DUP2 SLOAD DUP2 PUSH20 0xFFFFFFFFFFFFFFFFFFFFFFFFFFFFFFFFFFFFFFFF MUL NOT AND SWAP1 DUP4 PUSH20 0xFFFFFFFFFFFFFFFFFFFFFFFFFFFFFFFFFFFFFFFF AND MUL OR SWAP1 SSTORE POP SWAP2 PUSH1 0x20 ADD SWAP2 SWAP1 PUSH1 0x1 ADD SWAP1 PUSH2 0xB6D JUMP JUMPDEST JUMPDEST POP SWAP1 POP PUSH2 0xBD3 SWAP2 SWAP1 PUSH2 0xBD7 JUMP JUMPDEST POP SWAP1 JUMP JUMPDEST JUMPDEST DUP1 DUP3 GT ISZERO PUSH2 0xBF0 JUMPI PUSH1 0x0 DUP2 PUSH1 0x0 SWAP1 SSTORE POP PUSH1 0x1 ADD PUSH2 0xBD8 JUMP JUMPDEST POP SWAP1 JUMP JUMPDEST PUSH1 0x0 DUP2 SWAP1 POP SWAP2 SWAP1 POP JUMP JUMPDEST PUSH2 0xC07 DUP2 PUSH2 0xBF4 JUMP JUMPDEST DUP3 MSTORE POP POP JUMP JUMPDEST PUSH1 0x0 PUSH1 0x20 DUP3 ADD SWAP1 POP PUSH2 0xC22 PUSH1 0x0 DUP4 ADD DUP5 PUSH2 0xBFE JUMP JUMPDEST SWAP3 SWAP2 POP POP JUMP JUMPDEST PUSH32 0x4E487B7100000000000000000000000000000000000000000000000000000000 PUSH1 0x0 MSTORE PUSH1 0x21 PUSH1 0x4 MSTORE PUSH1 0x24 PUSH1 0x0 REVERT JUMPDEST PUSH1 0x2 DUP2 LT PUSH2 0xC68 JUMPI PUSH2 0xC67 PUSH2 0xC28 JUMP JUMPDEST JUMPDEST POP JUMP JUMPDEST PUSH1 0x0 DUP2 SWAP1 POP PUSH2 0xC79 DUP3 PUSH2 0xC57 JUMP JUMPDEST SWAP2 SWAP1 POP JUMP JUMPDEST PUSH1 0x0 PUSH2 0xC89 DUP3 PUSH2 0xC6B JUMP JUMPDEST SWAP1 POP SWAP2 SWAP1 POP JUMP JUMPDEST PUSH2 0xC99 DUP2 PUSH2 0xC7E JUMP JUMPDEST DUP3 MSTORE POP POP JUMP JUMPDEST PUSH1 0x0 PUSH1 0x20 DUP3 ADD SWAP1 POP PUSH2 0xCB4 PUSH1 0x0 DUP4 ADD DUP5 PUSH2 0xC90 JUMP JUMPDEST SWAP3 SWAP2 POP POP JUMP JUMPDEST PUSH1 0x0 PUSH1 0x40 MLOAD SWAP1 POP SWAP1 JUMP JUMPDEST PUSH1 0x0 DUP1 REVERT JUMPDEST PUSH1 0x0 DUP1 REVERT JUMPDEST PUSH2 0xCD7 DUP2 PUSH2 0xBF4 JUMP JUMPDEST DUP2 EQ PUSH2 0xCE2 JUMPI PUSH1 0x0 DUP1 REVERT JUMPDEST POP JUMP JUMPDEST PUSH1 0x0 DUP2 CALLDATALOAD SWAP1 POP PUSH2 0xCF4 DUP2 PUSH2 0xCCE JUMP JUMPDEST SWAP3 SWAP2 POP POP JUMP JUMPDEST PUSH1 0x0 DUP1 REVERT JUMPDEST PUSH1 0x0 PUSH1 0x1F NOT PUSH1 0x1F DUP4 ADD AND SWAP1 POP SWAP2 SWAP1 POP JUMP JUMPDEST PUSH32 0x4E487B7100000000000000000000000000000000000000000000000000000000 PUSH1 0x0 MSTORE PUSH1 0x41 PUSH1 0x4 MSTORE PUSH1 0x24 PUSH1 0x0 REVERT JUMPDEST PUSH2 0xD48 DUP3 PUSH2 0xCFF JUMP JUMPDEST DUP2 ADD DUP2 DUP2 LT PUSH8 0xFFFFFFFFFFFFFFFF DUP3 GT OR ISZERO PUSH2 0xD67 JUMPI PUSH2 0xD66 PUSH2 0xD10 JUMP JUMPDEST JUMPDEST DUP1 PUSH1 0x40 MSTORE POP POP POP JUMP JUMPDEST PUSH1 0x0 PUSH2 0xD7A PUSH2 0xCBA JUMP JUMPDEST SWAP1 POP PUSH2 0xD86 DUP3 DUP3 PUSH2 0xD3F JUMP JUMPDEST SWAP2 SWAP1 POP JUMP JUMPDEST PUSH1 0x0 PUSH8 0xFFFFFFFFFFFFFFFF DUP3 GT ISZERO PUSH2 0xDA6 JUMPI PUSH2 0xDA5 PUSH2 0xD10 JUMP JUMPDEST JUMPDEST PUSH1 0x20 DUP3 MUL SWAP1 POP PUSH1 0x20 DUP2 ADD SWAP1 POP SWAP2 SWAP1 POP JUMP JUMPDEST PUSH1 0x0 DUP1 REVERT JUMPDEST PUSH1 0x0 PUSH2 0xDCF PUSH2 0xDCA DUP5 PUSH2 0xD8B JUMP JUMPDEST PUSH2 0xD70 JUMP JUMPDEST SWAP1 POP DUP1 DUP4 DUP3 MSTORE PUSH1 0x20 DUP3 ADD SWAP1 POP PUSH1 0x20 DUP5 MUL DUP4 ADD DUP6 DUP2 GT ISZERO PUSH2 0xDF2 JUMPI PUSH2 0xDF1 PUSH2 0xDB7 JUMP JUMPDEST JUMPDEST DUP4 JUMPDEST DUP2 DUP2 LT ISZERO PUSH2 0xE1B JUMPI DUP1 PUSH2 0xE07 DUP9 DUP3 PUSH2 0xCE5 JUMP JUMPDEST DUP5 MSTORE PUSH1 0x20 DUP5 ADD SWAP4 POP POP PUSH1 0x20 DUP2 ADD SWAP1 POP PUSH2 0xDF4 JUMP JUMPDEST POP POP POP SWAP4 SWAP3 POP POP POP JUMP JUMPDEST PUSH1 0x0 DUP3 PUSH1 0x1F DUP4 ADD SLT PUSH2 0xE3A JUMPI PUSH2 0xE39 PUSH2 0xCFA JUMP JUMPDEST JUMPDEST DUP2 CALLDATALOAD PUSH2 0xE4A DUP5 DUP3 PUSH1 0x20 DUP7 ADD PUSH2 0xDBC JUMP JUMPDEST SWAP2 POP POP SWAP3 SWAP2 POP POP JUMP JUMPDEST PUSH1 0x0 DUP1 PUSH1 0x40 DUP4 DUP6 SUB SLT ISZERO PUSH2 0xE6A JUMPI PUSH2 0xE69 PUSH2 0xCC4 JUMP JUMPDEST JUMPDEST PUSH1 0x0 PUSH2 0xE78 DUP6 DUP3 DUP7 ADD PUSH2 0xCE5 JUMP JUMPDEST SWAP3 POP POP PUSH1 0x20 DUP4 ADD CALLDATALOAD PUSH8 0xFFFFFFFFFFFFFFFF DUP2 GT ISZERO PUSH2 0xE99 JUMPI PUSH2 0xE98 PUSH2 0xCC9 JUMP JUMPDEST JUMPDEST PUSH2 0xEA5 DUP6 DUP3 DUP7 ADD PUSH2 0xE25 JUMP JUMPDEST SWAP2 POP POP SWAP3 POP SWAP3 SWAP1 POP JUMP JUMPDEST PUSH1 0x0 DUP1 REVERT JUMPDEST PUSH1 0x0 DUP1 DUP4 PUSH1 0x1F DUP5 ADD SLT PUSH2 0xECA JUMPI PUSH2 0xEC9 PUSH2 0xCFA JUMP JUMPDEST JUMPDEST DUP3 CALLDATALOAD SWAP1 POP PUSH8 0xFFFFFFFFFFFFFFFF DUP2 GT ISZERO PUSH2 0xEE7 JUMPI PUSH2 0xEE6 PUSH2 0xEAF JUMP JUMPDEST JUMPDEST PUSH1 0x20 DUP4 ADD SWAP2 POP DUP4 PUSH1 0x1 DUP3 MUL DUP4 ADD GT ISZERO PUSH2 0xF03 JUMPI PUSH2 0xF02 PUSH2 0xDB7 JUMP JUMPDEST JUMPDEST SWAP3 POP SWAP3 SWAP1 POP JUMP JUMPDEST PUSH1 0x0 DUP1 PUSH1 0x20 DUP4 DUP6 SUB SLT ISZERO PUSH2 0xF21 JUMPI PUSH2 0xF20 PUSH2 0xCC4 JUMP JUMPDEST JUMPDEST PUSH1 0x0 DUP4 ADD CALLDATALOAD PUSH8 0xFFFFFFFFFFFFFFFF DUP2 GT ISZERO PUSH2 0xF3F JUMPI PUSH2 0xF3E PUSH2 0xCC9 JUMP JUMPDEST JUMPDEST PUSH2 0xF4B DUP6 DUP3 DUP7 ADD PUSH2 0xEB4 JUMP JUMPDEST SWAP3 POP SWAP3 POP POP SWAP3 POP SWAP3 SWAP1 POP JUMP JUMPDEST PUSH1 0x0 PUSH20 0xFFFFFFFFFFFFFFFFFFFFFFFFFFFFFFFFFFFFFFFF DUP3 AND SWAP1 POP SWAP2 SWAP1 POP JUMP JUMPDEST PUSH1 0x0 PUSH2 0xF82 DUP3 PUSH2 0xF57 JUMP JUMPDEST SWAP1 POP SWAP2 SWAP1 POP JUMP JUMPDEST PUSH2 0xF92 DUP2 PUSH2 0xF77 JUMP JUMPDEST DUP3 MSTORE POP POP JUMP JUMPDEST PUSH1 0x0 PUSH1 0x20 DUP3 ADD SWAP1 POP PUSH2 0xFAD PUSH1 0x0 DUP4 ADD DUP5 PUSH2 0xF89 JUMP JUMPDEST SWAP3 SWAP2 POP POP JUMP JUMPDEST PUSH1 0x0 DUP1 REVERT JUMPDEST PUSH1 0x0 PUSH8 0xFFFFFFFFFFFFFFFF DUP3 GT ISZERO PUSH2 0xFD3 JUMPI PUSH2 0xFD2 PUSH2 0xD10 JUMP JUMPDEST JUMPDEST PUSH2 0xFDC DUP3 PUSH2 0xCFF JUMP JUMPDEST SWAP1 POP PUSH1 0x20 DUP2 ADD SWAP1 POP SWAP2 SWAP1 POP JUMP JUMPDEST DUP3 DUP2 DUP4 CALLDATACOPY PUSH1 0x0 DUP4 DUP4 ADD MSTORE POP POP POP JUMP JUMPDEST PUSH1 0x0 PUSH2 0x100B PUSH2 0x1006 DUP5 PUSH2 0xFB8 JUMP JUMPDEST PUSH2 0xD70 JUMP JUMPDEST SWAP1 POP DUP3 DUP2 MSTORE PUSH1 0x20 DUP2 ADD DUP5 DUP5 DUP5 ADD GT ISZERO PUSH2 0x1027 JUMPI PUSH2 0x1026 PUSH2 0xFB3 JUMP JUMPDEST JUMPDEST PUSH2 0x1032 DUP5 DUP3 DUP6 PUSH2 0xFE9 JUMP JUMPDEST POP SWAP4 SWAP3 POP POP POP JUMP JUMPDEST PUSH1 0x0 DUP3 PUSH1 0x1F DUP4 ADD SLT PUSH2 0x104F JUMPI PUSH2 0x104E PUSH2 0xCFA JUMP JUMPDEST JUMPDEST DUP2 CALLDATALOAD PUSH2 0x105F DUP5 DUP3 PUSH1 0x20 DUP7 ADD PUSH2 0xFF8 JUMP JUMPDEST SWAP2 POP POP SWAP3 SWAP2 POP POP JUMP JUMPDEST PUSH1 0x0 PUSH1 0x20 DUP3 DUP5 SUB SLT ISZERO PUSH2 0x107E JUMPI PUSH2 0x107D PUSH2 0xCC4 JUMP JUMPDEST JUMPDEST PUSH1 0x0 DUP3 ADD CALLDATALOAD PUSH8 0xFFFFFFFFFFFFFFFF DUP2 GT ISZERO PUSH2 0x109C JUMPI PUSH2 0x109B PUSH2 0xCC9 JUMP JUMPDEST JUMPDEST PUSH2 0x10A8 DUP5 DUP3 DUP6 ADD PUSH2 0x103A JUMP JUMPDEST SWAP2 POP POP SWAP3 SWAP2 POP POP JUMP JUMPDEST PUSH1 0x0 DUP2 ISZERO ISZERO SWAP1 POP SWAP2 SWAP1 POP JUMP JUMPDEST PUSH2 0x10C6 DUP2 PUSH2 0x10B1 JUMP JUMPDEST DUP3 MSTORE POP POP JUMP JUMPDEST PUSH1 0x0 DUP2 MLOAD SWAP1 POP SWAP2 SWAP1 POP JUMP JUMPDEST PUSH1 0x0 DUP3 DUP3 MSTORE PUSH1 0x20 DUP3 ADD SWAP1 POP SWAP3 SWAP2 POP POP JUMP JUMPDEST PUSH1 0x0 JUMPDEST DUP4 DUP2 LT ISZERO PUSH2 0x1106 JUMPI DUP1 DUP3 ADD MLOAD DUP2 DUP5 ADD MSTORE PUSH1 0x20 DUP2 ADD SWAP1 POP PUSH2 0x10EB JUMP JUMPDEST PUSH1 0x0 DUP5 DUP5 ADD MSTORE POP POP POP POP JUMP JUMPDEST PUSH1 0x0 PUSH2 0x111D DUP3 PUSH2 0x10CC JUMP JUMPDEST PUSH2 0x1127 DUP2 DUP6 PUSH2 0x10D7 JUMP JUMPDEST SWAP4 POP PUSH2 0x1137 DUP2 DUP6 PUSH1 0x20 DUP7 ADD PUSH2 0x10E8 JUMP JUMPDEST PUSH2 0x1140 DUP2 PUSH2 0xCFF JUMP JUMPDEST DUP5 ADD SWAP2 POP POP SWAP3 SWAP2 POP POP JUMP JUMPDEST PUSH1 0x0 PUSH1 0x40 DUP3 ADD SWAP1 POP PUSH2 0x1160 PUSH1 0x0 DUP4 ADD DUP6 PUSH2 0x10BD JUMP JUMPDEST DUP2 DUP2 SUB PUSH1 0x20 DUP4 ADD MSTORE PUSH2 0x1172 DUP2 DUP5 PUSH2 0x1112 JUMP JUMPDEST SWAP1 POP SWAP4 SWAP3 POP POP POP JUMP JUMPDEST PUSH1 0x0 PUSH1 0x20 DUP3 DUP5 SUB SLT ISZERO PUSH2 0x1191 JUMPI PUSH2 0x1190 PUSH2 0xCC4 JUMP JUMPDEST JUMPDEST PUSH1 0x0 PUSH2 0x119F DUP5 DUP3 DUP6 ADD PUSH2 0xCE5 JUMP JUMPDEST SWAP2 POP POP SWAP3 SWAP2 POP POP JUMP JUMPDEST PUSH1 0x0 PUSH2 0x11B3 DUP3 PUSH2 0xF57 JUMP JUMPDEST SWAP1 POP SWAP2 SWAP1 POP JUMP JUMPDEST PUSH2 0x11C3 DUP2 PUSH2 0x11A8 JUMP JUMPDEST DUP3 MSTORE POP POP JUMP JUMPDEST PUSH1 0x0 PUSH1 0x20 DUP3 ADD SWAP1 POP PUSH2 0x11DE PUSH1 0x0 DUP4 ADD DUP5 PUSH2 0x11BA JUMP JUMPDEST SWAP3 SWAP2 POP POP JUMP JUMPDEST PUSH1 0x0 PUSH1 0x40 DUP3 ADD SWAP1 POP PUSH2 0x11F9 PUSH1 0x0 DUP4 ADD DUP6 PUSH2 0xF89 JUMP JUMPDEST PUSH2 0x1206 PUSH1 0x20 DUP4 ADD DUP5 PUSH2 0xF89 JUMP JUMPDEST SWAP4 SWAP3 POP POP POP JUMP JUMPDEST PUSH1 0x0 PUSH1 0x60 DUP3 ADD SWAP1 POP PUSH2 0x1222 PUSH1 0x0 DUP4 ADD DUP7 PUSH2 0xBFE JUMP JUMPDEST PUSH2 0x122F PUSH1 0x20 DUP4 ADD DUP6 PUSH2 0xBFE JUMP JUMPDEST PUSH2 0x123C PUSH1 0x40 DUP4 ADD DUP5 PUSH2 0xBFE JUMP JUMPDEST SWAP5 SWAP4 POP POP POP POP JUMP JUMPDEST PUSH1 0x0 DUP2 SWAP1 POP SWAP2 SWAP1 POP JUMP JUMPDEST PUSH2 0x1257 DUP2 PUSH2 0x1244 JUMP JUMPDEST DUP3 MSTORE POP POP JUMP JUMPDEST PUSH1 0x0 PUSH8 0xFFFFFFFFFFFFFFFF DUP3 AND SWAP1 POP SWAP2 SWAP1 POP JUMP JUMPDEST PUSH2 0x127A DUP2 PUSH2 0x125D JUMP JUMPDEST DUP3 MSTORE POP POP JUMP JUMPDEST PUSH1 0x0 PUSH2 0xFFFF DUP3 AND SWAP1 POP SWAP2 SWAP1 POP JUMP JUMPDEST PUSH2 0x1297 DUP2 PUSH2 0x1280 JUMP JUMPDEST DUP3 MSTORE POP POP JUMP JUMPDEST PUSH1 0x0 PUSH4 0xFFFFFFFF DUP3 AND SWAP1 POP SWAP2 SWAP1 POP JUMP JUMPDEST PUSH2 0x12B6 DUP2 PUSH2 0x129D JUMP JUMPDEST DUP3 MSTORE POP POP JUMP JUMPDEST PUSH1 0x0 PUSH1 0xA0 DUP3 ADD SWAP1 POP PUSH2 0x12D1 PUSH1 0x0 DUP4 ADD DUP9 PUSH2 0x124E JUMP JUMPDEST PUSH2 0x12DE PUSH1 0x20 DUP4 ADD DUP8 PUSH2 0x1271 JUMP JUMPDEST PUSH2 0x12EB PUSH1 0x40 DUP4 ADD DUP7 PUSH2 0x128E JUMP JUMPDEST PUSH2 0x12F8 PUSH1 0x60 DUP4 ADD DUP6 PUSH2 0x12AD JUMP JUMPDEST PUSH2 0x1305 PUSH1 0x80 DUP4 ADD DUP5 PUSH2 0x12AD JUMP JUMPDEST SWAP7 SWAP6 POP POP POP POP POP POP JUMP JUMPDEST PUSH1 0x0 DUP2 MLOAD SWAP1 POP PUSH2 0x131E DUP2 PUSH2 0xCCE JUMP JUMPDEST SWAP3 SWAP2 POP POP JUMP JUMPDEST PUSH1 0x0 PUSH1 0x20 DUP3 DUP5 SUB SLT ISZERO PUSH2 0x133A JUMPI PUSH2 0x1339 PUSH2 0xCC4 JUMP JUMPDEST JUMPDEST PUSH1 0x0 PUSH2 0x1348 DUP5 DUP3 DUP6 ADD PUSH2 0x130F JUMP JUMPDEST SWAP2 POP POP SWAP3 SWAP2 POP POP JUMP JUMPDEST PUSH32 0x4E487B7100000000000000000000000000000000000000000000000000000000 PUSH1 0x0 MSTORE PUSH1 0x11 PUSH1 0x4 MSTORE PUSH1 0x24 PUSH1 0x0 REVERT JUMPDEST PUSH1 0x0 PUSH2 0x138B DUP3 PUSH2 0xBF4 JUMP JUMPDEST SWAP2 POP PUSH2 0x1396 DUP4 PUSH2 0xBF4 JUMP JUMPDEST SWAP3 POP DUP3 DUP3 SUB SWAP1 POP DUP2 DUP2 GT ISZERO PUSH2 0x13AE JUMPI PUSH2 0x13AD PUSH2 0x1351 JUMP JUMPDEST JUMPDEST SWAP3 SWAP2 POP POP JUMP JUMPDEST PUSH32 0x4E487B7100000000000000000000000000000000000000000000000000000000 PUSH1 0x0 MSTORE PUSH1 0x32 PUSH1 0x4 MSTORE PUSH1 0x24 PUSH1 0x0 REVERT JUMPDEST PUSH32 0x4E487B7100000000000000000000000000000000000000000000000000000000 PUSH1 0x0 MSTORE PUSH1 0x12 PUSH1 0x4 MSTORE PUSH1 0x24 PUSH1 0x0 REVERT JUMPDEST PUSH1 0x0 PUSH2 0x141D DUP3 PUSH2 0xBF4 JUMP JUMPDEST SWAP2 POP PUSH2 0x1428 DUP4 PUSH2 0xBF4 JUMP JUMPDEST SWAP3 POP DUP3 PUSH2 0x1438 JUMPI PUSH2 0x1437 PUSH2 0x13E3 JUMP JUMPDEST JUMPDEST DUP3 DUP3 MOD SWAP1 POP SWAP3 SWAP2 POP POP JUMP JUMPDEST PUSH1 0x0 DUP2 SWAP1 POP SWAP3 SWAP2 POP POP JUMP JUMPDEST POP JUMP JUMPDEST PUSH1 0x0 PUSH2 0x145E PUSH1 0x0 DUP4 PUSH2 0x1443 JUMP JUMPDEST SWAP2 POP PUSH2 0x1469 DUP3 PUSH2 0x144E JUMP JUMPDEST PUSH1 0x0 DUP3 ADD SWAP1 POP SWAP2 SWAP1 POP JUMP JUMPDEST PUSH1 0x0 PUSH2 0x147F DUP3 PUSH2 0x1451 JUMP JUMPDEST SWAP2 POP DUP2 SWAP1 POP SWAP2 SWAP1 POP JUMP INVALID LOG2 PUSH5 0x6970667358 0x22 SLT KECCAK256 0xCC 0xEE XOR 0xE0 PUSH4 0xC7611CCC RETURN 0xC2 PUSH13 0xD5E5905607C6F39A4A28620F56 PUSH27 0x15461978974F64736F6C634300081C003300000000000000000000 "},"gasEstimates":{"creation":{"codeDepositCost":"1062200","executionCost":"infinite","totalCost":"infinite"},"external":{"changerafflestate()":"26697","checkUpkeep(bytes)":"infinite","enterRaffle()":"infinite","getEntranceFee()":"infinite","getInterval()":"infinite","getLastTimeStamp()":"2525","getPlayer(uint256)":"5077","getRaffleState()":"2591","getRecentWinner()":"2522","performUpkeep(bytes)":"infinite","rawFulfillRandomWords(uint256,uint256[])":"infinite"},"internal":{"fulfillRandomWords(uint256,uint256[] memory)":"infinite"}},"methodIdentifiers":{"changerafflestate()":"8a84c58e","checkUpkeep(bytes)":"6e04ff0d","enterRaffle()":"2cfcc539","getEntranceFee()":"09bc33a7","getInterval()":"91ad27b4","getLastTimeStamp()":"c1c244e8","getPlayer(uint256)":"e55ae4e8","getRaffleState()":"115cbaf5","getRecentWinner()":"473f1ddc","performUpkeep(bytes)":"4585e33b","rawFulfillRandomWords(uint256,uint256[])":"1fe543e3"}},"storageLayout":{"storage":[{"astId":253,"contract":"contracts/Raffle.sol:Raffle","label":"s_players","offset":0,"slot":"0","type":"t_array(t_address_payable)dyn_storage"},{"astId":260,"contract":"contracts/Raffle.sol:Raffle","label":"recentWinner","offset":0,"slot":"1","type":"t_address_payable"},{"astId":272,"contract":"contracts/Raffle.sol:Raffle","label":"s_isOpen","offset":0,"slot":"2","type":"t_uint256"},{"astId":276,"contract":"contracts/Raffle.sol:Raffle","label":"s_lastTimeStamp","offset":0,"slot":"3","type":"t_uint256"},{"astId":282,"contract":"contracts/Raffle.sol:Raffle","label":"s_raffle_state","offset":0,"slot":"4","type":"t_enum(RaffleState)279"}],"types":{"t_address_payable":{"encoding":"inplace","label":"address payable","numberOfBytes":"20"},"t_array(t_address_payable)dyn_storage":{"base":"t_address_payable","encoding":"dynamic_array","label":"address payable[]","numberOfBytes":"32"},"t_enum(RaffleState)279":{"encoding":"inplace","label":"enum Raffle.RaffleState","numberOfBytes":"1"},"t_uint256":{"encoding":"inplace","label":"uint256","numberOfBytes":"32"}}},"userdoc":{"kind":"user","methods":{},"version":1}}}}