{"contracts/old/OldRaffle.sol":{"OldRaffle":{"abi":[{"inputs":[{"internalType":"address","name":"vrfCoordinatorV2","type":"address"},{"internalType":"uint256","name":"entrancefee","type":"uint256"},{"internalType":"uint256","name":"subscriptionId","type":"uint256"},{"internalType":"uint32","name":"callbackGasLimit","type":"uint32"},{"internalType":"bytes32","name":"gasLane","type":"bytes32"},{"internalType":"uint256","name":"interval","type":"uint256"}],"stateMutability":"nonpayable","type":"constructor"},{"inputs":[{"internalType":"address","name":"have","type":"address"},{"internalType":"address","name":"want","type":"address"}],"name":"OnlyCoordinatorCanFulfill","type":"error"},{"inputs":[],"name":"OnlySimulatedBackend","type":"error"},{"inputs":[],"name":"Raffle_Not_Open","type":"error"},{"inputs":[],"name":"Raffle_TransferUnsuccessful","type":"error"},{"inputs":[],"name":"Raffle__SendMoreToEnterRaffle","type":"error"},{"inputs":[{"internalType":"uint256","name":"currentBalance","type":"uint256"},{"internalType":"uint256","name":"numPlayers","type":"uint256"},{"internalType":"uint256","name":"raffleState","type":"uint256"}],"name":"checkUpkeep_Not_Needed","type":"error"},{"anonymous":false,"inputs":[{"indexed":true,"internalType":"uint256","name":"requestId","type":"uint256"}],"name":"RequestedRandomWords","type":"event"},{"anonymous":false,"inputs":[{"indexed":true,"internalType":"address","name":"player","type":"address"}],"name":"raffleEnter","type":"event"},{"anonymous":false,"inputs":[{"indexed":true,"internalType":"address","name":"winner","type":"address"}],"name":"winnerPicked","type":"event"},{"inputs":[],"name":"changerafflestate","outputs":[],"stateMutability":"nonpayable","type":"function"},{"inputs":[{"internalType":"bytes","name":"","type":"bytes"}],"name":"checkUpkeep","outputs":[{"internalType":"bool","name":"upkeepNeeded","type":"bool"},{"internalType":"bytes","name":"","type":"bytes"}],"stateMutability":"view","type":"function"},{"inputs":[],"name":"enterRaffle","outputs":[],"stateMutability":"payable","type":"function"},{"inputs":[],"name":"getAllPlayers","outputs":[{"internalType":"address payable[]","name":"","type":"address[]"}],"stateMutability":"view","type":"function"},{"inputs":[],"name":"getAllPlayersCount","outputs":[{"internalType":"uint256","name":"","type":"uint256"}],"stateMutability":"view","type":"function"},{"inputs":[],"name":"getEntranceFee","outputs":[{"internalType":"uint256","name":"","type":"uint256"}],"stateMutability":"view","type":"function"},{"inputs":[],"name":"getInterval","outputs":[{"internalType":"uint256","name":"","type":"uint256"}],"stateMutability":"view","type":"function"},{"inputs":[],"name":"getLastTimeStamp","outputs":[{"internalType":"uint256","name":"","type":"uint256"}],"stateMutability":"view","type":"function"},{"inputs":[{"internalType":"uint256","name":"index","type":"uint256"}],"name":"getPlayer","outputs":[{"internalType":"address payable","name":"","type":"address"}],"stateMutability":"view","type":"function"},{"inputs":[],"name":"getRaffleState","outputs":[{"internalType":"enum OldRaffle.RaffleState","name":"","type":"uint8"}],"stateMutability":"view","type":"function"},{"inputs":[],"name":"getRecentWinner","outputs":[{"internalType":"address","name":"","type":"address"}],"stateMutability":"view","type":"function"},{"inputs":[{"internalType":"bytes","name":"","type":"bytes"}],"name":"performUpkeep","outputs":[],"stateMutability":"nonpayable","type":"function"},{"inputs":[{"internalType":"uint256","name":"requestId","type":"uint256"},{"internalType":"uint256[]","name":"randomWords","type":"uint256[]"}],"name":"rawFulfillRandomWords","outputs":[],"stateMutability":"nonpayable","type":"function"}],"devdoc":{"kind":"dev","methods":{},"version":1},"evm":{"bytecode":{"linkReferences":{},"object":"61016060405234801561001157600080fd5b50604051611a22380380611a228339818101604052810190610033919061021c565b858073ffffffffffffffffffffffffffffffffffffffff1660808173ffffffffffffffffffffffffffffffffffffffff1681525050508460a081815250508573ffffffffffffffffffffffffffffffffffffffff1660c08173ffffffffffffffffffffffffffffffffffffffff16815250508360e081815250508263ffffffff166101008163ffffffff16815250508161012081815250506000600460006101000a81548160ff021916908360018111156100f1576100f06102a9565b5b0217905550806101408181525050426003819055505050505050506102d8565b600080fd5b600073ffffffffffffffffffffffffffffffffffffffff82169050919050565b600061014182610116565b9050919050565b61015181610136565b811461015c57600080fd5b50565b60008151905061016e81610148565b92915050565b6000819050919050565b61018781610174565b811461019257600080fd5b50565b6000815190506101a48161017e565b92915050565b600063ffffffff82169050919050565b6101c3816101aa565b81146101ce57600080fd5b50565b6000815190506101e0816101ba565b92915050565b6000819050919050565b6101f9816101e6565b811461020457600080fd5b50565b600081519050610216816101f0565b92915050565b60008060008060008060c0878903121561023957610238610111565b5b600061024789828a0161015f565b965050602061025889828a01610195565b955050604061026989828a01610195565b945050606061027a89828a016101d1565b935050608061028b89828a01610207565b92505060a061029c89828a01610195565b9150509295509295509295565b7f4e487b7100000000000000000000000000000000000000000000000000000000600052602160045260246000fd5b60805160a05160c05160e0516101005161012051610140516116db610347600039600081816107d301526108da0152600061066a015260006106ae0152600061068b0152600061062e0152600081816102e60152610450015260008181610323015261037701526116db6000f3fe6080604052600436106100c25760003560e01c80636e04ff0d1161007f578063c1c244e811610059578063c1c244e814610224578063e55ae4e81461024f578063efa1c4821461028c578063f80b82f7146102b7576100c2565b80636e04ff0d146101a45780638a84c58e146101e257806391ad27b4146101f9576100c2565b806309bc33a7146100c7578063115cbaf5146100f25780631fe543e31461011d5780632cfcc539146101465780634585e33b14610150578063473f1ddc14610179575b600080fd5b3480156100d357600080fd5b506100dc6102e2565b6040516100e99190610d49565b60405180910390f35b3480156100fe57600080fd5b5061010761030a565b6040516101149190610ddb565b60405180910390f35b34801561012957600080fd5b50610144600480360381019061013f9190610f8f565b610321565b005b61014e6103e1565b005b34801561015c57600080fd5b5061017760048036038101906101729190611046565b610550565b005b34801561018557600080fd5b5061018e610767565b60405161019b91906110d4565b60405180910390f35b3480156101b057600080fd5b506101cb60048036038101906101c691906111a4565b610791565b6040516101d9929190611287565b60405180910390f35b3480156101ee57600080fd5b506101f761083d565b005b34801561020557600080fd5b5061020e6108d6565b60405161021b9190610d49565b60405180910390f35b34801561023057600080fd5b506102396108fe565b6040516102469190610d49565b60405180910390f35b34801561025b57600080fd5b50610276600480360381019061027191906112b7565b610908565b6040516102839190611305565b60405180910390f35b34801561029857600080fd5b506102a161094f565b6040516102ae91906113de565b60405180910390f35b3480156102c357600080fd5b506102cc6109dd565b6040516102d99190610d49565b60405180910390f35b60007f0000000000000000000000000000000000000000000000000000000000000000905090565b6000600460009054906101000a900460ff16905090565b7f000000000000000000000000000000000000000000000000000000000000000073ffffffffffffffffffffffffffffffffffffffff163373ffffffffffffffffffffffffffffffffffffffff16146103d357337f00000000000000000000000000000000000000000000000000000000000000006040517f1cf993f40000000000000000000000000000000000000000000000000000000081526004016103ca929190611400565b60405180910390fd5b6103dd82826109e9565b5050565b600060018111156103f5576103f4610d64565b5b600460009054906101000a900460ff16600181111561041757610416610d64565b5b1461044e576040517f286c89dd00000000000000000000000000000000000000000000000000000000815260040160405180910390fd5b7f00000000000000000000000000000000000000000000000000000000000000003410156104a8576040517f3038c00a00000000000000000000000000000000000000000000000000000000815260040160405180910390fd5b6000339080600181540180825580915050600190039060005260206000200160009091909190916101000a81548173ffffffffffffffffffffffffffffffffffffffff021916908373ffffffffffffffffffffffffffffffffffffffff1602179055503373ffffffffffffffffffffffffffffffffffffffff167f742d070bf0f3edace132a9da8ba725e8cf99c478869cee7f673ed6085e2f8e6460405160405180910390a2565b60006105906040518060400160405280600281526020017f3078000000000000000000000000000000000000000000000000000000000000815250610791565b509050806105ff5747600080549050600460009054906101000a900460ff1660018111156105c1576105c0610d64565b5b6040517f5711a4030000000000000000000000000000000000000000000000000000000081526004016105f693929190611429565b60405180910390fd5b6001600460006101000a81548160ff0219169083600181111561062557610624610d64565b5b021790555060007f000000000000000000000000000000000000000000000000000000000000000073ffffffffffffffffffffffffffffffffffffffff16635d3b1d307f00000000000000000000000000000000000000000000000000000000000000007f000000000000000000000000000000000000000000000000000000000000000060037f000000000000000000000000000000000000000000000000000000000000000060016040518663ffffffff1660e01b81526004016106ef9594939291906114d8565b6020604051808303816000875af115801561070e573d6000803e3d6000fd5b505050506040513d601f19601f820116820180604052508101906107329190611540565b9050807fc3d0c9fbc1987665462eec0262eb7fc743a27d411fd3a0b9c20c1c64d99347d360405160405180910390a250505050565b6000600160009054906101000a900473ffffffffffffffffffffffffffffffffffffffff16905090565b6000606060008060018111156107aa576107a9610d64565b5b600460009054906101000a900460ff1660018111156107cc576107cb610d64565b5b14905060007f000000000000000000000000000000000000000000000000000000000000000060035442610800919061159c565b119050600080600080549050119050600080471190508380156108205750825b80156108295750815b80156108325750805b955050505050915091565b6000600181111561085157610850610d64565b5b600460009054906101000a900460ff16600181111561087357610872610d64565b5b036108a8576001600460006101000a81548160ff0219169083600181111561089e5761089d610d64565b5b02179055506108d4565b6000600460006101000a81548160ff021916908360018111156108ce576108cd610d64565b5b02179055505b565b60007f0000000000000000000000000000000000000000000000000000000000000000905090565b6000600354905090565b600080828154811061091d5761091c6115d0565b5b9060005260206000200160009054906101000a900473ffffffffffffffffffffffffffffffffffffffff169050919050565b606060008054806020026020016040519081016040528092919081815260200182805480156109d357602002820191906000526020600020905b8160009054906101000a900473ffffffffffffffffffffffffffffffffffffffff1673ffffffffffffffffffffffffffffffffffffffff1681526020019060010190808311610989575b5050505050905090565b60008080549050905090565b6001600460006101000a81548160ff02191690836001811115610a0f57610a0e610d64565b5b02179055506000808054905082600081518110610a2f57610a2e6115d0565b5b6020026020010151610a41919061162e565b90506000808281548110610a5857610a576115d0565b5b9060005260206000200160009054906101000a900473ffffffffffffffffffffffffffffffffffffffff16905080600160006101000a81548173ffffffffffffffffffffffffffffffffffffffff021916908373ffffffffffffffffffffffffffffffffffffffff1602179055506000600460006101000a81548160ff02191690836001811115610aec57610aeb610d64565b5b0217905550600067ffffffffffffffff811115610b0c57610b0b610e4c565b5b604051908082528060200260200182016040528015610b3a5781602001602082028036833780820191505090505b5060009080519060200190610b50929190610c89565b50426003819055506000600160009054906101000a900473ffffffffffffffffffffffffffffffffffffffff1673ffffffffffffffffffffffffffffffffffffffff1647604051610ba090611690565b60006040518083038185875af1925050503d8060008114610bdd576040519150601f19603f3d011682016040523d82523d6000602084013e610be2565b606091505b5050905080610c1d576040517f5714df0a00000000000000000000000000000000000000000000000000000000815260040160405180910390fd5b600160009054906101000a900473ffffffffffffffffffffffffffffffffffffffff1673ffffffffffffffffffffffffffffffffffffffff167f794919b0f484b8e90b1b817ac7f880f846fbd8a9813dee2a378e820db094e3d160405160405180910390a25050505050565b828054828255906000526020600020908101928215610d02579160200282015b82811115610d015782518260006101000a81548173ffffffffffffffffffffffffffffffffffffffff021916908373ffffffffffffffffffffffffffffffffffffffff16021790555091602001919060010190610ca9565b5b509050610d0f9190610d13565b5090565b5b80821115610d2c576000816000905550600101610d14565b5090565b6000819050919050565b610d4381610d30565b82525050565b6000602082019050610d5e6000830184610d3a565b92915050565b7f4e487b7100000000000000000000000000000000000000000000000000000000600052602160045260246000fd5b60028110610da457610da3610d64565b5b50565b6000819050610db582610d93565b919050565b6000610dc582610da7565b9050919050565b610dd581610dba565b82525050565b6000602082019050610df06000830184610dcc565b92915050565b6000604051905090565b600080fd5b600080fd5b610e1381610d30565b8114610e1e57600080fd5b50565b600081359050610e3081610e0a565b92915050565b600080fd5b6000601f19601f8301169050919050565b7f4e487b7100000000000000000000000000000000000000000000000000000000600052604160045260246000fd5b610e8482610e3b565b810181811067ffffffffffffffff82111715610ea357610ea2610e4c565b5b80604052505050565b6000610eb6610df6565b9050610ec28282610e7b565b919050565b600067ffffffffffffffff821115610ee257610ee1610e4c565b5b602082029050602081019050919050565b600080fd5b6000610f0b610f0684610ec7565b610eac565b90508083825260208201905060208402830185811115610f2e57610f2d610ef3565b5b835b81811015610f575780610f438882610e21565b845260208401935050602081019050610f30565b5050509392505050565b600082601f830112610f7657610f75610e36565b5b8135610f86848260208601610ef8565b91505092915050565b60008060408385031215610fa657610fa5610e00565b5b6000610fb485828601610e21565b925050602083013567ffffffffffffffff811115610fd557610fd4610e05565b5b610fe185828601610f61565b9150509250929050565b600080fd5b60008083601f84011261100657611005610e36565b5b8235905067ffffffffffffffff81111561102357611022610feb565b5b60208301915083600182028301111561103f5761103e610ef3565b5b9250929050565b6000806020838503121561105d5761105c610e00565b5b600083013567ffffffffffffffff81111561107b5761107a610e05565b5b61108785828601610ff0565b92509250509250929050565b600073ffffffffffffffffffffffffffffffffffffffff82169050919050565b60006110be82611093565b9050919050565b6110ce816110b3565b82525050565b60006020820190506110e960008301846110c5565b92915050565b600080fd5b600067ffffffffffffffff82111561110f5761110e610e4c565b5b61111882610e3b565b9050602081019050919050565b82818337600083830152505050565b6000611147611142846110f4565b610eac565b905082815260208101848484011115611163576111626110ef565b5b61116e848285611125565b509392505050565b600082601f83011261118b5761118a610e36565b5b813561119b848260208601611134565b91505092915050565b6000602082840312156111ba576111b9610e00565b5b600082013567ffffffffffffffff8111156111d8576111d7610e05565b5b6111e484828501611176565b91505092915050565b60008115159050919050565b611202816111ed565b82525050565b600081519050919050565b600082825260208201905092915050565b60005b83811015611242578082015181840152602081019050611227565b60008484015250505050565b600061125982611208565b6112638185611213565b9350611273818560208601611224565b61127c81610e3b565b840191505092915050565b600060408201905061129c60008301856111f9565b81810360208301526112ae818461124e565b90509392505050565b6000602082840312156112cd576112cc610e00565b5b60006112db84828501610e21565b91505092915050565b60006112ef82611093565b9050919050565b6112ff816112e4565b82525050565b600060208201905061131a60008301846112f6565b92915050565b600081519050919050565b600082825260208201905092915050565b6000819050602082019050919050565b611355816112e4565b82525050565b6000611367838361134c565b60208301905092915050565b6000602082019050919050565b600061138b82611320565b611395818561132b565b93506113a08361133c565b8060005b838110156113d15781516113b8888261135b565b97506113c383611373565b9250506001810190506113a4565b5085935050505092915050565b600060208201905081810360008301526113f88184611380565b905092915050565b600060408201905061141560008301856110c5565b61142260208301846110c5565b9392505050565b600060608201905061143e6000830186610d3a565b61144b6020830185610d3a565b6114586040830184610d3a565b949350505050565b6000819050919050565b61147381611460565b82525050565b600067ffffffffffffffff82169050919050565b61149681611479565b82525050565b600061ffff82169050919050565b6114b38161149c565b82525050565b600063ffffffff82169050919050565b6114d2816114b9565b82525050565b600060a0820190506114ed600083018861146a565b6114fa602083018761148d565b61150760408301866114aa565b61151460608301856114c9565b61152160808301846114c9565b9695505050505050565b60008151905061153a81610e0a565b92915050565b60006020828403121561155657611555610e00565b5b60006115648482850161152b565b91505092915050565b7f4e487b7100000000000000000000000000000000000000000000000000000000600052601160045260246000fd5b60006115a782610d30565b91506115b283610d30565b92508282039050818111156115ca576115c961156d565b5b92915050565b7f4e487b7100000000000000000000000000000000000000000000000000000000600052603260045260246000fd5b7f4e487b7100000000000000000000000000000000000000000000000000000000600052601260045260246000fd5b600061163982610d30565b915061164483610d30565b925082611654576116536115ff565b5b828206905092915050565b600081905092915050565b50565b600061167a60008361165f565b91506116858261166a565b600082019050919050565b600061169b8261166d565b915081905091905056fea26469706673582212202249084015a2790694f266aa397be0866862c8b10928a87b0fd18c5182f2b25e64736f6c634300081c0033","opcodes":"PUSH2 0x160 PUSH1 0x40 MSTORE CALLVALUE DUP1 ISZERO PUSH2 0x11 JUMPI PUSH1 0x0 DUP1 REVERT JUMPDEST POP PUSH1 0x40 MLOAD PUSH2 0x1A22 CODESIZE SUB DUP1 PUSH2 0x1A22 DUP4 CODECOPY DUP2 DUP2 ADD PUSH1 0x40 MSTORE DUP2 ADD SWAP1 PUSH2 0x33 SWAP2 SWAP1 PUSH2 0x21C JUMP JUMPDEST DUP6 DUP1 PUSH20 0xFFFFFFFFFFFFFFFFFFFFFFFFFFFFFFFFFFFFFFFF AND PUSH1 0x80 DUP2 PUSH20 0xFFFFFFFFFFFFFFFFFFFFFFFFFFFFFFFFFFFFFFFF AND DUP2 MSTORE POP POP POP DUP5 PUSH1 0xA0 DUP2 DUP2 MSTORE POP POP DUP6 PUSH20 0xFFFFFFFFFFFFFFFFFFFFFFFFFFFFFFFFFFFFFFFF AND PUSH1 0xC0 DUP2 PUSH20 0xFFFFFFFFFFFFFFFFFFFFFFFFFFFFFFFFFFFFFFFF AND DUP2 MSTORE POP POP DUP4 PUSH1 0xE0 DUP2 DUP2 MSTORE POP POP DUP3 PUSH4 0xFFFFFFFF AND PUSH2 0x100 DUP2 PUSH4 0xFFFFFFFF AND DUP2 MSTORE POP POP DUP2 PUSH2 0x120 DUP2 DUP2 MSTORE POP POP PUSH1 0x0 PUSH1 0x4 PUSH1 0x0 PUSH2 0x100 EXP DUP2 SLOAD DUP2 PUSH1 0xFF MUL NOT AND SWAP1 DUP4 PUSH1 0x1 DUP2 GT ISZERO PUSH2 0xF1 JUMPI PUSH2 0xF0 PUSH2 0x2A9 JUMP JUMPDEST JUMPDEST MUL OR SWAP1 SSTORE POP DUP1 PUSH2 0x140 DUP2 DUP2 MSTORE POP POP TIMESTAMP PUSH1 0x3 DUP2 SWAP1 SSTORE POP POP POP POP POP POP POP PUSH2 0x2D8 JUMP JUMPDEST PUSH1 0x0 DUP1 REVERT JUMPDEST PUSH1 0x0 PUSH20 0xFFFFFFFFFFFFFFFFFFFFFFFFFFFFFFFFFFFFFFFF DUP3 AND SWAP1 POP SWAP2 SWAP1 POP JUMP JUMPDEST PUSH1 0x0 PUSH2 0x141 DUP3 PUSH2 0x116 JUMP JUMPDEST SWAP1 POP SWAP2 SWAP1 POP JUMP JUMPDEST PUSH2 0x151 DUP2 PUSH2 0x136 JUMP JUMPDEST DUP2 EQ PUSH2 0x15C JUMPI PUSH1 0x0 DUP1 REVERT JUMPDEST POP JUMP JUMPDEST PUSH1 0x0 DUP2 MLOAD SWAP1 POP PUSH2 0x16E DUP2 PUSH2 0x148 JUMP JUMPDEST SWAP3 SWAP2 POP POP JUMP JUMPDEST PUSH1 0x0 DUP2 SWAP1 POP SWAP2 SWAP1 POP JUMP JUMPDEST PUSH2 0x187 DUP2 PUSH2 0x174 JUMP JUMPDEST DUP2 EQ PUSH2 0x192 JUMPI PUSH1 0x0 DUP1 REVERT JUMPDEST POP JUMP JUMPDEST PUSH1 0x0 DUP2 MLOAD SWAP1 POP PUSH2 0x1A4 DUP2 PUSH2 0x17E JUMP JUMPDEST SWAP3 SWAP2 POP POP JUMP JUMPDEST PUSH1 0x0 PUSH4 0xFFFFFFFF DUP3 AND SWAP1 POP SWAP2 SWAP1 POP JUMP JUMPDEST PUSH2 0x1C3 DUP2 PUSH2 0x1AA JUMP JUMPDEST DUP2 EQ PUSH2 0x1CE JUMPI PUSH1 0x0 DUP1 REVERT JUMPDEST POP JUMP JUMPDEST PUSH1 0x0 DUP2 MLOAD SWAP1 POP PUSH2 0x1E0 DUP2 PUSH2 0x1BA JUMP JUMPDEST SWAP3 SWAP2 POP POP JUMP JUMPDEST PUSH1 0x0 DUP2 SWAP1 POP SWAP2 SWAP1 POP JUMP JUMPDEST PUSH2 0x1F9 DUP2 PUSH2 0x1E6 JUMP JUMPDEST DUP2 EQ PUSH2 0x204 JUMPI PUSH1 0x0 DUP1 REVERT JUMPDEST POP JUMP JUMPDEST PUSH1 0x0 DUP2 MLOAD SWAP1 POP PUSH2 0x216 DUP2 PUSH2 0x1F0 JUMP JUMPDEST SWAP3 SWAP2 POP POP JUMP JUMPDEST PUSH1 0x0 DUP1 PUSH1 0x0 DUP1 PUSH1 0x0 DUP1 PUSH1 0xC0 DUP8 DUP10 SUB SLT ISZERO PUSH2 0x239 JUMPI PUSH2 0x238 PUSH2 0x111 JUMP JUMPDEST JUMPDEST PUSH1 0x0 PUSH2 0x247 DUP10 DUP3 DUP11 ADD PUSH2 0x15F JUMP JUMPDEST SWAP7 POP POP PUSH1 0x20 PUSH2 0x258 DUP10 DUP3 DUP11 ADD PUSH2 0x195 JUMP JUMPDEST SWAP6 POP POP PUSH1 0x40 PUSH2 0x269 DUP10 DUP3 DUP11 ADD PUSH2 0x195 JUMP JUMPDEST SWAP5 POP POP PUSH1 0x60 PUSH2 0x27A DUP10 DUP3 DUP11 ADD PUSH2 0x1D1 JUMP JUMPDEST SWAP4 POP POP PUSH1 0x80 PUSH2 0x28B DUP10 DUP3 DUP11 ADD PUSH2 0x207 JUMP JUMPDEST SWAP3 POP POP PUSH1 0xA0 PUSH2 0x29C DUP10 DUP3 DUP11 ADD PUSH2 0x195 JUMP JUMPDEST SWAP2 POP POP SWAP3 SWAP6 POP SWAP3 SWAP6 POP SWAP3 SWAP6 JUMP JUMPDEST PUSH32 0x4E487B7100000000000000000000000000000000000000000000000000000000 PUSH1 0x0 MSTORE PUSH1 0x21 PUSH1 0x4 MSTORE PUSH1 0x24 PUSH1 0x0 REVERT JUMPDEST PUSH1 0x80 MLOAD PUSH1 0xA0 MLOAD PUSH1 0xC0 MLOAD PUSH1 0xE0 MLOAD PUSH2 0x100 MLOAD PUSH2 0x120 MLOAD PUSH2 0x140 MLOAD PUSH2 0x16DB PUSH2 0x347 PUSH1 0x0 CODECOPY PUSH1 0x0 DUP2 DUP2 PUSH2 0x7D3 ADD MSTORE PUSH2 0x8DA ADD MSTORE PUSH1 0x0 PUSH2 0x66A ADD MSTORE PUSH1 0x0 PUSH2 0x6AE ADD MSTORE PUSH1 0x0 PUSH2 0x68B ADD MSTORE PUSH1 0x0 PUSH2 0x62E ADD MSTORE PUSH1 0x0 DUP2 DUP2 PUSH2 0x2E6 ADD MSTORE PUSH2 0x450 ADD MSTORE PUSH1 0x0 DUP2 DUP2 PUSH2 0x323 ADD MSTORE PUSH2 0x377 ADD MSTORE PUSH2 0x16DB PUSH1 0x0 RETURN INVALID PUSH1 0x80 PUSH1 0x40 MSTORE PUSH1 0x4 CALLDATASIZE LT PUSH2 0xC2 JUMPI PUSH1 0x0 CALLDATALOAD PUSH1 0xE0 SHR DUP1 PUSH4 0x6E04FF0D GT PUSH2 0x7F JUMPI DUP1 PUSH4 0xC1C244E8 GT PUSH2 0x59 JUMPI DUP1 PUSH4 0xC1C244E8 EQ PUSH2 0x224 JUMPI DUP1 PUSH4 0xE55AE4E8 EQ PUSH2 0x24F JUMPI DUP1 PUSH4 0xEFA1C482 EQ PUSH2 0x28C JUMPI DUP1 PUSH4 0xF80B82F7 EQ PUSH2 0x2B7 JUMPI PUSH2 0xC2 JUMP JUMPDEST DUP1 PUSH4 0x6E04FF0D EQ PUSH2 0x1A4 JUMPI DUP1 PUSH4 0x8A84C58E EQ PUSH2 0x1E2 JUMPI DUP1 PUSH4 0x91AD27B4 EQ PUSH2 0x1F9 JUMPI PUSH2 0xC2 JUMP JUMPDEST DUP1 PUSH4 0x9BC33A7 EQ PUSH2 0xC7 JUMPI DUP1 PUSH4 0x115CBAF5 EQ PUSH2 0xF2 JUMPI DUP1 PUSH4 0x1FE543E3 EQ PUSH2 0x11D JUMPI DUP1 PUSH4 0x2CFCC539 EQ PUSH2 0x146 JUMPI DUP1 PUSH4 0x4585E33B EQ PUSH2 0x150 JUMPI DUP1 PUSH4 0x473F1DDC EQ PUSH2 0x179 JUMPI JUMPDEST PUSH1 0x0 DUP1 REVERT JUMPDEST CALLVALUE DUP1 ISZERO PUSH2 0xD3 JUMPI PUSH1 0x0 DUP1 REVERT JUMPDEST POP PUSH2 0xDC PUSH2 0x2E2 JUMP JUMPDEST PUSH1 0x40 MLOAD PUSH2 0xE9 SWAP2 SWAP1 PUSH2 0xD49 JUMP JUMPDEST PUSH1 0x40 MLOAD DUP1 SWAP2 SUB SWAP1 RETURN JUMPDEST CALLVALUE DUP1 ISZERO PUSH2 0xFE JUMPI PUSH1 0x0 DUP1 REVERT JUMPDEST POP PUSH2 0x107 PUSH2 0x30A JUMP JUMPDEST PUSH1 0x40 MLOAD PUSH2 0x114 SWAP2 SWAP1 PUSH2 0xDDB JUMP JUMPDEST PUSH1 0x40 MLOAD DUP1 SWAP2 SUB SWAP1 RETURN JUMPDEST CALLVALUE DUP1 ISZERO PUSH2 0x129 JUMPI PUSH1 0x0 DUP1 REVERT JUMPDEST POP PUSH2 0x144 PUSH1 0x4 DUP1 CALLDATASIZE SUB DUP2 ADD SWAP1 PUSH2 0x13F SWAP2 SWAP1 PUSH2 0xF8F JUMP JUMPDEST PUSH2 0x321 JUMP JUMPDEST STOP JUMPDEST PUSH2 0x14E PUSH2 0x3E1 JUMP JUMPDEST STOP JUMPDEST CALLVALUE DUP1 ISZERO PUSH2 0x15C JUMPI PUSH1 0x0 DUP1 REVERT JUMPDEST POP PUSH2 0x177 PUSH1 0x4 DUP1 CALLDATASIZE SUB DUP2 ADD SWAP1 PUSH2 0x172 SWAP2 SWAP1 PUSH2 0x1046 JUMP JUMPDEST PUSH2 0x550 JUMP JUMPDEST STOP JUMPDEST CALLVALUE DUP1 ISZERO PUSH2 0x185 JUMPI PUSH1 0x0 DUP1 REVERT JUMPDEST POP PUSH2 0x18E PUSH2 0x767 JUMP JUMPDEST PUSH1 0x40 MLOAD PUSH2 0x19B SWAP2 SWAP1 PUSH2 0x10D4 JUMP JUMPDEST PUSH1 0x40 MLOAD DUP1 SWAP2 SUB SWAP1 RETURN JUMPDEST CALLVALUE DUP1 ISZERO PUSH2 0x1B0 JUMPI PUSH1 0x0 DUP1 REVERT JUMPDEST POP PUSH2 0x1CB PUSH1 0x4 DUP1 CALLDATASIZE SUB DUP2 ADD SWAP1 PUSH2 0x1C6 SWAP2 SWAP1 PUSH2 0x11A4 JUMP JUMPDEST PUSH2 0x791 JUMP JUMPDEST PUSH1 0x40 MLOAD PUSH2 0x1D9 SWAP3 SWAP2 SWAP1 PUSH2 0x1287 JUMP JUMPDEST PUSH1 0x40 MLOAD DUP1 SWAP2 SUB SWAP1 RETURN JUMPDEST CALLVALUE DUP1 ISZERO PUSH2 0x1EE JUMPI PUSH1 0x0 DUP1 REVERT JUMPDEST POP PUSH2 0x1F7 PUSH2 0x83D JUMP JUMPDEST STOP JUMPDEST CALLVALUE DUP1 ISZERO PUSH2 0x205 JUMPI PUSH1 0x0 DUP1 REVERT JUMPDEST POP PUSH2 0x20E PUSH2 0x8D6 JUMP JUMPDEST PUSH1 0x40 MLOAD PUSH2 0x21B SWAP2 SWAP1 PUSH2 0xD49 JUMP JUMPDEST PUSH1 0x40 MLOAD DUP1 SWAP2 SUB SWAP1 RETURN JUMPDEST CALLVALUE DUP1 ISZERO PUSH2 0x230 JUMPI PUSH1 0x0 DUP1 REVERT JUMPDEST POP PUSH2 0x239 PUSH2 0x8FE JUMP JUMPDEST PUSH1 0x40 MLOAD PUSH2 0x246 SWAP2 SWAP1 PUSH2 0xD49 JUMP JUMPDEST PUSH1 0x40 MLOAD DUP1 SWAP2 SUB SWAP1 RETURN JUMPDEST CALLVALUE DUP1 ISZERO PUSH2 0x25B JUMPI PUSH1 0x0 DUP1 REVERT JUMPDEST POP PUSH2 0x276 PUSH1 0x4 DUP1 CALLDATASIZE SUB DUP2 ADD SWAP1 PUSH2 0x271 SWAP2 SWAP1 PUSH2 0x12B7 JUMP JUMPDEST PUSH2 0x908 JUMP JUMPDEST PUSH1 0x40 MLOAD PUSH2 0x283 SWAP2 SWAP1 PUSH2 0x1305 JUMP JUMPDEST PUSH1 0x40 MLOAD DUP1 SWAP2 SUB SWAP1 RETURN JUMPDEST CALLVALUE DUP1 ISZERO PUSH2 0x298 JUMPI PUSH1 0x0 DUP1 REVERT JUMPDEST POP PUSH2 0x2A1 PUSH2 0x94F JUMP JUMPDEST PUSH1 0x40 MLOAD PUSH2 0x2AE SWAP2 SWAP1 PUSH2 0x13DE JUMP JUMPDEST PUSH1 0x40 MLOAD DUP1 SWAP2 SUB SWAP1 RETURN JUMPDEST CALLVALUE DUP1 ISZERO PUSH2 0x2C3 JUMPI PUSH1 0x0 DUP1 REVERT JUMPDEST POP PUSH2 0x2CC PUSH2 0x9DD JUMP JUMPDEST PUSH1 0x40 MLOAD PUSH2 0x2D9 SWAP2 SWAP1 PUSH2 0xD49 JUMP JUMPDEST PUSH1 0x40 MLOAD DUP1 SWAP2 SUB SWAP1 RETURN JUMPDEST PUSH1 0x0 PUSH32 0x0 SWAP1 POP SWAP1 JUMP JUMPDEST PUSH1 0x0 PUSH1 0x4 PUSH1 0x0 SWAP1 SLOAD SWAP1 PUSH2 0x100 EXP SWAP1 DIV PUSH1 0xFF AND SWAP1 POP SWAP1 JUMP JUMPDEST PUSH32 0x0 PUSH20 0xFFFFFFFFFFFFFFFFFFFFFFFFFFFFFFFFFFFFFFFF AND CALLER PUSH20 0xFFFFFFFFFFFFFFFFFFFFFFFFFFFFFFFFFFFFFFFF AND EQ PUSH2 0x3D3 JUMPI CALLER PUSH32 0x0 PUSH1 0x40 MLOAD PUSH32 0x1CF993F400000000000000000000000000000000000000000000000000000000 DUP2 MSTORE PUSH1 0x4 ADD PUSH2 0x3CA SWAP3 SWAP2 SWAP1 PUSH2 0x1400 JUMP JUMPDEST PUSH1 0x40 MLOAD DUP1 SWAP2 SUB SWAP1 REVERT JUMPDEST PUSH2 0x3DD DUP3 DUP3 PUSH2 0x9E9 JUMP JUMPDEST POP POP JUMP JUMPDEST PUSH1 0x0 PUSH1 0x1 DUP2 GT ISZERO PUSH2 0x3F5 JUMPI PUSH2 0x3F4 PUSH2 0xD64 JUMP JUMPDEST JUMPDEST PUSH1 0x4 PUSH1 0x0 SWAP1 SLOAD SWAP1 PUSH2 0x100 EXP SWAP1 DIV PUSH1 0xFF AND PUSH1 0x1 DUP2 GT ISZERO PUSH2 0x417 JUMPI PUSH2 0x416 PUSH2 0xD64 JUMP JUMPDEST JUMPDEST EQ PUSH2 0x44E JUMPI PUSH1 0x40 MLOAD PUSH32 0x286C89DD00000000000000000000000000000000000000000000000000000000 DUP2 MSTORE PUSH1 0x4 ADD PUSH1 0x40 MLOAD DUP1 SWAP2 SUB SWAP1 REVERT JUMPDEST PUSH32 0x0 CALLVALUE LT ISZERO PUSH2 0x4A8 JUMPI PUSH1 0x40 MLOAD PUSH32 0x3038C00A00000000000000000000000000000000000000000000000000000000 DUP2 MSTORE PUSH1 0x4 ADD PUSH1 0x40 MLOAD DUP1 SWAP2 SUB SWAP1 REVERT JUMPDEST PUSH1 0x0 CALLER SWAP1 DUP1 PUSH1 0x1 DUP2 SLOAD ADD DUP1 DUP3 SSTORE DUP1 SWAP2 POP POP PUSH1 0x1 SWAP1 SUB SWAP1 PUSH1 0x0 MSTORE PUSH1 0x20 PUSH1 0x0 KECCAK256 ADD PUSH1 0x0 SWAP1 SWAP2 SWAP1 SWAP2 SWAP1 SWAP2 PUSH2 0x100 EXP DUP2 SLOAD DUP2 PUSH20 0xFFFFFFFFFFFFFFFFFFFFFFFFFFFFFFFFFFFFFFFF MUL NOT AND SWAP1 DUP4 PUSH20 0xFFFFFFFFFFFFFFFFFFFFFFFFFFFFFFFFFFFFFFFF AND MUL OR SWAP1 SSTORE POP CALLER PUSH20 0xFFFFFFFFFFFFFFFFFFFFFFFFFFFFFFFFFFFFFFFF AND PUSH32 0x742D070BF0F3EDACE132A9DA8BA725E8CF99C478869CEE7F673ED6085E2F8E64 PUSH1 0x40 MLOAD PUSH1 0x40 MLOAD DUP1 SWAP2 SUB SWAP1 LOG2 JUMP JUMPDEST PUSH1 0x0 PUSH2 0x590 PUSH1 0x40 MLOAD DUP1 PUSH1 0x40 ADD PUSH1 0x40 MSTORE DUP1 PUSH1 0x2 DUP2 MSTORE PUSH1 0x20 ADD PUSH32 0x3078000000000000000000000000000000000000000000000000000000000000 DUP2 MSTORE POP PUSH2 0x791 JUMP JUMPDEST POP SWAP1 POP DUP1 PUSH2 0x5FF JUMPI SELFBALANCE PUSH1 0x0 DUP1 SLOAD SWAP1 POP PUSH1 0x4 PUSH1 0x0 SWAP1 SLOAD SWAP1 PUSH2 0x100 EXP SWAP1 DIV PUSH1 0xFF AND PUSH1 0x1 DUP2 GT ISZERO PUSH2 0x5C1 JUMPI PUSH2 0x5C0 PUSH2 0xD64 JUMP JUMPDEST JUMPDEST PUSH1 0x40 MLOAD PUSH32 0x5711A40300000000000000000000000000000000000000000000000000000000 DUP2 MSTORE PUSH1 0x4 ADD PUSH2 0x5F6 SWAP4 SWAP3 SWAP2 SWAP1 PUSH2 0x1429 JUMP JUMPDEST PUSH1 0x40 MLOAD DUP1 SWAP2 SUB SWAP1 REVERT JUMPDEST PUSH1 0x1 PUSH1 0x4 PUSH1 0x0 PUSH2 0x100 EXP DUP2 SLOAD DUP2 PUSH1 0xFF MUL NOT AND SWAP1 DUP4 PUSH1 0x1 DUP2 GT ISZERO PUSH2 0x625 JUMPI PUSH2 0x624 PUSH2 0xD64 JUMP JUMPDEST JUMPDEST MUL OR SWAP1 SSTORE POP PUSH1 0x0 PUSH32 0x0 PUSH20 0xFFFFFFFFFFFFFFFFFFFFFFFFFFFFFFFFFFFFFFFF AND PUSH4 0x5D3B1D30 PUSH32 0x0 PUSH32 0x0 PUSH1 0x3 PUSH32 0x0 PUSH1 0x1 PUSH1 0x40 MLOAD DUP7 PUSH4 0xFFFFFFFF AND PUSH1 0xE0 SHL DUP2 MSTORE PUSH1 0x4 ADD PUSH2 0x6EF SWAP6 SWAP5 SWAP4 SWAP3 SWAP2 SWAP1 PUSH2 0x14D8 JUMP JUMPDEST PUSH1 0x20 PUSH1 0x40 MLOAD DUP1 DUP4 SUB DUP2 PUSH1 0x0 DUP8 GAS CALL ISZERO DUP1 ISZERO PUSH2 0x70E JUMPI RETURNDATASIZE PUSH1 0x0 DUP1 RETURNDATACOPY RETURNDATASIZE PUSH1 0x0 REVERT JUMPDEST POP POP POP POP PUSH1 0x40 MLOAD RETURNDATASIZE PUSH1 0x1F NOT PUSH1 0x1F DUP3 ADD AND DUP3 ADD DUP1 PUSH1 0x40 MSTORE POP DUP2 ADD SWAP1 PUSH2 0x732 SWAP2 SWAP1 PUSH2 0x1540 JUMP JUMPDEST SWAP1 POP DUP1 PUSH32 0xC3D0C9FBC1987665462EEC0262EB7FC743A27D411FD3A0B9C20C1C64D99347D3 PUSH1 0x40 MLOAD PUSH1 0x40 MLOAD DUP1 SWAP2 SUB SWAP1 LOG2 POP POP POP POP JUMP JUMPDEST PUSH1 0x0 PUSH1 0x1 PUSH1 0x0 SWAP1 SLOAD SWAP1 PUSH2 0x100 EXP SWAP1 DIV PUSH20 0xFFFFFFFFFFFFFFFFFFFFFFFFFFFFFFFFFFFFFFFF AND SWAP1 POP SWAP1 JUMP JUMPDEST PUSH1 0x0 PUSH1 0x60 PUSH1 0x0 DUP1 PUSH1 0x1 DUP2 GT ISZERO PUSH2 0x7AA JUMPI PUSH2 0x7A9 PUSH2 0xD64 JUMP JUMPDEST JUMPDEST PUSH1 0x4 PUSH1 0x0 SWAP1 SLOAD SWAP1 PUSH2 0x100 EXP SWAP1 DIV PUSH1 0xFF AND PUSH1 0x1 DUP2 GT ISZERO PUSH2 0x7CC JUMPI PUSH2 0x7CB PUSH2 0xD64 JUMP JUMPDEST JUMPDEST EQ SWAP1 POP PUSH1 0x0 PUSH32 0x0 PUSH1 0x3 SLOAD TIMESTAMP PUSH2 0x800 SWAP2 SWAP1 PUSH2 0x159C JUMP JUMPDEST GT SWAP1 POP PUSH1 0x0 DUP1 PUSH1 0x0 DUP1 SLOAD SWAP1 POP GT SWAP1 POP PUSH1 0x0 DUP1 SELFBALANCE GT SWAP1 POP DUP4 DUP1 ISZERO PUSH2 0x820 JUMPI POP DUP3 JUMPDEST DUP1 ISZERO PUSH2 0x829 JUMPI POP DUP2 JUMPDEST DUP1 ISZERO PUSH2 0x832 JUMPI POP DUP1 JUMPDEST SWAP6 POP POP POP POP POP SWAP2 POP SWAP2 JUMP JUMPDEST PUSH1 0x0 PUSH1 0x1 DUP2 GT ISZERO PUSH2 0x851 JUMPI PUSH2 0x850 PUSH2 0xD64 JUMP JUMPDEST JUMPDEST PUSH1 0x4 PUSH1 0x0 SWAP1 SLOAD SWAP1 PUSH2 0x100 EXP SWAP1 DIV PUSH1 0xFF AND PUSH1 0x1 DUP2 GT ISZERO PUSH2 0x873 JUMPI PUSH2 0x872 PUSH2 0xD64 JUMP JUMPDEST JUMPDEST SUB PUSH2 0x8A8 JUMPI PUSH1 0x1 PUSH1 0x4 PUSH1 0x0 PUSH2 0x100 EXP DUP2 SLOAD DUP2 PUSH1 0xFF MUL NOT AND SWAP1 DUP4 PUSH1 0x1 DUP2 GT ISZERO PUSH2 0x89E JUMPI PUSH2 0x89D PUSH2 0xD64 JUMP JUMPDEST JUMPDEST MUL OR SWAP1 SSTORE POP PUSH2 0x8D4 JUMP JUMPDEST PUSH1 0x0 PUSH1 0x4 PUSH1 0x0 PUSH2 0x100 EXP DUP2 SLOAD DUP2 PUSH1 0xFF MUL NOT AND SWAP1 DUP4 PUSH1 0x1 DUP2 GT ISZERO PUSH2 0x8CE JUMPI PUSH2 0x8CD PUSH2 0xD64 JUMP JUMPDEST JUMPDEST MUL OR SWAP1 SSTORE POP JUMPDEST JUMP JUMPDEST PUSH1 0x0 PUSH32 0x0 SWAP1 POP SWAP1 JUMP JUMPDEST PUSH1 0x0 PUSH1 0x3 SLOAD SWAP1 POP SWAP1 JUMP JUMPDEST PUSH1 0x0 DUP1 DUP3 DUP2 SLOAD DUP2 LT PUSH2 0x91D JUMPI PUSH2 0x91C PUSH2 0x15D0 JUMP JUMPDEST JUMPDEST SWAP1 PUSH1 0x0 MSTORE PUSH1 0x20 PUSH1 0x0 KECCAK256 ADD PUSH1 0x0 SWAP1 SLOAD SWAP1 PUSH2 0x100 EXP SWAP1 DIV PUSH20 0xFFFFFFFFFFFFFFFFFFFFFFFFFFFFFFFFFFFFFFFF AND SWAP1 POP SWAP2 SWAP1 POP JUMP JUMPDEST PUSH1 0x60 PUSH1 0x0 DUP1 SLOAD DUP1 PUSH1 0x20 MUL PUSH1 0x20 ADD PUSH1 0x40 MLOAD SWAP1 DUP2 ADD PUSH1 0x40 MSTORE DUP1 SWAP3 SWAP2 SWAP1 DUP2 DUP2 MSTORE PUSH1 0x20 ADD DUP3 DUP1 SLOAD DUP1 ISZERO PUSH2 0x9D3 JUMPI PUSH1 0x20 MUL DUP3 ADD SWAP2 SWAP1 PUSH1 0x0 MSTORE PUSH1 0x20 PUSH1 0x0 KECCAK256 SWAP1 JUMPDEST DUP2 PUSH1 0x0 SWAP1 SLOAD SWAP1 PUSH2 0x100 EXP SWAP1 DIV PUSH20 0xFFFFFFFFFFFFFFFFFFFFFFFFFFFFFFFFFFFFFFFF AND PUSH20 0xFFFFFFFFFFFFFFFFFFFFFFFFFFFFFFFFFFFFFFFF AND DUP2 MSTORE PUSH1 0x20 ADD SWAP1 PUSH1 0x1 ADD SWAP1 DUP1 DUP4 GT PUSH2 0x989 JUMPI JUMPDEST POP POP POP POP POP SWAP1 POP SWAP1 JUMP JUMPDEST PUSH1 0x0 DUP1 DUP1 SLOAD SWAP1 POP SWAP1 POP SWAP1 JUMP JUMPDEST PUSH1 0x1 PUSH1 0x4 PUSH1 0x0 PUSH2 0x100 EXP DUP2 SLOAD DUP2 PUSH1 0xFF MUL NOT AND SWAP1 DUP4 PUSH1 0x1 DUP2 GT ISZERO PUSH2 0xA0F JUMPI PUSH2 0xA0E PUSH2 0xD64 JUMP JUMPDEST JUMPDEST MUL OR SWAP1 SSTORE POP PUSH1 0x0 DUP1 DUP1 SLOAD SWAP1 POP DUP3 PUSH1 0x0 DUP2 MLOAD DUP2 LT PUSH2 0xA2F JUMPI PUSH2 0xA2E PUSH2 0x15D0 JUMP JUMPDEST JUMPDEST PUSH1 0x20 MUL PUSH1 0x20 ADD ADD MLOAD PUSH2 0xA41 SWAP2 SWAP1 PUSH2 0x162E JUMP JUMPDEST SWAP1 POP PUSH1 0x0 DUP1 DUP3 DUP2 SLOAD DUP2 LT PUSH2 0xA58 JUMPI PUSH2 0xA57 PUSH2 0x15D0 JUMP JUMPDEST JUMPDEST SWAP1 PUSH1 0x0 MSTORE PUSH1 0x20 PUSH1 0x0 KECCAK256 ADD PUSH1 0x0 SWAP1 SLOAD SWAP1 PUSH2 0x100 EXP SWAP1 DIV PUSH20 0xFFFFFFFFFFFFFFFFFFFFFFFFFFFFFFFFFFFFFFFF AND SWAP1 POP DUP1 PUSH1 0x1 PUSH1 0x0 PUSH2 0x100 EXP DUP2 SLOAD DUP2 PUSH20 0xFFFFFFFFFFFFFFFFFFFFFFFFFFFFFFFFFFFFFFFF MUL NOT AND SWAP1 DUP4 PUSH20 0xFFFFFFFFFFFFFFFFFFFFFFFFFFFFFFFFFFFFFFFF AND MUL OR SWAP1 SSTORE POP PUSH1 0x0 PUSH1 0x4 PUSH1 0x0 PUSH2 0x100 EXP DUP2 SLOAD DUP2 PUSH1 0xFF MUL NOT AND SWAP1 DUP4 PUSH1 0x1 DUP2 GT ISZERO PUSH2 0xAEC JUMPI PUSH2 0xAEB PUSH2 0xD64 JUMP JUMPDEST JUMPDEST MUL OR SWAP1 SSTORE POP PUSH1 0x0 PUSH8 0xFFFFFFFFFFFFFFFF DUP2 GT ISZERO PUSH2 0xB0C JUMPI PUSH2 0xB0B PUSH2 0xE4C JUMP JUMPDEST JUMPDEST PUSH1 0x40 MLOAD SWAP1 DUP1 DUP3 MSTORE DUP1 PUSH1 0x20 MUL PUSH1 0x20 ADD DUP3 ADD PUSH1 0x40 MSTORE DUP1 ISZERO PUSH2 0xB3A JUMPI DUP2 PUSH1 0x20 ADD PUSH1 0x20 DUP3 MUL DUP1 CALLDATASIZE DUP4 CALLDATACOPY DUP1 DUP3 ADD SWAP2 POP POP SWAP1 POP JUMPDEST POP PUSH1 0x0 SWAP1 DUP1 MLOAD SWAP1 PUSH1 0x20 ADD SWAP1 PUSH2 0xB50 SWAP3 SWAP2 SWAP1 PUSH2 0xC89 JUMP JUMPDEST POP TIMESTAMP PUSH1 0x3 DUP2 SWAP1 SSTORE POP PUSH1 0x0 PUSH1 0x1 PUSH1 0x0 SWAP1 SLOAD SWAP1 PUSH2 0x100 EXP SWAP1 DIV PUSH20 0xFFFFFFFFFFFFFFFFFFFFFFFFFFFFFFFFFFFFFFFF AND PUSH20 0xFFFFFFFFFFFFFFFFFFFFFFFFFFFFFFFFFFFFFFFF AND SELFBALANCE PUSH1 0x40 MLOAD PUSH2 0xBA0 SWAP1 PUSH2 0x1690 JUMP JUMPDEST PUSH1 0x0 PUSH1 0x40 MLOAD DUP1 DUP4 SUB DUP2 DUP6 DUP8 GAS CALL SWAP3 POP POP POP RETURNDATASIZE DUP1 PUSH1 0x0 DUP2 EQ PUSH2 0xBDD JUMPI PUSH1 0x40 MLOAD SWAP2 POP PUSH1 0x1F NOT PUSH1 0x3F RETURNDATASIZE ADD AND DUP3 ADD PUSH1 0x40 MSTORE RETURNDATASIZE DUP3 MSTORE RETURNDATASIZE PUSH1 0x0 PUSH1 0x20 DUP5 ADD RETURNDATACOPY PUSH2 0xBE2 JUMP JUMPDEST PUSH1 0x60 SWAP2 POP JUMPDEST POP POP SWAP1 POP DUP1 PUSH2 0xC1D JUMPI PUSH1 0x40 MLOAD PUSH32 0x5714DF0A00000000000000000000000000000000000000000000000000000000 DUP2 MSTORE PUSH1 0x4 ADD PUSH1 0x40 MLOAD DUP1 SWAP2 SUB SWAP1 REVERT JUMPDEST PUSH1 0x1 PUSH1 0x0 SWAP1 SLOAD SWAP1 PUSH2 0x100 EXP SWAP1 DIV PUSH20 0xFFFFFFFFFFFFFFFFFFFFFFFFFFFFFFFFFFFFFFFF AND PUSH20 0xFFFFFFFFFFFFFFFFFFFFFFFFFFFFFFFFFFFFFFFF AND PUSH32 0x794919B0F484B8E90B1B817AC7F880F846FBD8A9813DEE2A378E820DB094E3D1 PUSH1 0x40 MLOAD PUSH1 0x40 MLOAD DUP1 SWAP2 SUB SWAP1 LOG2 POP POP POP POP POP JUMP JUMPDEST DUP3 DUP1 SLOAD DUP3 DUP3 SSTORE SWAP1 PUSH1 0x0 MSTORE PUSH1 0x20 PUSH1 0x0 KECCAK256 SWAP1 DUP2 ADD SWAP3 DUP3 ISZERO PUSH2 0xD02 JUMPI SWAP2 PUSH1 0x20 MUL DUP3 ADD JUMPDEST DUP3 DUP2 GT ISZERO PUSH2 0xD01 JUMPI DUP3 MLOAD DUP3 PUSH1 0x0 PUSH2 0x100 EXP DUP2 SLOAD DUP2 PUSH20 0xFFFFFFFFFFFFFFFFFFFFFFFFFFFFFFFFFFFFFFFF MUL NOT AND SWAP1 DUP4 PUSH20 0xFFFFFFFFFFFFFFFFFFFFFFFFFFFFFFFFFFFFFFFF AND MUL OR SWAP1 SSTORE POP SWAP2 PUSH1 0x20 ADD SWAP2 SWAP1 PUSH1 0x1 ADD SWAP1 PUSH2 0xCA9 JUMP JUMPDEST JUMPDEST POP SWAP1 POP PUSH2 0xD0F SWAP2 SWAP1 PUSH2 0xD13 JUMP JUMPDEST POP SWAP1 JUMP JUMPDEST JUMPDEST DUP1 DUP3 GT ISZERO PUSH2 0xD2C JUMPI PUSH1 0x0 DUP2 PUSH1 0x0 SWAP1 SSTORE POP PUSH1 0x1 ADD PUSH2 0xD14 JUMP JUMPDEST POP SWAP1 JUMP JUMPDEST PUSH1 0x0 DUP2 SWAP1 POP SWAP2 SWAP1 POP JUMP JUMPDEST PUSH2 0xD43 DUP2 PUSH2 0xD30 JUMP JUMPDEST DUP3 MSTORE POP POP JUMP JUMPDEST PUSH1 0x0 PUSH1 0x20 DUP3 ADD SWAP1 POP PUSH2 0xD5E PUSH1 0x0 DUP4 ADD DUP5 PUSH2 0xD3A JUMP JUMPDEST SWAP3 SWAP2 POP POP JUMP JUMPDEST PUSH32 0x4E487B7100000000000000000000000000000000000000000000000000000000 PUSH1 0x0 MSTORE PUSH1 0x21 PUSH1 0x4 MSTORE PUSH1 0x24 PUSH1 0x0 REVERT JUMPDEST PUSH1 0x2 DUP2 LT PUSH2 0xDA4 JUMPI PUSH2 0xDA3 PUSH2 0xD64 JUMP JUMPDEST JUMPDEST POP JUMP JUMPDEST PUSH1 0x0 DUP2 SWAP1 POP PUSH2 0xDB5 DUP3 PUSH2 0xD93 JUMP JUMPDEST SWAP2 SWAP1 POP JUMP JUMPDEST PUSH1 0x0 PUSH2 0xDC5 DUP3 PUSH2 0xDA7 JUMP JUMPDEST SWAP1 POP SWAP2 SWAP1 POP JUMP JUMPDEST PUSH2 0xDD5 DUP2 PUSH2 0xDBA JUMP JUMPDEST DUP3 MSTORE POP POP JUMP JUMPDEST PUSH1 0x0 PUSH1 0x20 DUP3 ADD SWAP1 POP PUSH2 0xDF0 PUSH1 0x0 DUP4 ADD DUP5 PUSH2 0xDCC JUMP JUMPDEST SWAP3 SWAP2 POP POP JUMP JUMPDEST PUSH1 0x0 PUSH1 0x40 MLOAD SWAP1 POP SWAP1 JUMP JUMPDEST PUSH1 0x0 DUP1 REVERT JUMPDEST PUSH1 0x0 DUP1 REVERT JUMPDEST PUSH2 0xE13 DUP2 PUSH2 0xD30 JUMP JUMPDEST DUP2 EQ PUSH2 0xE1E JUMPI PUSH1 0x0 DUP1 REVERT JUMPDEST POP JUMP JUMPDEST PUSH1 0x0 DUP2 CALLDATALOAD SWAP1 POP PUSH2 0xE30 DUP2 PUSH2 0xE0A JUMP JUMPDEST SWAP3 SWAP2 POP POP JUMP JUMPDEST PUSH1 0x0 DUP1 REVERT JUMPDEST PUSH1 0x0 PUSH1 0x1F NOT PUSH1 0x1F DUP4 ADD AND SWAP1 POP SWAP2 SWAP1 POP JUMP JUMPDEST PUSH32 0x4E487B7100000000000000000000000000000000000000000000000000000000 PUSH1 0x0 MSTORE PUSH1 0x41 PUSH1 0x4 MSTORE PUSH1 0x24 PUSH1 0x0 REVERT JUMPDEST PUSH2 0xE84 DUP3 PUSH2 0xE3B JUMP JUMPDEST DUP2 ADD DUP2 DUP2 LT PUSH8 0xFFFFFFFFFFFFFFFF DUP3 GT OR ISZERO PUSH2 0xEA3 JUMPI PUSH2 0xEA2 PUSH2 0xE4C JUMP JUMPDEST JUMPDEST DUP1 PUSH1 0x40 MSTORE POP POP POP JUMP JUMPDEST PUSH1 0x0 PUSH2 0xEB6 PUSH2 0xDF6 JUMP JUMPDEST SWAP1 POP PUSH2 0xEC2 DUP3 DUP3 PUSH2 0xE7B JUMP JUMPDEST SWAP2 SWAP1 POP JUMP JUMPDEST PUSH1 0x0 PUSH8 0xFFFFFFFFFFFFFFFF DUP3 GT ISZERO PUSH2 0xEE2 JUMPI PUSH2 0xEE1 PUSH2 0xE4C JUMP JUMPDEST JUMPDEST PUSH1 0x20 DUP3 MUL SWAP1 POP PUSH1 0x20 DUP2 ADD SWAP1 POP SWAP2 SWAP1 POP JUMP JUMPDEST PUSH1 0x0 DUP1 REVERT JUMPDEST PUSH1 0x0 PUSH2 0xF0B PUSH2 0xF06 DUP5 PUSH2 0xEC7 JUMP JUMPDEST PUSH2 0xEAC JUMP JUMPDEST SWAP1 POP DUP1 DUP4 DUP3 MSTORE PUSH1 0x20 DUP3 ADD SWAP1 POP PUSH1 0x20 DUP5 MUL DUP4 ADD DUP6 DUP2 GT ISZERO PUSH2 0xF2E JUMPI PUSH2 0xF2D PUSH2 0xEF3 JUMP JUMPDEST JUMPDEST DUP4 JUMPDEST DUP2 DUP2 LT ISZERO PUSH2 0xF57 JUMPI DUP1 PUSH2 0xF43 DUP9 DUP3 PUSH2 0xE21 JUMP JUMPDEST DUP5 MSTORE PUSH1 0x20 DUP5 ADD SWAP4 POP POP PUSH1 0x20 DUP2 ADD SWAP1 POP PUSH2 0xF30 JUMP JUMPDEST POP POP POP SWAP4 SWAP3 POP POP POP JUMP JUMPDEST PUSH1 0x0 DUP3 PUSH1 0x1F DUP4 ADD SLT PUSH2 0xF76 JUMPI PUSH2 0xF75 PUSH2 0xE36 JUMP JUMPDEST JUMPDEST DUP2 CALLDATALOAD PUSH2 0xF86 DUP5 DUP3 PUSH1 0x20 DUP7 ADD PUSH2 0xEF8 JUMP JUMPDEST SWAP2 POP POP SWAP3 SWAP2 POP POP JUMP JUMPDEST PUSH1 0x0 DUP1 PUSH1 0x40 DUP4 DUP6 SUB SLT ISZERO PUSH2 0xFA6 JUMPI PUSH2 0xFA5 PUSH2 0xE00 JUMP JUMPDEST JUMPDEST PUSH1 0x0 PUSH2 0xFB4 DUP6 DUP3 DUP7 ADD PUSH2 0xE21 JUMP JUMPDEST SWAP3 POP POP PUSH1 0x20 DUP4 ADD CALLDATALOAD PUSH8 0xFFFFFFFFFFFFFFFF DUP2 GT ISZERO PUSH2 0xFD5 JUMPI PUSH2 0xFD4 PUSH2 0xE05 JUMP JUMPDEST JUMPDEST PUSH2 0xFE1 DUP6 DUP3 DUP7 ADD PUSH2 0xF61 JUMP JUMPDEST SWAP2 POP POP SWAP3 POP SWAP3 SWAP1 POP JUMP JUMPDEST PUSH1 0x0 DUP1 REVERT JUMPDEST PUSH1 0x0 DUP1 DUP4 PUSH1 0x1F DUP5 ADD SLT PUSH2 0x1006 JUMPI PUSH2 0x1005 PUSH2 0xE36 JUMP JUMPDEST JUMPDEST DUP3 CALLDATALOAD SWAP1 POP PUSH8 0xFFFFFFFFFFFFFFFF DUP2 GT ISZERO PUSH2 0x1023 JUMPI PUSH2 0x1022 PUSH2 0xFEB JUMP JUMPDEST JUMPDEST PUSH1 0x20 DUP4 ADD SWAP2 POP DUP4 PUSH1 0x1 DUP3 MUL DUP4 ADD GT ISZERO PUSH2 0x103F JUMPI PUSH2 0x103E PUSH2 0xEF3 JUMP JUMPDEST JUMPDEST SWAP3 POP SWAP3 SWAP1 POP JUMP JUMPDEST PUSH1 0x0 DUP1 PUSH1 0x20 DUP4 DUP6 SUB SLT ISZERO PUSH2 0x105D JUMPI PUSH2 0x105C PUSH2 0xE00 JUMP JUMPDEST JUMPDEST PUSH1 0x0 DUP4 ADD CALLDATALOAD PUSH8 0xFFFFFFFFFFFFFFFF DUP2 GT ISZERO PUSH2 0x107B JUMPI PUSH2 0x107A PUSH2 0xE05 JUMP JUMPDEST JUMPDEST PUSH2 0x1087 DUP6 DUP3 DUP7 ADD PUSH2 0xFF0 JUMP JUMPDEST SWAP3 POP SWAP3 POP POP SWAP3 POP SWAP3 SWAP1 POP JUMP JUMPDEST PUSH1 0x0 PUSH20 0xFFFFFFFFFFFFFFFFFFFFFFFFFFFFFFFFFFFFFFFF DUP3 AND SWAP1 POP SWAP2 SWAP1 POP JUMP JUMPDEST PUSH1 0x0 PUSH2 0x10BE DUP3 PUSH2 0x1093 JUMP JUMPDEST SWAP1 POP SWAP2 SWAP1 POP JUMP JUMPDEST PUSH2 0x10CE DUP2 PUSH2 0x10B3 JUMP JUMPDEST DUP3 MSTORE POP POP JUMP JUMPDEST PUSH1 0x0 PUSH1 0x20 DUP3 ADD SWAP1 POP PUSH2 0x10E9 PUSH1 0x0 DUP4 ADD DUP5 PUSH2 0x10C5 JUMP JUMPDEST SWAP3 SWAP2 POP POP JUMP JUMPDEST PUSH1 0x0 DUP1 REVERT JUMPDEST PUSH1 0x0 PUSH8 0xFFFFFFFFFFFFFFFF DUP3 GT ISZERO PUSH2 0x110F JUMPI PUSH2 0x110E PUSH2 0xE4C JUMP JUMPDEST JUMPDEST PUSH2 0x1118 DUP3 PUSH2 0xE3B JUMP JUMPDEST SWAP1 POP PUSH1 0x20 DUP2 ADD SWAP1 POP SWAP2 SWAP1 POP JUMP JUMPDEST DUP3 DUP2 DUP4 CALLDATACOPY PUSH1 0x0 DUP4 DUP4 ADD MSTORE POP POP POP JUMP JUMPDEST PUSH1 0x0 PUSH2 0x1147 PUSH2 0x1142 DUP5 PUSH2 0x10F4 JUMP JUMPDEST PUSH2 0xEAC JUMP JUMPDEST SWAP1 POP DUP3 DUP2 MSTORE PUSH1 0x20 DUP2 ADD DUP5 DUP5 DUP5 ADD GT ISZERO PUSH2 0x1163 JUMPI PUSH2 0x1162 PUSH2 0x10EF JUMP JUMPDEST JUMPDEST PUSH2 0x116E DUP5 DUP3 DUP6 PUSH2 0x1125 JUMP JUMPDEST POP SWAP4 SWAP3 POP POP POP JUMP JUMPDEST PUSH1 0x0 DUP3 PUSH1 0x1F DUP4 ADD SLT PUSH2 0x118B JUMPI PUSH2 0x118A PUSH2 0xE36 JUMP JUMPDEST JUMPDEST DUP2 CALLDATALOAD PUSH2 0x119B DUP5 DUP3 PUSH1 0x20 DUP7 ADD PUSH2 0x1134 JUMP JUMPDEST SWAP2 POP POP SWAP3 SWAP2 POP POP JUMP JUMPDEST PUSH1 0x0 PUSH1 0x20 DUP3 DUP5 SUB SLT ISZERO PUSH2 0x11BA JUMPI PUSH2 0x11B9 PUSH2 0xE00 JUMP JUMPDEST JUMPDEST PUSH1 0x0 DUP3 ADD CALLDATALOAD PUSH8 0xFFFFFFFFFFFFFFFF DUP2 GT ISZERO PUSH2 0x11D8 JUMPI PUSH2 0x11D7 PUSH2 0xE05 JUMP JUMPDEST JUMPDEST PUSH2 0x11E4 DUP5 DUP3 DUP6 ADD PUSH2 0x1176 JUMP JUMPDEST SWAP2 POP POP SWAP3 SWAP2 POP POP JUMP JUMPDEST PUSH1 0x0 DUP2 ISZERO ISZERO SWAP1 POP SWAP2 SWAP1 POP JUMP JUMPDEST PUSH2 0x1202 DUP2 PUSH2 0x11ED JUMP JUMPDEST DUP3 MSTORE POP POP JUMP JUMPDEST PUSH1 0x0 DUP2 MLOAD SWAP1 POP SWAP2 SWAP1 POP JUMP JUMPDEST PUSH1 0x0 DUP3 DUP3 MSTORE PUSH1 0x20 DUP3 ADD SWAP1 POP SWAP3 SWAP2 POP POP JUMP JUMPDEST PUSH1 0x0 JUMPDEST DUP4 DUP2 LT ISZERO PUSH2 0x1242 JUMPI DUP1 DUP3 ADD MLOAD DUP2 DUP5 ADD MSTORE PUSH1 0x20 DUP2 ADD SWAP1 POP PUSH2 0x1227 JUMP JUMPDEST PUSH1 0x0 DUP5 DUP5 ADD MSTORE POP POP POP POP JUMP JUMPDEST PUSH1 0x0 PUSH2 0x1259 DUP3 PUSH2 0x1208 JUMP JUMPDEST PUSH2 0x1263 DUP2 DUP6 PUSH2 0x1213 JUMP JUMPDEST SWAP4 POP PUSH2 0x1273 DUP2 DUP6 PUSH1 0x20 DUP7 ADD PUSH2 0x1224 JUMP JUMPDEST PUSH2 0x127C DUP2 PUSH2 0xE3B JUMP JUMPDEST DUP5 ADD SWAP2 POP POP SWAP3 SWAP2 POP POP JUMP JUMPDEST PUSH1 0x0 PUSH1 0x40 DUP3 ADD SWAP1 POP PUSH2 0x129C PUSH1 0x0 DUP4 ADD DUP6 PUSH2 0x11F9 JUMP JUMPDEST DUP2 DUP2 SUB PUSH1 0x20 DUP4 ADD MSTORE PUSH2 0x12AE DUP2 DUP5 PUSH2 0x124E JUMP JUMPDEST SWAP1 POP SWAP4 SWAP3 POP POP POP JUMP JUMPDEST PUSH1 0x0 PUSH1 0x20 DUP3 DUP5 SUB SLT ISZERO PUSH2 0x12CD JUMPI PUSH2 0x12CC PUSH2 0xE00 JUMP JUMPDEST JUMPDEST PUSH1 0x0 PUSH2 0x12DB DUP5 DUP3 DUP6 ADD PUSH2 0xE21 JUMP JUMPDEST SWAP2 POP POP SWAP3 SWAP2 POP POP JUMP JUMPDEST PUSH1 0x0 PUSH2 0x12EF DUP3 PUSH2 0x1093 JUMP JUMPDEST SWAP1 POP SWAP2 SWAP1 POP JUMP JUMPDEST PUSH2 0x12FF DUP2 PUSH2 0x12E4 JUMP JUMPDEST DUP3 MSTORE POP POP JUMP JUMPDEST PUSH1 0x0 PUSH1 0x20 DUP3 ADD SWAP1 POP PUSH2 0x131A PUSH1 0x0 DUP4 ADD DUP5 PUSH2 0x12F6 JUMP JUMPDEST SWAP3 SWAP2 POP POP JUMP JUMPDEST PUSH1 0x0 DUP2 MLOAD SWAP1 POP SWAP2 SWAP1 POP JUMP JUMPDEST PUSH1 0x0 DUP3 DUP3 MSTORE PUSH1 0x20 DUP3 ADD SWAP1 POP SWAP3 SWAP2 POP POP JUMP JUMPDEST PUSH1 0x0 DUP2 SWAP1 POP PUSH1 0x20 DUP3 ADD SWAP1 POP SWAP2 SWAP1 POP JUMP JUMPDEST PUSH2 0x1355 DUP2 PUSH2 0x12E4 JUMP JUMPDEST DUP3 MSTORE POP POP JUMP JUMPDEST PUSH1 0x0 PUSH2 0x1367 DUP4 DUP4 PUSH2 0x134C JUMP JUMPDEST PUSH1 0x20 DUP4 ADD SWAP1 POP SWAP3 SWAP2 POP POP JUMP JUMPDEST PUSH1 0x0 PUSH1 0x20 DUP3 ADD SWAP1 POP SWAP2 SWAP1 POP JUMP JUMPDEST PUSH1 0x0 PUSH2 0x138B DUP3 PUSH2 0x1320 JUMP JUMPDEST PUSH2 0x1395 DUP2 DUP6 PUSH2 0x132B JUMP JUMPDEST SWAP4 POP PUSH2 0x13A0 DUP4 PUSH2 0x133C JUMP JUMPDEST DUP1 PUSH1 0x0 JUMPDEST DUP4 DUP2 LT ISZERO PUSH2 0x13D1 JUMPI DUP2 MLOAD PUSH2 0x13B8 DUP9 DUP3 PUSH2 0x135B JUMP JUMPDEST SWAP8 POP PUSH2 0x13C3 DUP4 PUSH2 0x1373 JUMP JUMPDEST SWAP3 POP POP PUSH1 0x1 DUP2 ADD SWAP1 POP PUSH2 0x13A4 JUMP JUMPDEST POP DUP6 SWAP4 POP POP POP POP SWAP3 SWAP2 POP POP JUMP JUMPDEST PUSH1 0x0 PUSH1 0x20 DUP3 ADD SWAP1 POP DUP2 DUP2 SUB PUSH1 0x0 DUP4 ADD MSTORE PUSH2 0x13F8 DUP2 DUP5 PUSH2 0x1380 JUMP JUMPDEST SWAP1 POP SWAP3 SWAP2 POP POP JUMP JUMPDEST PUSH1 0x0 PUSH1 0x40 DUP3 ADD SWAP1 POP PUSH2 0x1415 PUSH1 0x0 DUP4 ADD DUP6 PUSH2 0x10C5 JUMP JUMPDEST PUSH2 0x1422 PUSH1 0x20 DUP4 ADD DUP5 PUSH2 0x10C5 JUMP JUMPDEST SWAP4 SWAP3 POP POP POP JUMP JUMPDEST PUSH1 0x0 PUSH1 0x60 DUP3 ADD SWAP1 POP PUSH2 0x143E PUSH1 0x0 DUP4 ADD DUP7 PUSH2 0xD3A JUMP JUMPDEST PUSH2 0x144B PUSH1 0x20 DUP4 ADD DUP6 PUSH2 0xD3A JUMP JUMPDEST PUSH2 0x1458 PUSH1 0x40 DUP4 ADD DUP5 PUSH2 0xD3A JUMP JUMPDEST SWAP5 SWAP4 POP POP POP POP JUMP JUMPDEST PUSH1 0x0 DUP2 SWAP1 POP SWAP2 SWAP1 POP JUMP JUMPDEST PUSH2 0x1473 DUP2 PUSH2 0x1460 JUMP JUMPDEST DUP3 MSTORE POP POP JUMP JUMPDEST PUSH1 0x0 PUSH8 0xFFFFFFFFFFFFFFFF DUP3 AND SWAP1 POP SWAP2 SWAP1 POP JUMP JUMPDEST PUSH2 0x1496 DUP2 PUSH2 0x1479 JUMP JUMPDEST DUP3 MSTORE POP POP JUMP JUMPDEST PUSH1 0x0 PUSH2 0xFFFF DUP3 AND SWAP1 POP SWAP2 SWAP1 POP JUMP JUMPDEST PUSH2 0x14B3 DUP2 PUSH2 0x149C JUMP JUMPDEST DUP3 MSTORE POP POP JUMP JUMPDEST PUSH1 0x0 PUSH4 0xFFFFFFFF DUP3 AND SWAP1 POP SWAP2 SWAP1 POP JUMP JUMPDEST PUSH2 0x14D2 DUP2 PUSH2 0x14B9 JUMP JUMPDEST DUP3 MSTORE POP POP JUMP JUMPDEST PUSH1 0x0 PUSH1 0xA0 DUP3 ADD SWAP1 POP PUSH2 0x14ED PUSH1 0x0 DUP4 ADD DUP9 PUSH2 0x146A JUMP JUMPDEST PUSH2 0x14FA PUSH1 0x20 DUP4 ADD DUP8 PUSH2 0x148D JUMP JUMPDEST PUSH2 0x1507 PUSH1 0x40 DUP4 ADD DUP7 PUSH2 0x14AA JUMP JUMPDEST PUSH2 0x1514 PUSH1 0x60 DUP4 ADD DUP6 PUSH2 0x14C9 JUMP JUMPDEST PUSH2 0x1521 PUSH1 0x80 DUP4 ADD DUP5 PUSH2 0x14C9 JUMP JUMPDEST SWAP7 SWAP6 POP POP POP POP POP POP JUMP JUMPDEST PUSH1 0x0 DUP2 MLOAD SWAP1 POP PUSH2 0x153A DUP2 PUSH2 0xE0A JUMP JUMPDEST SWAP3 SWAP2 POP POP JUMP JUMPDEST PUSH1 0x0 PUSH1 0x20 DUP3 DUP5 SUB SLT ISZERO PUSH2 0x1556 JUMPI PUSH2 0x1555 PUSH2 0xE00 JUMP JUMPDEST JUMPDEST PUSH1 0x0 PUSH2 0x1564 DUP5 DUP3 DUP6 ADD PUSH2 0x152B JUMP JUMPDEST SWAP2 POP POP SWAP3 SWAP2 POP POP JUMP JUMPDEST PUSH32 0x4E487B7100000000000000000000000000000000000000000000000000000000 PUSH1 0x0 MSTORE PUSH1 0x11 PUSH1 0x4 MSTORE PUSH1 0x24 PUSH1 0x0 REVERT JUMPDEST PUSH1 0x0 PUSH2 0x15A7 DUP3 PUSH2 0xD30 JUMP JUMPDEST SWAP2 POP PUSH2 0x15B2 DUP4 PUSH2 0xD30 JUMP JUMPDEST SWAP3 POP DUP3 DUP3 SUB SWAP1 POP DUP2 DUP2 GT ISZERO PUSH2 0x15CA JUMPI PUSH2 0x15C9 PUSH2 0x156D JUMP JUMPDEST JUMPDEST SWAP3 SWAP2 POP POP JUMP JUMPDEST PUSH32 0x4E487B7100000000000000000000000000000000000000000000000000000000 PUSH1 0x0 MSTORE PUSH1 0x32 PUSH1 0x4 MSTORE PUSH1 0x24 PUSH1 0x0 REVERT JUMPDEST PUSH32 0x4E487B7100000000000000000000000000000000000000000000000000000000 PUSH1 0x0 MSTORE PUSH1 0x12 PUSH1 0x4 MSTORE PUSH1 0x24 PUSH1 0x0 REVERT JUMPDEST PUSH1 0x0 PUSH2 0x1639 DUP3 PUSH2 0xD30 JUMP JUMPDEST SWAP2 POP PUSH2 0x1644 DUP4 PUSH2 0xD30 JUMP JUMPDEST SWAP3 POP DUP3 PUSH2 0x1654 JUMPI PUSH2 0x1653 PUSH2 0x15FF JUMP JUMPDEST JUMPDEST DUP3 DUP3 MOD SWAP1 POP SWAP3 SWAP2 POP POP JUMP JUMPDEST PUSH1 0x0 DUP2 SWAP1 POP SWAP3 SWAP2 POP POP JUMP JUMPDEST POP JUMP JUMPDEST PUSH1 0x0 PUSH2 0x167A PUSH1 0x0 DUP4 PUSH2 0x165F JUMP JUMPDEST SWAP2 POP PUSH2 0x1685 DUP3 PUSH2 0x166A JUMP JUMPDEST PUSH1 0x0 DUP3 ADD SWAP1 POP SWAP2 SWAP1 POP JUMP JUMPDEST PUSH1 0x0 PUSH2 0x169B DUP3 PUSH2 0x166D JUMP JUMPDEST SWAP2 POP DUP2 SWAP1 POP SWAP2 SWAP1 POP JUMP INVALID LOG2 PUSH5 0x6970667358 0x22 SLT KECCAK256 0x22 BLOBHASH ADDMOD BLOCKHASH ISZERO LOG2 PUSH26 0x694F266AA397BE0866862C8B10928A87B0FD18C5182F2B25E64 PUSH20 0x6F6C634300081C00330000000000000000000000 "},"gasEstimates":{"creation":{"codeDepositCost":"1170200","executionCost":"infinite","totalCost":"infinite"},"external":{"changerafflestate()":"26698","checkUpkeep(bytes)":"infinite","enterRaffle()":"infinite","getAllPlayers()":"infinite","getAllPlayersCount()":"2533","getEntranceFee()":"infinite","getInterval()":"infinite","getLastTimeStamp()":"2459","getPlayer(uint256)":"5011","getRaffleState()":"2591","getRecentWinner()":"2633","performUpkeep(bytes)":"infinite","rawFulfillRandomWords(uint256,uint256[])":"infinite"},"internal":{"fulfillRandomWords(uint256,uint256[] memory)":"infinite"}},"methodIdentifiers":{"changerafflestate()":"8a84c58e","checkUpkeep(bytes)":"6e04ff0d","enterRaffle()":"2cfcc539","getAllPlayers()":"efa1c482","getAllPlayersCount()":"f80b82f7","getEntranceFee()":"09bc33a7","getInterval()":"91ad27b4","getLastTimeStamp()":"c1c244e8","getPlayer(uint256)":"e55ae4e8","getRaffleState()":"115cbaf5","getRecentWinner()":"473f1ddc","performUpkeep(bytes)":"4585e33b","rawFulfillRandomWords(uint256,uint256[])":"1fe543e3"}},"storageLayout":{"storage":[{"astId":1723,"contract":"contracts/old/OldRaffle.sol:OldRaffle","label":"s_players","offset":0,"slot":"0","type":"t_array(t_address_payable)dyn_storage"},{"astId":1730,"contract":"contracts/old/OldRaffle.sol:OldRaffle","label":"recentWinner","offset":0,"slot":"1","type":"t_address_payable"},{"astId":1742,"contract":"contracts/old/OldRaffle.sol:OldRaffle","label":"s_isOpen","offset":0,"slot":"2","type":"t_uint256"},{"astId":1746,"contract":"contracts/old/OldRaffle.sol:OldRaffle","label":"s_lastTimeStamp","offset":0,"slot":"3","type":"t_uint256"},{"astId":1752,"contract":"contracts/old/OldRaffle.sol:OldRaffle","label":"s_raffle_state","offset":0,"slot":"4","type":"t_enum(RaffleState)1749"}],"types":{"t_address_payable":{"encoding":"inplace","label":"address payable","numberOfBytes":"20"},"t_array(t_address_payable)dyn_storage":{"base":"t_address_payable","encoding":"dynamic_array","label":"address payable[]","numberOfBytes":"32"},"t_enum(RaffleState)1749":{"encoding":"inplace","label":"enum OldRaffle.RaffleState","numberOfBytes":"1"},"t_uint256":{"encoding":"inplace","label":"uint256","numberOfBytes":"32"}}},"userdoc":{"kind":"user","methods":{},"version":1}}}}