{
  "_format": "hh-sol-artifact-1",
  "contractName": "Raffle",
  "sourceName": "contracts/Raffle.sol",
  "abi": [
    {
      "inputs": [
        {
          "internalType": "address",
          "name": "vrfCoordinatorV2",
          "type": "address"
        },
        {
          "internalType": "uint256",
          "name": "entrancefee",
          "type": "uint256"
        },
        {
          "internalType": "uint256",
          "name": "subscriptionId",
          "type": "uint256"
        },
        {
          "internalType": "uint32",
          "name": "callbackGasLimit",
          "type": "uint32"
        },
        {
          "internalType": "bytes32",
          "name": "gasLane",
          "type": "bytes32"
        },
        {
          "internalType": "uint256",
          "name": "interval",
          "type": "uint256"
        }
      ],
      "stateMutability": "nonpayable",
      "type": "constructor"
    },
    {
      "inputs": [
        {
          "internalType": "address",
          "name": "have",
          "type": "address"
        },
        {
          "internalType": "address",
          "name": "want",
          "type": "address"
        }
      ],
      "name": "OnlyCoordinatorCanFulfill",
      "type": "error"
    },
    {
      "inputs": [],
      "name": "OnlySimulatedBackend",
      "type": "error"
    },
    {
      "inputs": [],
      "name": "Raffle_Not_Open",
      "type": "error"
    },
    {
      "inputs": [],
      "name": "Raffle_TransferUnsuccessful",
      "type": "error"
    },
    {
      "inputs": [],
      "name": "Raffle__SendMoreToEnterRaffle",
      "type": "error"
    },
    {
      "inputs": [
        {
          "internalType": "uint256",
          "name": "currentBalance",
          "type": "uint256"
        },
        {
          "internalType": "uint256",
          "name": "numPlayers",
          "type": "uint256"
        },
        {
          "internalType": "uint256",
          "name": "raffleState",
          "type": "uint256"
        }
      ],
      "name": "checkUpkeep_Not_Needed",
      "type": "error"
    },
    {
      "anonymous": false,
      "inputs": [
        {
          "indexed": true,
          "internalType": "address",
          "name": "player",
          "type": "address"
        }
      ],
      "name": "raffleEnter",
      "type": "event"
    },
    {
      "anonymous": false,
      "inputs": [
        {
          "indexed": true,
          "internalType": "address",
          "name": "winner",
          "type": "address"
        }
      ],
      "name": "winnerPicked",
      "type": "event"
    },
    {
      "inputs": [
        {
          "internalType": "bytes",
          "name": "",
          "type": "bytes"
        }
      ],
      "name": "checkUpkeep",
      "outputs": [
        {
          "internalType": "bool",
          "name": "upkeepNeeded",
          "type": "bool"
        },
        {
          "internalType": "bytes",
          "name": "",
          "type": "bytes"
        }
      ],
      "stateMutability": "view",
      "type": "function"
    },
    {
      "inputs": [],
      "name": "enterRaffle",
      "outputs": [],
      "stateMutability": "payable",
      "type": "function"
    },
    {
      "inputs": [],
      "name": "getEntranceFee",
      "outputs": [
        {
          "internalType": "uint256",
          "name": "",
          "type": "uint256"
        }
      ],
      "stateMutability": "view",
      "type": "function"
    },
    {
      "inputs": [
        {
          "internalType": "uint256",
          "name": "index",
          "type": "uint256"
        }
      ],
      "name": "getPlayer",
      "outputs": [
        {
          "internalType": "address payable",
          "name": "",
          "type": "address"
        }
      ],
      "stateMutability": "view",
      "type": "function"
    },
    {
      "inputs": [],
      "name": "getRecentWinner",
      "outputs": [
        {
          "internalType": "address",
          "name": "",
          "type": "address"
        }
      ],
      "stateMutability": "view",
      "type": "function"
    },
    {
      "inputs": [
        {
          "internalType": "bytes",
          "name": "",
          "type": "bytes"
        }
      ],
      "name": "performUpkeep",
      "outputs": [],
      "stateMutability": "nonpayable",
      "type": "function"
    },
    {
      "inputs": [
        {
          "internalType": "uint256",
          "name": "requestId",
          "type": "uint256"
        },
        {
          "internalType": "uint256[]",
          "name": "randomWords",
          "type": "uint256[]"
        }
      ],
      "name": "rawFulfillRandomWords",
      "outputs": [],
      "stateMutability": "nonpayable",
      "type": "function"
    }
  ],
  "bytecode": "0x61016060405234801561001157600080fd5b506040516115c93803806115c98339818101604052810190610033919061021c565b858073ffffffffffffffffffffffffffffffffffffffff1660808173ffffffffffffffffffffffffffffffffffffffff1681525050508460a081815250508573ffffffffffffffffffffffffffffffffffffffff1660c08173ffffffffffffffffffffffffffffffffffffffff16815250508360e081815250508263ffffffff166101008163ffffffff16815250508161012081815250506000600460006101000a81548160ff021916908360018111156100f1576100f06102a9565b5b0217905550806101408181525050426003819055505050505050506102d8565b600080fd5b600073ffffffffffffffffffffffffffffffffffffffff82169050919050565b600061014182610116565b9050919050565b61015181610136565b811461015c57600080fd5b50565b60008151905061016e81610148565b92915050565b6000819050919050565b61018781610174565b811461019257600080fd5b50565b6000815190506101a48161017e565b92915050565b600063ffffffff82169050919050565b6101c3816101aa565b81146101ce57600080fd5b50565b6000815190506101e0816101ba565b92915050565b6000819050919050565b6101f9816101e6565b811461020457600080fd5b50565b600081519050610216816101f0565b92915050565b60008060008060008060c0878903121561023957610238610111565b5b600061024789828a0161015f565b965050602061025889828a01610195565b955050604061026989828a01610195565b945050606061027a89828a016101d1565b935050608061028b89828a01610207565b92505060a061029c89828a01610195565b9150509295509295509295565b7f4e487b7100000000000000000000000000000000000000000000000000000000600052602160045260246000fd5b60805160a05160c05160e0516101005161012051610140516112896103406000396000610629015260006104ed015260006105310152600061050e015260006104b10152600081816101a601526102f90152600081816101cc015261022001526112896000f3fe6080604052600436106100705760003560e01c80634585e33b1161004e5780634585e33b146100d3578063473f1ddc146100fc5780636e04ff0d14610127578063e55ae4e81461016557610070565b806309bc33a7146100755780631fe543e3146100a05780632cfcc539146100c9575b600080fd5b34801561008157600080fd5b5061008a6101a2565b6040516100979190610a3a565b60405180910390f35b3480156100ac57600080fd5b506100c760048036038101906100c29190610bee565b6101ca565b005b6100d161028a565b005b3480156100df57600080fd5b506100fa60048036038101906100f59190610ca5565b6103f9565b005b34801561010857600080fd5b506101116105bd565b60405161011e9190610d33565b60405180910390f35b34801561013357600080fd5b5061014e60048036038101906101499190610e03565b6105e7565b60405161015c929190610ee6565b60405180910390f35b34801561017157600080fd5b5061018c60048036038101906101879190610f16565b610693565b6040516101999190610f64565b60405180910390f35b60007f0000000000000000000000000000000000000000000000000000000000000000905090565b7f000000000000000000000000000000000000000000000000000000000000000073ffffffffffffffffffffffffffffffffffffffff163373ffffffffffffffffffffffffffffffffffffffff161461027c57337f00000000000000000000000000000000000000000000000000000000000000006040517f1cf993f4000000000000000000000000000000000000000000000000000000008152600401610273929190610f7f565b60405180910390fd5b61028682826106da565b5050565b6000600181111561029e5761029d610fa8565b5b600460009054906101000a900460ff1660018111156102c0576102bf610fa8565b5b146102f7576040517f286c89dd00000000000000000000000000000000000000000000000000000000815260040160405180910390fd5b7f0000000000000000000000000000000000000000000000000000000000000000341015610351576040517f3038c00a00000000000000000000000000000000000000000000000000000000815260040160405180910390fd5b6000339080600181540180825580915050600190039060005260206000200160009091909190916101000a81548173ffffffffffffffffffffffffffffffffffffffff021916908373ffffffffffffffffffffffffffffffffffffffff1602179055503373ffffffffffffffffffffffffffffffffffffffff167f742d070bf0f3edace132a9da8ba725e8cf99c478869cee7f673ed6085e2f8e6460405160405180910390a2565b6000610413604051806020016040528060008152506105e7565b509050806104825747600080549050600460009054906101000a900460ff16600181111561044457610443610fa8565b5b6040517f5711a40300000000000000000000000000000000000000000000000000000000815260040161047993929190610fd7565b60405180910390fd5b6001600460006101000a81548160ff021916908360018111156104a8576104a7610fa8565b5b021790555060007f000000000000000000000000000000000000000000000000000000000000000073ffffffffffffffffffffffffffffffffffffffff16635d3b1d307f00000000000000000000000000000000000000000000000000000000000000007f000000000000000000000000000000000000000000000000000000000000000060037f000000000000000000000000000000000000000000000000000000000000000060016040518663ffffffff1660e01b8152600401610572959493929190611086565b6020604051808303816000875af1158015610591573d6000803e3d6000fd5b505050506040513d601f19601f820116820180604052508101906105b591906110ee565b905050505050565b6000600160009054906101000a900473ffffffffffffffffffffffffffffffffffffffff16905090565b600060606000806001811115610600576105ff610fa8565b5b600460009054906101000a900460ff16600181111561062257610621610fa8565b5b14905060007f000000000000000000000000000000000000000000000000000000000000000060035442610656919061114a565b119050600080600080549050119050600080471190508380156106765750825b801561067f5750815b80156106885750805b955050505050915091565b60008082815481106106a8576106a761117e565b5b9060005260206000200160009054906101000a900473ffffffffffffffffffffffffffffffffffffffff169050919050565b6001600460006101000a81548160ff02191690836001811115610700576106ff610fa8565b5b021790555060008080549050826000815181106107205761071f61117e565b5b602002602001015161073291906111dc565b905060008082815481106107495761074861117e565b5b9060005260206000200160009054906101000a900473ffffffffffffffffffffffffffffffffffffffff16905080600160006101000a81548173ffffffffffffffffffffffffffffffffffffffff021916908373ffffffffffffffffffffffffffffffffffffffff1602179055506000600460006101000a81548160ff021916908360018111156107dd576107dc610fa8565b5b0217905550600067ffffffffffffffff8111156107fd576107fc610aab565b5b60405190808252806020026020018201604052801561082b5781602001602082028036833780820191505090505b506000908051906020019061084192919061097a565b50426003819055506000600160009054906101000a900473ffffffffffffffffffffffffffffffffffffffff1673ffffffffffffffffffffffffffffffffffffffff16476040516108919061123e565b60006040518083038185875af1925050503d80600081146108ce576040519150601f19603f3d011682016040523d82523d6000602084013e6108d3565b606091505b505090508061090e576040517f5714df0a00000000000000000000000000000000000000000000000000000000815260040160405180910390fd5b600160009054906101000a900473ffffffffffffffffffffffffffffffffffffffff1673ffffffffffffffffffffffffffffffffffffffff167f794919b0f484b8e90b1b817ac7f880f846fbd8a9813dee2a378e820db094e3d160405160405180910390a25050505050565b8280548282559060005260206000209081019282156109f3579160200282015b828111156109f25782518260006101000a81548173ffffffffffffffffffffffffffffffffffffffff021916908373ffffffffffffffffffffffffffffffffffffffff1602179055509160200191906001019061099a565b5b509050610a009190610a04565b5090565b5b80821115610a1d576000816000905550600101610a05565b5090565b6000819050919050565b610a3481610a21565b82525050565b6000602082019050610a4f6000830184610a2b565b92915050565b6000604051905090565b600080fd5b600080fd5b610a7281610a21565b8114610a7d57600080fd5b50565b600081359050610a8f81610a69565b92915050565b600080fd5b6000601f19601f8301169050919050565b7f4e487b7100000000000000000000000000000000000000000000000000000000600052604160045260246000fd5b610ae382610a9a565b810181811067ffffffffffffffff82111715610b0257610b01610aab565b5b80604052505050565b6000610b15610a55565b9050610b218282610ada565b919050565b600067ffffffffffffffff821115610b4157610b40610aab565b5b602082029050602081019050919050565b600080fd5b6000610b6a610b6584610b26565b610b0b565b90508083825260208201905060208402830185811115610b8d57610b8c610b52565b5b835b81811015610bb65780610ba28882610a80565b845260208401935050602081019050610b8f565b5050509392505050565b600082601f830112610bd557610bd4610a95565b5b8135610be5848260208601610b57565b91505092915050565b60008060408385031215610c0557610c04610a5f565b5b6000610c1385828601610a80565b925050602083013567ffffffffffffffff811115610c3457610c33610a64565b5b610c4085828601610bc0565b9150509250929050565b600080fd5b60008083601f840112610c6557610c64610a95565b5b8235905067ffffffffffffffff811115610c8257610c81610c4a565b5b602083019150836001820283011115610c9e57610c9d610b52565b5b9250929050565b60008060208385031215610cbc57610cbb610a5f565b5b600083013567ffffffffffffffff811115610cda57610cd9610a64565b5b610ce685828601610c4f565b92509250509250929050565b600073ffffffffffffffffffffffffffffffffffffffff82169050919050565b6000610d1d82610cf2565b9050919050565b610d2d81610d12565b82525050565b6000602082019050610d486000830184610d24565b92915050565b600080fd5b600067ffffffffffffffff821115610d6e57610d6d610aab565b5b610d7782610a9a565b9050602081019050919050565b82818337600083830152505050565b6000610da6610da184610d53565b610b0b565b905082815260208101848484011115610dc257610dc1610d4e565b5b610dcd848285610d84565b509392505050565b600082601f830112610dea57610de9610a95565b5b8135610dfa848260208601610d93565b91505092915050565b600060208284031215610e1957610e18610a5f565b5b600082013567ffffffffffffffff811115610e3757610e36610a64565b5b610e4384828501610dd5565b91505092915050565b60008115159050919050565b610e6181610e4c565b82525050565b600081519050919050565b600082825260208201905092915050565b60005b83811015610ea1578082015181840152602081019050610e86565b60008484015250505050565b6000610eb882610e67565b610ec28185610e72565b9350610ed2818560208601610e83565b610edb81610a9a565b840191505092915050565b6000604082019050610efb6000830185610e58565b8181036020830152610f0d8184610ead565b90509392505050565b600060208284031215610f2c57610f2b610a5f565b5b6000610f3a84828501610a80565b91505092915050565b6000610f4e82610cf2565b9050919050565b610f5e81610f43565b82525050565b6000602082019050610f796000830184610f55565b92915050565b6000604082019050610f946000830185610d24565b610fa16020830184610d24565b9392505050565b7f4e487b7100000000000000000000000000000000000000000000000000000000600052602160045260246000fd5b6000606082019050610fec6000830186610a2b565b610ff96020830185610a2b565b6110066040830184610a2b565b949350505050565b6000819050919050565b6110218161100e565b82525050565b600067ffffffffffffffff82169050919050565b61104481611027565b82525050565b600061ffff82169050919050565b6110618161104a565b82525050565b600063ffffffff82169050919050565b61108081611067565b82525050565b600060a08201905061109b6000830188611018565b6110a8602083018761103b565b6110b56040830186611058565b6110c26060830185611077565b6110cf6080830184611077565b9695505050505050565b6000815190506110e881610a69565b92915050565b60006020828403121561110457611103610a5f565b5b6000611112848285016110d9565b91505092915050565b7f4e487b7100000000000000000000000000000000000000000000000000000000600052601160045260246000fd5b600061115582610a21565b915061116083610a21565b92508282039050818111156111785761117761111b565b5b92915050565b7f4e487b7100000000000000000000000000000000000000000000000000000000600052603260045260246000fd5b7f4e487b7100000000000000000000000000000000000000000000000000000000600052601260045260246000fd5b60006111e782610a21565b91506111f283610a21565b925082611202576112016111ad565b5b828206905092915050565b600081905092915050565b50565b600061122860008361120d565b915061123382611218565b600082019050919050565b60006112498261121b565b915081905091905056fea264697066735822122060a607922b3d1005b0800c7a44869b7f40348992c2019584f73a4a098bcc47b764736f6c634300081c0033",
  "linkReferences": {},
  "deployedLinkReferences": {}
}