{
  "_format": "hh-sol-artifact-1",
  "contractName": "Raffle",
  "sourceName": "contracts/Raffle.sol",
  "abi": [
    {
      "inputs": [
        {
          "internalType": "address",
          "name": "vrfCoordinatorV2",
          "type": "address"
        },
        {
          "internalType": "uint256",
          "name": "entrancefee",
          "type": "uint256"
        },
        {
          "internalType": "uint256",
          "name": "subscriptionId",
          "type": "uint256"
        },
        {
          "internalType": "uint32",
          "name": "callbackGasLimit",
          "type": "uint32"
        },
        {
          "internalType": "bytes32",
          "name": "gasLane",
          "type": "bytes32"
        },
        {
          "internalType": "uint256",
          "name": "interval",
          "type": "uint256"
        }
      ],
      "stateMutability": "nonpayable",
      "type": "constructor"
    },
    {
      "inputs": [
        {
          "internalType": "address",
          "name": "have",
          "type": "address"
        },
        {
          "internalType": "address",
          "name": "want",
          "type": "address"
        }
      ],
      "name": "OnlyCoordinatorCanFulfill",
      "type": "error"
    },
    {
      "inputs": [],
      "name": "OnlySimulatedBackend",
      "type": "error"
    },
    {
      "inputs": [],
      "name": "Raffle_Not_Open",
      "type": "error"
    },
    {
      "inputs": [],
      "name": "Raffle_TransferUnsuccessful",
      "type": "error"
    },
    {
      "inputs": [],
      "name": "Raffle__SendMoreToEnterRaffle",
      "type": "error"
    },
    {
      "inputs": [
        {
          "internalType": "uint256",
          "name": "currentBalance",
          "type": "uint256"
        },
        {
          "internalType": "uint256",
          "name": "numPlayers",
          "type": "uint256"
        },
        {
          "internalType": "uint256",
          "name": "raffleState",
          "type": "uint256"
        }
      ],
      "name": "checkUpkeep_Not_Needed",
      "type": "error"
    },
    {
      "anonymous": false,
      "inputs": [
        {
          "indexed": true,
          "internalType": "address",
          "name": "player",
          "type": "address"
        }
      ],
      "name": "raffleEnter",
      "type": "event"
    },
    {
      "anonymous": false,
      "inputs": [
        {
          "indexed": true,
          "internalType": "address",
          "name": "winner",
          "type": "address"
        }
      ],
      "name": "winnerPicked",
      "type": "event"
    },
    {
      "inputs": [
        {
          "internalType": "bytes",
          "name": "",
          "type": "bytes"
        }
      ],
      "name": "checkUpkeep",
      "outputs": [
        {
          "internalType": "bool",
          "name": "upkeepNeeded",
          "type": "bool"
        },
        {
          "internalType": "bytes",
          "name": "",
          "type": "bytes"
        }
      ],
      "stateMutability": "view",
      "type": "function"
    },
    {
      "inputs": [],
      "name": "enterRaffle",
      "outputs": [],
      "stateMutability": "payable",
      "type": "function"
    },
    {
      "inputs": [],
      "name": "getEntranceFee",
      "outputs": [
        {
          "internalType": "uint256",
          "name": "",
          "type": "uint256"
        }
      ],
      "stateMutability": "view",
      "type": "function"
    },
    {
      "inputs": [],
      "name": "getInterval",
      "outputs": [
        {
          "internalType": "uint256",
          "name": "",
          "type": "uint256"
        }
      ],
      "stateMutability": "view",
      "type": "function"
    },
    {
      "inputs": [
        {
          "internalType": "uint256",
          "name": "index",
          "type": "uint256"
        }
      ],
      "name": "getPlayer",
      "outputs": [
        {
          "internalType": "address payable",
          "name": "",
          "type": "address"
        }
      ],
      "stateMutability": "view",
      "type": "function"
    },
    {
      "inputs": [],
      "name": "getRecentWinner",
      "outputs": [
        {
          "internalType": "address",
          "name": "",
          "type": "address"
        }
      ],
      "stateMutability": "view",
      "type": "function"
    },
    {
      "inputs": [
        {
          "internalType": "bytes",
          "name": "",
          "type": "bytes"
        }
      ],
      "name": "performUpkeep",
      "outputs": [],
      "stateMutability": "nonpayable",
      "type": "function"
    },
    {
      "inputs": [
        {
          "internalType": "uint256",
          "name": "requestId",
          "type": "uint256"
        },
        {
          "internalType": "uint256[]",
          "name": "randomWords",
          "type": "uint256[]"
        }
      ],
      "name": "rawFulfillRandomWords",
      "outputs": [],
      "stateMutability": "nonpayable",
      "type": "function"
    }
  ],
  "bytecode": "0x61016060405234801561001157600080fd5b5060405161162e38038061162e8339818101604052810190610033919061021c565b858073ffffffffffffffffffffffffffffffffffffffff1660808173ffffffffffffffffffffffffffffffffffffffff1681525050508460a081815250508573ffffffffffffffffffffffffffffffffffffffff1660c08173ffffffffffffffffffffffffffffffffffffffff16815250508360e081815250508263ffffffff166101008163ffffffff16815250508161012081815250506000600460006101000a81548160ff021916908360018111156100f1576100f06102a9565b5b0217905550806101408181525050426003819055505050505050506102d8565b600080fd5b600073ffffffffffffffffffffffffffffffffffffffff82169050919050565b600061014182610116565b9050919050565b61015181610136565b811461015c57600080fd5b50565b60008151905061016e81610148565b92915050565b6000819050919050565b61018781610174565b811461019257600080fd5b50565b6000815190506101a48161017e565b92915050565b600063ffffffff82169050919050565b6101c3816101aa565b81146101ce57600080fd5b50565b6000815190506101e0816101ba565b92915050565b6000819050919050565b6101f9816101e6565b811461020457600080fd5b50565b600081519050610216816101f0565b92915050565b60008060008060008060c0878903121561023957610238610111565b5b600061024789828a0161015f565b965050602061025889828a01610195565b955050604061026989828a01610195565b945050606061027a89828a016101d1565b935050608061028b89828a01610207565b92505060a061029c89828a01610195565b9150509295509295509295565b7f4e487b7100000000000000000000000000000000000000000000000000000000600052602160045260246000fd5b60805160a05160c05160e0516101005161012051610140516112e76103476000396000818161065f01526106cd015260006105230152600061056701526000610544015260006104e70152600081816101dc015261032f015260008181610202015261025601526112e76000f3fe60806040526004361061007b5760003560e01c8063473f1ddc1161004e578063473f1ddc146101075780636e04ff0d1461013257806391ad27b414610170578063e55ae4e81461019b5761007b565b806309bc33a7146100805780631fe543e3146100ab5780632cfcc539146100d45780634585e33b146100de575b600080fd5b34801561008c57600080fd5b506100956101d8565b6040516100a29190610a98565b60405180910390f35b3480156100b757600080fd5b506100d260048036038101906100cd9190610c4c565b610200565b005b6100dc6102c0565b005b3480156100ea57600080fd5b5061010560048036038101906101009190610d03565b61042f565b005b34801561011357600080fd5b5061011c6105f3565b6040516101299190610d91565b60405180910390f35b34801561013e57600080fd5b5061015960048036038101906101549190610e61565b61061d565b604051610167929190610f44565b60405180910390f35b34801561017c57600080fd5b506101856106c9565b6040516101929190610a98565b60405180910390f35b3480156101a757600080fd5b506101c260048036038101906101bd9190610f74565b6106f1565b6040516101cf9190610fc2565b60405180910390f35b60007f0000000000000000000000000000000000000000000000000000000000000000905090565b7f000000000000000000000000000000000000000000000000000000000000000073ffffffffffffffffffffffffffffffffffffffff163373ffffffffffffffffffffffffffffffffffffffff16146102b257337f00000000000000000000000000000000000000000000000000000000000000006040517f1cf993f40000000000000000000000000000000000000000000000000000000081526004016102a9929190610fdd565b60405180910390fd5b6102bc8282610738565b5050565b600060018111156102d4576102d3611006565b5b600460009054906101000a900460ff1660018111156102f6576102f5611006565b5b1461032d576040517f286c89dd00000000000000000000000000000000000000000000000000000000815260040160405180910390fd5b7f0000000000000000000000000000000000000000000000000000000000000000341015610387576040517f3038c00a00000000000000000000000000000000000000000000000000000000815260040160405180910390fd5b6000339080600181540180825580915050600190039060005260206000200160009091909190916101000a81548173ffffffffffffffffffffffffffffffffffffffff021916908373ffffffffffffffffffffffffffffffffffffffff1602179055503373ffffffffffffffffffffffffffffffffffffffff167f742d070bf0f3edace132a9da8ba725e8cf99c478869cee7f673ed6085e2f8e6460405160405180910390a2565b60006104496040518060200160405280600081525061061d565b509050806104b85747600080549050600460009054906101000a900460ff16600181111561047a57610479611006565b5b6040517f5711a4030000000000000000000000000000000000000000000000000000000081526004016104af93929190611035565b60405180910390fd5b6001600460006101000a81548160ff021916908360018111156104de576104dd611006565b5b021790555060007f000000000000000000000000000000000000000000000000000000000000000073ffffffffffffffffffffffffffffffffffffffff16635d3b1d307f00000000000000000000000000000000000000000000000000000000000000007f000000000000000000000000000000000000000000000000000000000000000060037f000000000000000000000000000000000000000000000000000000000000000060016040518663ffffffff1660e01b81526004016105a89594939291906110e4565b6020604051808303816000875af11580156105c7573d6000803e3d6000fd5b505050506040513d601f19601f820116820180604052508101906105eb919061114c565b905050505050565b6000600160009054906101000a900473ffffffffffffffffffffffffffffffffffffffff16905090565b60006060600080600181111561063657610635611006565b5b600460009054906101000a900460ff16600181111561065857610657611006565b5b14905060007f00000000000000000000000000000000000000000000000000000000000000006003544261068c91906111a8565b119050600080600080549050119050600080471190508380156106ac5750825b80156106b55750815b80156106be5750805b955050505050915091565b60007f0000000000000000000000000000000000000000000000000000000000000000905090565b6000808281548110610706576107056111dc565b5b9060005260206000200160009054906101000a900473ffffffffffffffffffffffffffffffffffffffff169050919050565b6001600460006101000a81548160ff0219169083600181111561075e5761075d611006565b5b0217905550600080805490508260008151811061077e5761077d6111dc565b5b6020026020010151610790919061123a565b905060008082815481106107a7576107a66111dc565b5b9060005260206000200160009054906101000a900473ffffffffffffffffffffffffffffffffffffffff16905080600160006101000a81548173ffffffffffffffffffffffffffffffffffffffff021916908373ffffffffffffffffffffffffffffffffffffffff1602179055506000600460006101000a81548160ff0219169083600181111561083b5761083a611006565b5b0217905550600067ffffffffffffffff81111561085b5761085a610b09565b5b6040519080825280602002602001820160405280156108895781602001602082028036833780820191505090505b506000908051906020019061089f9291906109d8565b50426003819055506000600160009054906101000a900473ffffffffffffffffffffffffffffffffffffffff1673ffffffffffffffffffffffffffffffffffffffff16476040516108ef9061129c565b60006040518083038185875af1925050503d806000811461092c576040519150601f19603f3d011682016040523d82523d6000602084013e610931565b606091505b505090508061096c576040517f5714df0a00000000000000000000000000000000000000000000000000000000815260040160405180910390fd5b600160009054906101000a900473ffffffffffffffffffffffffffffffffffffffff1673ffffffffffffffffffffffffffffffffffffffff167f794919b0f484b8e90b1b817ac7f880f846fbd8a9813dee2a378e820db094e3d160405160405180910390a25050505050565b828054828255906000526020600020908101928215610a51579160200282015b82811115610a505782518260006101000a81548173ffffffffffffffffffffffffffffffffffffffff021916908373ffffffffffffffffffffffffffffffffffffffff160217905550916020019190600101906109f8565b5b509050610a5e9190610a62565b5090565b5b80821115610a7b576000816000905550600101610a63565b5090565b6000819050919050565b610a9281610a7f565b82525050565b6000602082019050610aad6000830184610a89565b92915050565b6000604051905090565b600080fd5b600080fd5b610ad081610a7f565b8114610adb57600080fd5b50565b600081359050610aed81610ac7565b92915050565b600080fd5b6000601f19601f8301169050919050565b7f4e487b7100000000000000000000000000000000000000000000000000000000600052604160045260246000fd5b610b4182610af8565b810181811067ffffffffffffffff82111715610b6057610b5f610b09565b5b80604052505050565b6000610b73610ab3565b9050610b7f8282610b38565b919050565b600067ffffffffffffffff821115610b9f57610b9e610b09565b5b602082029050602081019050919050565b600080fd5b6000610bc8610bc384610b84565b610b69565b90508083825260208201905060208402830185811115610beb57610bea610bb0565b5b835b81811015610c145780610c008882610ade565b845260208401935050602081019050610bed565b5050509392505050565b600082601f830112610c3357610c32610af3565b5b8135610c43848260208601610bb5565b91505092915050565b60008060408385031215610c6357610c62610abd565b5b6000610c7185828601610ade565b925050602083013567ffffffffffffffff811115610c9257610c91610ac2565b5b610c9e85828601610c1e565b9150509250929050565b600080fd5b60008083601f840112610cc357610cc2610af3565b5b8235905067ffffffffffffffff811115610ce057610cdf610ca8565b5b602083019150836001820283011115610cfc57610cfb610bb0565b5b9250929050565b60008060208385031215610d1a57610d19610abd565b5b600083013567ffffffffffffffff811115610d3857610d37610ac2565b5b610d4485828601610cad565b92509250509250929050565b600073ffffffffffffffffffffffffffffffffffffffff82169050919050565b6000610d7b82610d50565b9050919050565b610d8b81610d70565b82525050565b6000602082019050610da66000830184610d82565b92915050565b600080fd5b600067ffffffffffffffff821115610dcc57610dcb610b09565b5b610dd582610af8565b9050602081019050919050565b82818337600083830152505050565b6000610e04610dff84610db1565b610b69565b905082815260208101848484011115610e2057610e1f610dac565b5b610e2b848285610de2565b509392505050565b600082601f830112610e4857610e47610af3565b5b8135610e58848260208601610df1565b91505092915050565b600060208284031215610e7757610e76610abd565b5b600082013567ffffffffffffffff811115610e9557610e94610ac2565b5b610ea184828501610e33565b91505092915050565b60008115159050919050565b610ebf81610eaa565b82525050565b600081519050919050565b600082825260208201905092915050565b60005b83811015610eff578082015181840152602081019050610ee4565b60008484015250505050565b6000610f1682610ec5565b610f208185610ed0565b9350610f30818560208601610ee1565b610f3981610af8565b840191505092915050565b6000604082019050610f596000830185610eb6565b8181036020830152610f6b8184610f0b565b90509392505050565b600060208284031215610f8a57610f89610abd565b5b6000610f9884828501610ade565b91505092915050565b6000610fac82610d50565b9050919050565b610fbc81610fa1565b82525050565b6000602082019050610fd76000830184610fb3565b92915050565b6000604082019050610ff26000830185610d82565b610fff6020830184610d82565b9392505050565b7f4e487b7100000000000000000000000000000000000000000000000000000000600052602160045260246000fd5b600060608201905061104a6000830186610a89565b6110576020830185610a89565b6110646040830184610a89565b949350505050565b6000819050919050565b61107f8161106c565b82525050565b600067ffffffffffffffff82169050919050565b6110a281611085565b82525050565b600061ffff82169050919050565b6110bf816110a8565b82525050565b600063ffffffff82169050919050565b6110de816110c5565b82525050565b600060a0820190506110f96000830188611076565b6111066020830187611099565b61111360408301866110b6565b61112060608301856110d5565b61112d60808301846110d5565b9695505050505050565b60008151905061114681610ac7565b92915050565b60006020828403121561116257611161610abd565b5b600061117084828501611137565b91505092915050565b7f4e487b7100000000000000000000000000000000000000000000000000000000600052601160045260246000fd5b60006111b382610a7f565b91506111be83610a7f565b92508282039050818111156111d6576111d5611179565b5b92915050565b7f4e487b7100000000000000000000000000000000000000000000000000000000600052603260045260246000fd5b7f4e487b7100000000000000000000000000000000000000000000000000000000600052601260045260246000fd5b600061124582610a7f565b915061125083610a7f565b9250826112605761125f61120b565b5b828206905092915050565b600081905092915050565b50565b600061128660008361126b565b915061129182611276565b600082019050919050565b60006112a782611279565b915081905091905056fea26469706673582212208c1987a8a0b6695fa01449f4c45295926597d4cf08d80ed64826f29ac07ab46a64736f6c634300081c0033",
  "linkReferences": {},
  "deployedLinkReferences": {}
}