{
  "_format": "hh-sol-artifact-1",
  "contractName": "Raffle",
  "sourceName": "contracts/Raffle.sol",
  "abi": [
    {
      "inputs": [
        {
          "internalType": "address",
          "name": "vrfCoordinatorV2",
          "type": "address"
        },
        {
          "internalType": "uint256",
          "name": "entrancefee",
          "type": "uint256"
        },
        {
          "internalType": "uint256",
          "name": "subscriptionId",
          "type": "uint256"
        },
        {
          "internalType": "uint32",
          "name": "callbackGasLimit",
          "type": "uint32"
        },
        {
          "internalType": "bytes32",
          "name": "gasLane",
          "type": "bytes32"
        }
      ],
      "stateMutability": "nonpayable",
      "type": "constructor"
    },
    {
      "inputs": [
        {
          "internalType": "address",
          "name": "have",
          "type": "address"
        },
        {
          "internalType": "address",
          "name": "want",
          "type": "address"
        }
      ],
      "name": "OnlyCoordinatorCanFulfill",
      "type": "error"
    },
    {
      "inputs": [],
      "name": "Raffle_TransferUnsuccessful",
      "type": "error"
    },
    {
      "inputs": [],
      "name": "Raffle__SendMoreToEnterRaffle",
      "type": "error"
    },
    {
      "anonymous": false,
      "inputs": [
        {
          "indexed": true,
          "internalType": "address",
          "name": "player",
          "type": "address"
        }
      ],
      "name": "raffleEnter",
      "type": "event"
    },
    {
      "anonymous": false,
      "inputs": [
        {
          "indexed": true,
          "internalType": "address",
          "name": "winner",
          "type": "address"
        }
      ],
      "name": "winnerPicked",
      "type": "event"
    },
    {
      "inputs": [],
      "name": "enterRaffle",
      "outputs": [],
      "stateMutability": "payable",
      "type": "function"
    },
    {
      "inputs": [],
      "name": "getRecentWinner",
      "outputs": [
        {
          "internalType": "address",
          "name": "",
          "type": "address"
        }
      ],
      "stateMutability": "payable",
      "type": "function"
    },
    {
      "inputs": [],
      "name": "getenterancefee",
      "outputs": [
        {
          "internalType": "uint256",
          "name": "",
          "type": "uint256"
        }
      ],
      "stateMutability": "view",
      "type": "function"
    },
    {
      "inputs": [
        {
          "internalType": "uint256",
          "name": "index",
          "type": "uint256"
        }
      ],
      "name": "getplayer",
      "outputs": [
        {
          "internalType": "address payable",
          "name": "",
          "type": "address"
        }
      ],
      "stateMutability": "view",
      "type": "function"
    },
    {
      "inputs": [
        {
          "internalType": "uint256",
          "name": "requestId",
          "type": "uint256"
        },
        {
          "internalType": "uint256[]",
          "name": "randomWords",
          "type": "uint256[]"
        }
      ],
      "name": "rawFulfillRandomWords",
      "outputs": [],
      "stateMutability": "nonpayable",
      "type": "function"
    },
    {
      "inputs": [],
      "name": "requestRandomWinner",
      "outputs": [],
      "stateMutability": "nonpayable",
      "type": "function"
    }
  ],
  "bytecode": "0x61014060405234801561001157600080fd5b50604051610e59380380610e59833981810160405281019061003391906101e0565b848073ffffffffffffffffffffffffffffffffffffffff1660808173ffffffffffffffffffffffffffffffffffffffff1681525050508360a081815250508473ffffffffffffffffffffffffffffffffffffffff1660c08173ffffffffffffffffffffffffffffffffffffffff16815250508260e081815250508163ffffffff166101008163ffffffff1681525050806101208181525050505050505061025b565b600080fd5b600073ffffffffffffffffffffffffffffffffffffffff82169050919050565b6000610105826100da565b9050919050565b610115816100fa565b811461012057600080fd5b50565b6000815190506101328161010c565b92915050565b6000819050919050565b61014b81610138565b811461015657600080fd5b50565b60008151905061016881610142565b92915050565b600063ffffffff82169050919050565b6101878161016e565b811461019257600080fd5b50565b6000815190506101a48161017e565b92915050565b6000819050919050565b6101bd816101aa565b81146101c857600080fd5b50565b6000815190506101da816101b4565b92915050565b600080600080600060a086880312156101fc576101fb6100d5565b5b600061020a88828901610123565b955050602061021b88828901610159565b945050604061022c88828901610159565b935050606061023d88828901610195565b925050608061024e888289016101cb565b9150509295509295909350565b60805160a05160c05160e0516101005161012051610ba16102b860003960006103560152600061039a015260006103770152600061031a0152600081816101ec015261046e01526000818161012c01526101800152610ba16000f3fe6080604052600436106100555760003560e01c80631fe543e31461005a5780632cfcc53914610083578063473f1ddc1461008d578063522a1f0b146100ab5780636d55b483146100c25780639eaf777c146100ff575b600080fd5b34801561006657600080fd5b50610081600480360381019061007c9190610815565b61012a565b005b61008b6101ea565b005b6100956102ec565b6040516100a291906108b2565b60405180910390f35b3480156100b757600080fd5b506100c0610316565b005b3480156100ce57600080fd5b506100e960048036038101906100e491906108cd565b610423565b6040516100f6919061091b565b60405180910390f35b34801561010b57600080fd5b5061011461046a565b6040516101219190610945565b60405180910390f35b7f000000000000000000000000000000000000000000000000000000000000000073ffffffffffffffffffffffffffffffffffffffff163373ffffffffffffffffffffffffffffffffffffffff16146101dc57337f00000000000000000000000000000000000000000000000000000000000000006040517f1cf993f40000000000000000000000000000000000000000000000000000000081526004016101d3929190610960565b60405180910390fd5b6101e68282610492565b5050565b7f0000000000000000000000000000000000000000000000000000000000000000341015610244576040517f3038c00a00000000000000000000000000000000000000000000000000000000815260040160405180910390fd5b6000339080600181540180825580915050600190039060005260206000200160009091909190916101000a81548173ffffffffffffffffffffffffffffffffffffffff021916908373ffffffffffffffffffffffffffffffffffffffff1602179055503373ffffffffffffffffffffffffffffffffffffffff167f742d070bf0f3edace132a9da8ba725e8cf99c478869cee7f673ed6085e2f8e6460405160405180910390a2565b6000600160009054906101000a900473ffffffffffffffffffffffffffffffffffffffff16905090565b60007f000000000000000000000000000000000000000000000000000000000000000073ffffffffffffffffffffffffffffffffffffffff16635d3b1d307f00000000000000000000000000000000000000000000000000000000000000007f000000000000000000000000000000000000000000000000000000000000000060037f000000000000000000000000000000000000000000000000000000000000000060016040518663ffffffff1660e01b81526004016103db959493929190610a01565b6020604051808303816000875af11580156103fa573d6000803e3d6000fd5b505050506040513d601f19601f8201168201806040525081019061041e9190610a69565b905050565b600080828154811061043857610437610a96565b5b9060005260206000200160009054906101000a900473ffffffffffffffffffffffffffffffffffffffff169050919050565b60007f0000000000000000000000000000000000000000000000000000000000000000905090565b60008151826000815181106104aa576104a9610a96565b5b60200260200101516104bc9190610af4565b905060008082815481106104d3576104d2610a96565b5b9060005260206000200160009054906101000a900473ffffffffffffffffffffffffffffffffffffffff16905080600160006101000a81548173ffffffffffffffffffffffffffffffffffffffff021916908373ffffffffffffffffffffffffffffffffffffffff1602179055506000600160009054906101000a900473ffffffffffffffffffffffffffffffffffffffff1673ffffffffffffffffffffffffffffffffffffffff164760405161058990610b56565b60006040518083038185875af1925050503d80600081146105c6576040519150601f19603f3d011682016040523d82523d6000602084013e6105cb565b606091505b5050905080610606576040517f5714df0a00000000000000000000000000000000000000000000000000000000815260040160405180910390fd5b600160009054906101000a900473ffffffffffffffffffffffffffffffffffffffff1673ffffffffffffffffffffffffffffffffffffffff167f794919b0f484b8e90b1b817ac7f880f846fbd8a9813dee2a378e820db094e3d160405160405180910390a25050505050565b6000604051905090565b600080fd5b600080fd5b6000819050919050565b61069981610686565b81146106a457600080fd5b50565b6000813590506106b681610690565b92915050565b600080fd5b6000601f19601f8301169050919050565b7f4e487b7100000000000000000000000000000000000000000000000000000000600052604160045260246000fd5b61070a826106c1565b810181811067ffffffffffffffff82111715610729576107286106d2565b5b80604052505050565b600061073c610672565b90506107488282610701565b919050565b600067ffffffffffffffff821115610768576107676106d2565b5b602082029050602081019050919050565b600080fd5b600061079161078c8461074d565b610732565b905080838252602082019050602084028301858111156107b4576107b3610779565b5b835b818110156107dd57806107c988826106a7565b8452602084019350506020810190506107b6565b5050509392505050565b600082601f8301126107fc576107fb6106bc565b5b813561080c84826020860161077e565b91505092915050565b6000806040838503121561082c5761082b61067c565b5b600061083a858286016106a7565b925050602083013567ffffffffffffffff81111561085b5761085a610681565b5b610867858286016107e7565b9150509250929050565b600073ffffffffffffffffffffffffffffffffffffffff82169050919050565b600061089c82610871565b9050919050565b6108ac81610891565b82525050565b60006020820190506108c760008301846108a3565b92915050565b6000602082840312156108e3576108e261067c565b5b60006108f1848285016106a7565b91505092915050565b600061090582610871565b9050919050565b610915816108fa565b82525050565b6000602082019050610930600083018461090c565b92915050565b61093f81610686565b82525050565b600060208201905061095a6000830184610936565b92915050565b600060408201905061097560008301856108a3565b61098260208301846108a3565b9392505050565b6000819050919050565b61099c81610989565b82525050565b600067ffffffffffffffff82169050919050565b6109bf816109a2565b82525050565b600061ffff82169050919050565b6109dc816109c5565b82525050565b600063ffffffff82169050919050565b6109fb816109e2565b82525050565b600060a082019050610a166000830188610993565b610a2360208301876109b6565b610a3060408301866109d3565b610a3d60608301856109f2565b610a4a60808301846109f2565b9695505050505050565b600081519050610a6381610690565b92915050565b600060208284031215610a7f57610a7e61067c565b5b6000610a8d84828501610a54565b91505092915050565b7f4e487b7100000000000000000000000000000000000000000000000000000000600052603260045260246000fd5b7f4e487b7100000000000000000000000000000000000000000000000000000000600052601260045260246000fd5b6000610aff82610686565b9150610b0a83610686565b925082610b1a57610b19610ac5565b5b828206905092915050565b600081905092915050565b50565b6000610b40600083610b25565b9150610b4b82610b30565b600082019050919050565b6000610b6182610b33565b915081905091905056fea26469706673582212201a8857136cfd966c0cb46668d624aa93180a94c7d29277feafb2952f6133961664736f6c634300081c0033",
  "linkReferences": {},
  "deployedLinkReferences": {}
}