{
  "_format": "hh-sol-artifact-1",
  "contractName": "OldRaffle",
  "sourceName": "contracts/old/OldRaffle.sol",
  "abi": [
    {
      "inputs": [
        {
          "internalType": "address",
          "name": "vrfCoordinatorV2",
          "type": "address"
        },
        {
          "internalType": "uint256",
          "name": "entrancefee",
          "type": "uint256"
        },
        {
          "internalType": "uint256",
          "name": "subscriptionId",
          "type": "uint256"
        },
        {
          "internalType": "uint32",
          "name": "callbackGasLimit",
          "type": "uint32"
        },
        {
          "internalType": "bytes32",
          "name": "gasLane",
          "type": "bytes32"
        },
        {
          "internalType": "uint256",
          "name": "interval",
          "type": "uint256"
        }
      ],
      "stateMutability": "nonpayable",
      "type": "constructor"
    },
    {
      "inputs": [
        {
          "internalType": "address",
          "name": "have",
          "type": "address"
        },
        {
          "internalType": "address",
          "name": "want",
          "type": "address"
        }
      ],
      "name": "OnlyCoordinatorCanFulfill",
      "type": "error"
    },
    {
      "inputs": [],
      "name": "OnlySimulatedBackend",
      "type": "error"
    },
    {
      "inputs": [],
      "name": "Raffle_Not_Open",
      "type": "error"
    },
    {
      "inputs": [],
      "name": "Raffle_TransferUnsuccessful",
      "type": "error"
    },
    {
      "inputs": [],
      "name": "Raffle__SendMoreToEnterRaffle",
      "type": "error"
    },
    {
      "inputs": [
        {
          "internalType": "uint256",
          "name": "currentBalance",
          "type": "uint256"
        },
        {
          "internalType": "uint256",
          "name": "numPlayers",
          "type": "uint256"
        },
        {
          "internalType": "uint256",
          "name": "raffleState",
          "type": "uint256"
        }
      ],
      "name": "checkUpkeep_Not_Needed",
      "type": "error"
    },
    {
      "anonymous": false,
      "inputs": [
        {
          "indexed": true,
          "internalType": "uint256",
          "name": "requestId",
          "type": "uint256"
        }
      ],
      "name": "RequestedRandomWords",
      "type": "event"
    },
    {
      "anonymous": false,
      "inputs": [
        {
          "indexed": true,
          "internalType": "address",
          "name": "player",
          "type": "address"
        }
      ],
      "name": "raffleEnter",
      "type": "event"
    },
    {
      "anonymous": false,
      "inputs": [
        {
          "indexed": true,
          "internalType": "address",
          "name": "winner",
          "type": "address"
        }
      ],
      "name": "winnerPicked",
      "type": "event"
    },
    {
      "inputs": [],
      "name": "changerafflestate",
      "outputs": [],
      "stateMutability": "nonpayable",
      "type": "function"
    },
    {
      "inputs": [
        {
          "internalType": "bytes",
          "name": "",
          "type": "bytes"
        }
      ],
      "name": "checkUpkeep",
      "outputs": [
        {
          "internalType": "bool",
          "name": "upkeepNeeded",
          "type": "bool"
        },
        {
          "internalType": "bytes",
          "name": "",
          "type": "bytes"
        }
      ],
      "stateMutability": "view",
      "type": "function"
    },
    {
      "inputs": [],
      "name": "enterRaffle",
      "outputs": [],
      "stateMutability": "payable",
      "type": "function"
    },
    {
      "inputs": [],
      "name": "getAllPlayers",
      "outputs": [
        {
          "internalType": "address payable[]",
          "name": "",
          "type": "address[]"
        }
      ],
      "stateMutability": "view",
      "type": "function"
    },
    {
      "inputs": [],
      "name": "getAllPlayersCount",
      "outputs": [
        {
          "internalType": "uint256",
          "name": "",
          "type": "uint256"
        }
      ],
      "stateMutability": "view",
      "type": "function"
    },
    {
      "inputs": [],
      "name": "getEntranceFee",
      "outputs": [
        {
          "internalType": "uint256",
          "name": "",
          "type": "uint256"
        }
      ],
      "stateMutability": "view",
      "type": "function"
    },
    {
      "inputs": [],
      "name": "getInterval",
      "outputs": [
        {
          "internalType": "uint256",
          "name": "",
          "type": "uint256"
        }
      ],
      "stateMutability": "view",
      "type": "function"
    },
    {
      "inputs": [],
      "name": "getLastTimeStamp",
      "outputs": [
        {
          "internalType": "uint256",
          "name": "",
          "type": "uint256"
        }
      ],
      "stateMutability": "view",
      "type": "function"
    },
    {
      "inputs": [
        {
          "internalType": "uint256",
          "name": "index",
          "type": "uint256"
        }
      ],
      "name": "getPlayer",
      "outputs": [
        {
          "internalType": "address payable",
          "name": "",
          "type": "address"
        }
      ],
      "stateMutability": "view",
      "type": "function"
    },
    {
      "inputs": [],
      "name": "getRaffleState",
      "outputs": [
        {
          "internalType": "enum OldRaffle.RaffleState",
          "name": "",
          "type": "uint8"
        }
      ],
      "stateMutability": "view",
      "type": "function"
    },
    {
      "inputs": [],
      "name": "getRecentWinner",
      "outputs": [
        {
          "internalType": "address",
          "name": "",
          "type": "address"
        }
      ],
      "stateMutability": "view",
      "type": "function"
    },
    {
      "inputs": [
        {
          "internalType": "bytes",
          "name": "",
          "type": "bytes"
        }
      ],
      "name": "performUpkeep",
      "outputs": [],
      "stateMutability": "nonpayable",
      "type": "function"
    },
    {
      "inputs": [
        {
          "internalType": "uint256",
          "name": "requestId",
          "type": "uint256"
        },
        {
          "internalType": "uint256[]",
          "name": "randomWords",
          "type": "uint256[]"
        }
      ],
      "name": "rawFulfillRandomWords",
      "outputs": [],
      "stateMutability": "nonpayable",
      "type": "function"
    }
  ],
  "bytecode": "0x61016060405234801561001157600080fd5b50604051611a22380380611a228339818101604052810190610033919061021c565b858073ffffffffffffffffffffffffffffffffffffffff1660808173ffffffffffffffffffffffffffffffffffffffff1681525050508460a081815250508573ffffffffffffffffffffffffffffffffffffffff1660c08173ffffffffffffffffffffffffffffffffffffffff16815250508360e081815250508263ffffffff166101008163ffffffff16815250508161012081815250506000600460006101000a81548160ff021916908360018111156100f1576100f06102a9565b5b0217905550806101408181525050426003819055505050505050506102d8565b600080fd5b600073ffffffffffffffffffffffffffffffffffffffff82169050919050565b600061014182610116565b9050919050565b61015181610136565b811461015c57600080fd5b50565b60008151905061016e81610148565b92915050565b6000819050919050565b61018781610174565b811461019257600080fd5b50565b6000815190506101a48161017e565b92915050565b600063ffffffff82169050919050565b6101c3816101aa565b81146101ce57600080fd5b50565b6000815190506101e0816101ba565b92915050565b6000819050919050565b6101f9816101e6565b811461020457600080fd5b50565b600081519050610216816101f0565b92915050565b60008060008060008060c0878903121561023957610238610111565b5b600061024789828a0161015f565b965050602061025889828a01610195565b955050604061026989828a01610195565b945050606061027a89828a016101d1565b935050608061028b89828a01610207565b92505060a061029c89828a01610195565b9150509295509295509295565b7f4e487b7100000000000000000000000000000000000000000000000000000000600052602160045260246000fd5b60805160a05160c05160e0516101005161012051610140516116db610347600039600081816107d301526108da0152600061066a015260006106ae0152600061068b0152600061062e0152600081816102e60152610450015260008181610323015261037701526116db6000f3fe6080604052600436106100c25760003560e01c80636e04ff0d1161007f578063c1c244e811610059578063c1c244e814610224578063e55ae4e81461024f578063efa1c4821461028c578063f80b82f7146102b7576100c2565b80636e04ff0d146101a45780638a84c58e146101e257806391ad27b4146101f9576100c2565b806309bc33a7146100c7578063115cbaf5146100f25780631fe543e31461011d5780632cfcc539146101465780634585e33b14610150578063473f1ddc14610179575b600080fd5b3480156100d357600080fd5b506100dc6102e2565b6040516100e99190610d49565b60405180910390f35b3480156100fe57600080fd5b5061010761030a565b6040516101149190610ddb565b60405180910390f35b34801561012957600080fd5b50610144600480360381019061013f9190610f8f565b610321565b005b61014e6103e1565b005b34801561015c57600080fd5b5061017760048036038101906101729190611046565b610550565b005b34801561018557600080fd5b5061018e610767565b60405161019b91906110d4565b60405180910390f35b3480156101b057600080fd5b506101cb60048036038101906101c691906111a4565b610791565b6040516101d9929190611287565b60405180910390f35b3480156101ee57600080fd5b506101f761083d565b005b34801561020557600080fd5b5061020e6108d6565b60405161021b9190610d49565b60405180910390f35b34801561023057600080fd5b506102396108fe565b6040516102469190610d49565b60405180910390f35b34801561025b57600080fd5b50610276600480360381019061027191906112b7565b610908565b6040516102839190611305565b60405180910390f35b34801561029857600080fd5b506102a161094f565b6040516102ae91906113de565b60405180910390f35b3480156102c357600080fd5b506102cc6109dd565b6040516102d99190610d49565b60405180910390f35b60007f0000000000000000000000000000000000000000000000000000000000000000905090565b6000600460009054906101000a900460ff16905090565b7f000000000000000000000000000000000000000000000000000000000000000073ffffffffffffffffffffffffffffffffffffffff163373ffffffffffffffffffffffffffffffffffffffff16146103d357337f00000000000000000000000000000000000000000000000000000000000000006040517f1cf993f40000000000000000000000000000000000000000000000000000000081526004016103ca929190611400565b60405180910390fd5b6103dd82826109e9565b5050565b600060018111156103f5576103f4610d64565b5b600460009054906101000a900460ff16600181111561041757610416610d64565b5b1461044e576040517f286c89dd00000000000000000000000000000000000000000000000000000000815260040160405180910390fd5b7f00000000000000000000000000000000000000000000000000000000000000003410156104a8576040517f3038c00a00000000000000000000000000000000000000000000000000000000815260040160405180910390fd5b6000339080600181540180825580915050600190039060005260206000200160009091909190916101000a81548173ffffffffffffffffffffffffffffffffffffffff021916908373ffffffffffffffffffffffffffffffffffffffff1602179055503373ffffffffffffffffffffffffffffffffffffffff167f742d070bf0f3edace132a9da8ba725e8cf99c478869cee7f673ed6085e2f8e6460405160405180910390a2565b60006105906040518060400160405280600281526020017f3078000000000000000000000000000000000000000000000000000000000000815250610791565b509050806105ff5747600080549050600460009054906101000a900460ff1660018111156105c1576105c0610d64565b5b6040517f5711a4030000000000000000000000000000000000000000000000000000000081526004016105f693929190611429565b60405180910390fd5b6001600460006101000a81548160ff0219169083600181111561062557610624610d64565b5b021790555060007f000000000000000000000000000000000000000000000000000000000000000073ffffffffffffffffffffffffffffffffffffffff16635d3b1d307f00000000000000000000000000000000000000000000000000000000000000007f000000000000000000000000000000000000000000000000000000000000000060037f000000000000000000000000000000000000000000000000000000000000000060016040518663ffffffff1660e01b81526004016106ef9594939291906114d8565b6020604051808303816000875af115801561070e573d6000803e3d6000fd5b505050506040513d601f19601f820116820180604052508101906107329190611540565b9050807fc3d0c9fbc1987665462eec0262eb7fc743a27d411fd3a0b9c20c1c64d99347d360405160405180910390a250505050565b6000600160009054906101000a900473ffffffffffffffffffffffffffffffffffffffff16905090565b6000606060008060018111156107aa576107a9610d64565b5b600460009054906101000a900460ff1660018111156107cc576107cb610d64565b5b14905060007f000000000000000000000000000000000000000000000000000000000000000060035442610800919061159c565b119050600080600080549050119050600080471190508380156108205750825b80156108295750815b80156108325750805b955050505050915091565b6000600181111561085157610850610d64565b5b600460009054906101000a900460ff16600181111561087357610872610d64565b5b036108a8576001600460006101000a81548160ff0219169083600181111561089e5761089d610d64565b5b02179055506108d4565b6000600460006101000a81548160ff021916908360018111156108ce576108cd610d64565b5b02179055505b565b60007f0000000000000000000000000000000000000000000000000000000000000000905090565b6000600354905090565b600080828154811061091d5761091c6115d0565b5b9060005260206000200160009054906101000a900473ffffffffffffffffffffffffffffffffffffffff169050919050565b606060008054806020026020016040519081016040528092919081815260200182805480156109d357602002820191906000526020600020905b8160009054906101000a900473ffffffffffffffffffffffffffffffffffffffff1673ffffffffffffffffffffffffffffffffffffffff1681526020019060010190808311610989575b5050505050905090565b60008080549050905090565b6001600460006101000a81548160ff02191690836001811115610a0f57610a0e610d64565b5b02179055506000808054905082600081518110610a2f57610a2e6115d0565b5b6020026020010151610a41919061162e565b90506000808281548110610a5857610a576115d0565b5b9060005260206000200160009054906101000a900473ffffffffffffffffffffffffffffffffffffffff16905080600160006101000a81548173ffffffffffffffffffffffffffffffffffffffff021916908373ffffffffffffffffffffffffffffffffffffffff1602179055506000600460006101000a81548160ff02191690836001811115610aec57610aeb610d64565b5b0217905550600067ffffffffffffffff811115610b0c57610b0b610e4c565b5b604051908082528060200260200182016040528015610b3a5781602001602082028036833780820191505090505b5060009080519060200190610b50929190610c89565b50426003819055506000600160009054906101000a900473ffffffffffffffffffffffffffffffffffffffff1673ffffffffffffffffffffffffffffffffffffffff1647604051610ba090611690565b60006040518083038185875af1925050503d8060008114610bdd576040519150601f19603f3d011682016040523d82523d6000602084013e610be2565b606091505b5050905080610c1d576040517f5714df0a00000000000000000000000000000000000000000000000000000000815260040160405180910390fd5b600160009054906101000a900473ffffffffffffffffffffffffffffffffffffffff1673ffffffffffffffffffffffffffffffffffffffff167f794919b0f484b8e90b1b817ac7f880f846fbd8a9813dee2a378e820db094e3d160405160405180910390a25050505050565b828054828255906000526020600020908101928215610d02579160200282015b82811115610d015782518260006101000a81548173ffffffffffffffffffffffffffffffffffffffff021916908373ffffffffffffffffffffffffffffffffffffffff16021790555091602001919060010190610ca9565b5b509050610d0f9190610d13565b5090565b5b80821115610d2c576000816000905550600101610d14565b5090565b6000819050919050565b610d4381610d30565b82525050565b6000602082019050610d5e6000830184610d3a565b92915050565b7f4e487b7100000000000000000000000000000000000000000000000000000000600052602160045260246000fd5b60028110610da457610da3610d64565b5b50565b6000819050610db582610d93565b919050565b6000610dc582610da7565b9050919050565b610dd581610dba565b82525050565b6000602082019050610df06000830184610dcc565b92915050565b6000604051905090565b600080fd5b600080fd5b610e1381610d30565b8114610e1e57600080fd5b50565b600081359050610e3081610e0a565b92915050565b600080fd5b6000601f19601f8301169050919050565b7f4e487b7100000000000000000000000000000000000000000000000000000000600052604160045260246000fd5b610e8482610e3b565b810181811067ffffffffffffffff82111715610ea357610ea2610e4c565b5b80604052505050565b6000610eb6610df6565b9050610ec28282610e7b565b919050565b600067ffffffffffffffff821115610ee257610ee1610e4c565b5b602082029050602081019050919050565b600080fd5b6000610f0b610f0684610ec7565b610eac565b90508083825260208201905060208402830185811115610f2e57610f2d610ef3565b5b835b81811015610f575780610f438882610e21565b845260208401935050602081019050610f30565b5050509392505050565b600082601f830112610f7657610f75610e36565b5b8135610f86848260208601610ef8565b91505092915050565b60008060408385031215610fa657610fa5610e00565b5b6000610fb485828601610e21565b925050602083013567ffffffffffffffff811115610fd557610fd4610e05565b5b610fe185828601610f61565b9150509250929050565b600080fd5b60008083601f84011261100657611005610e36565b5b8235905067ffffffffffffffff81111561102357611022610feb565b5b60208301915083600182028301111561103f5761103e610ef3565b5b9250929050565b6000806020838503121561105d5761105c610e00565b5b600083013567ffffffffffffffff81111561107b5761107a610e05565b5b61108785828601610ff0565b92509250509250929050565b600073ffffffffffffffffffffffffffffffffffffffff82169050919050565b60006110be82611093565b9050919050565b6110ce816110b3565b82525050565b60006020820190506110e960008301846110c5565b92915050565b600080fd5b600067ffffffffffffffff82111561110f5761110e610e4c565b5b61111882610e3b565b9050602081019050919050565b82818337600083830152505050565b6000611147611142846110f4565b610eac565b905082815260208101848484011115611163576111626110ef565b5b61116e848285611125565b509392505050565b600082601f83011261118b5761118a610e36565b5b813561119b848260208601611134565b91505092915050565b6000602082840312156111ba576111b9610e00565b5b600082013567ffffffffffffffff8111156111d8576111d7610e05565b5b6111e484828501611176565b91505092915050565b60008115159050919050565b611202816111ed565b82525050565b600081519050919050565b600082825260208201905092915050565b60005b83811015611242578082015181840152602081019050611227565b60008484015250505050565b600061125982611208565b6112638185611213565b9350611273818560208601611224565b61127c81610e3b565b840191505092915050565b600060408201905061129c60008301856111f9565b81810360208301526112ae818461124e565b90509392505050565b6000602082840312156112cd576112cc610e00565b5b60006112db84828501610e21565b91505092915050565b60006112ef82611093565b9050919050565b6112ff816112e4565b82525050565b600060208201905061131a60008301846112f6565b92915050565b600081519050919050565b600082825260208201905092915050565b6000819050602082019050919050565b611355816112e4565b82525050565b6000611367838361134c565b60208301905092915050565b6000602082019050919050565b600061138b82611320565b611395818561132b565b93506113a08361133c565b8060005b838110156113d15781516113b8888261135b565b97506113c383611373565b9250506001810190506113a4565b5085935050505092915050565b600060208201905081810360008301526113f88184611380565b905092915050565b600060408201905061141560008301856110c5565b61142260208301846110c5565b9392505050565b600060608201905061143e6000830186610d3a565b61144b6020830185610d3a565b6114586040830184610d3a565b949350505050565b6000819050919050565b61147381611460565b82525050565b600067ffffffffffffffff82169050919050565b61149681611479565b82525050565b600061ffff82169050919050565b6114b38161149c565b82525050565b600063ffffffff82169050919050565b6114d2816114b9565b82525050565b600060a0820190506114ed600083018861146a565b6114fa602083018761148d565b61150760408301866114aa565b61151460608301856114c9565b61152160808301846114c9565b9695505050505050565b60008151905061153a81610e0a565b92915050565b60006020828403121561155657611555610e00565b5b60006115648482850161152b565b91505092915050565b7f4e487b7100000000000000000000000000000000000000000000000000000000600052601160045260246000fd5b60006115a782610d30565b91506115b283610d30565b92508282039050818111156115ca576115c961156d565b5b92915050565b7f4e487b7100000000000000000000000000000000000000000000000000000000600052603260045260246000fd5b7f4e487b7100000000000000000000000000000000000000000000000000000000600052601260045260246000fd5b600061163982610d30565b915061164483610d30565b925082611654576116536115ff565b5b828206905092915050565b600081905092915050565b50565b600061167a60008361165f565b91506116858261166a565b600082019050919050565b600061169b8261166d565b915081905091905056fea264697066735822122095f79b498f5f926dc9ed9889d7279c2c1f6e040a214afdb871ef1e22aa866af764736f6c634300081c0033",
  "linkReferences": {},
  "deployedLinkReferences": {}
}