{
  "address": "0xCf7Ed3AccA5a467e9e704C703E8D87F634fB0Fc9",
  "abi": [
    {
      "inputs": [
        {
          "internalType": "address",
          "name": "vrfCoordinatorV2",
          "type": "address"
        },
        {
          "internalType": "uint256",
          "name": "entrancefee",
          "type": "uint256"
        },
        {
          "internalType": "uint256",
          "name": "subscriptionId",
          "type": "uint256"
        },
        {
          "internalType": "uint32",
          "name": "callbackGasLimit",
          "type": "uint32"
        },
        {
          "internalType": "bytes32",
          "name": "gasLane",
          "type": "bytes32"
        },
        {
          "internalType": "uint256",
          "name": "interval",
          "type": "uint256"
        }
      ],
      "stateMutability": "nonpayable",
      "type": "constructor"
    },
    {
      "inputs": [
        {
          "internalType": "address",
          "name": "have",
          "type": "address"
        },
        {
          "internalType": "address",
          "name": "want",
          "type": "address"
        }
      ],
      "name": "OnlyCoordinatorCanFulfill",
      "type": "error"
    },
    {
      "inputs": [],
      "name": "OnlySimulatedBackend",
      "type": "error"
    },
    {
      "inputs": [],
      "name": "Raffle_Not_Open",
      "type": "error"
    },
    {
      "inputs": [],
      "name": "Raffle_TransferUnsuccessful",
      "type": "error"
    },
    {
      "inputs": [],
      "name": "Raffle__SendMoreToEnterRaffle",
      "type": "error"
    },
    {
      "inputs": [
        {
          "internalType": "uint256",
          "name": "currentBalance",
          "type": "uint256"
        },
        {
          "internalType": "uint256",
          "name": "numPlayers",
          "type": "uint256"
        },
        {
          "internalType": "uint256",
          "name": "raffleState",
          "type": "uint256"
        }
      ],
      "name": "checkUpkeep_Not_Needed",
      "type": "error"
    },
    {
      "anonymous": false,
      "inputs": [
        {
          "indexed": true,
          "internalType": "uint256",
          "name": "requestId",
          "type": "uint256"
        }
      ],
      "name": "RequestedRandomWords",
      "type": "event"
    },
    {
      "anonymous": false,
      "inputs": [
        {
          "indexed": true,
          "internalType": "address",
          "name": "player",
          "type": "address"
        }
      ],
      "name": "raffleEnter",
      "type": "event"
    },
    {
      "anonymous": false,
      "inputs": [
        {
          "indexed": true,
          "internalType": "address",
          "name": "winner",
          "type": "address"
        }
      ],
      "name": "winnerPicked",
      "type": "event"
    },
    {
      "inputs": [],
      "name": "changerafflestate",
      "outputs": [],
      "stateMutability": "nonpayable",
      "type": "function"
    },
    {
      "inputs": [
        {
          "internalType": "bytes",
          "name": "",
          "type": "bytes"
        }
      ],
      "name": "checkUpkeep",
      "outputs": [
        {
          "internalType": "bool",
          "name": "upkeepNeeded",
          "type": "bool"
        },
        {
          "internalType": "bytes",
          "name": "",
          "type": "bytes"
        }
      ],
      "stateMutability": "view",
      "type": "function"
    },
    {
      "inputs": [],
      "name": "enterRaffle",
      "outputs": [],
      "stateMutability": "payable",
      "type": "function"
    },
    {
      "inputs": [],
      "name": "getEntranceFee",
      "outputs": [
        {
          "internalType": "uint256",
          "name": "",
          "type": "uint256"
        }
      ],
      "stateMutability": "view",
      "type": "function"
    },
    {
      "inputs": [],
      "name": "getInterval",
      "outputs": [
        {
          "internalType": "uint256",
          "name": "",
          "type": "uint256"
        }
      ],
      "stateMutability": "view",
      "type": "function"
    },
    {
      "inputs": [],
      "name": "getLastTimeStamp",
      "outputs": [
        {
          "internalType": "uint256",
          "name": "",
          "type": "uint256"
        }
      ],
      "stateMutability": "view",
      "type": "function"
    },
    {
      "inputs": [
        {
          "internalType": "uint256",
          "name": "index",
          "type": "uint256"
        }
      ],
      "name": "getPlayer",
      "outputs": [
        {
          "internalType": "address payable",
          "name": "",
          "type": "address"
        }
      ],
      "stateMutability": "view",
      "type": "function"
    },
    {
      "inputs": [],
      "name": "getRaffleState",
      "outputs": [
        {
          "internalType": "enum Raffle.RaffleState",
          "name": "",
          "type": "uint8"
        }
      ],
      "stateMutability": "view",
      "type": "function"
    },
    {
      "inputs": [],
      "name": "getRecentWinner",
      "outputs": [
        {
          "internalType": "address",
          "name": "",
          "type": "address"
        }
      ],
      "stateMutability": "view",
      "type": "function"
    },
    {
      "inputs": [
        {
          "internalType": "bytes",
          "name": "",
          "type": "bytes"
        }
      ],
      "name": "performUpkeep",
      "outputs": [],
      "stateMutability": "nonpayable",
      "type": "function"
    },
    {
      "inputs": [
        {
          "internalType": "uint256",
          "name": "requestId",
          "type": "uint256"
        },
        {
          "internalType": "uint256[]",
          "name": "randomWords",
          "type": "uint256[]"
        }
      ],
      "name": "rawFulfillRandomWords",
      "outputs": [],
      "stateMutability": "nonpayable",
      "type": "function"
    }
  ],
  "transactionHash": "0x70b5f6618d17eb645580e48276d625be7624c2a1d1cc2abe6512cdd71b49abdc",
  "args": [
    "0x5FbDB2315678afecb367f032d93F642f64180aa3",
    "10000000000000000",
    "1",
    "500000",
    "0x787d74caea10b2b357790d5b5247c2f63d1d91572a9846f780606e4d953677ae",
    30
  ],
  "numDeployments": 1,
  "solcInputHash": "09f1ffce60da65524624b907f59883c8",
  "bytecode": "0x61016060405234801561001157600080fd5b506040516118063803806118068339818101604052810190610033919061021c565b858073ffffffffffffffffffffffffffffffffffffffff1660808173ffffffffffffffffffffffffffffffffffffffff1681525050508460a081815250508573ffffffffffffffffffffffffffffffffffffffff1660c08173ffffffffffffffffffffffffffffffffffffffff16815250508360e081815250508263ffffffff166101008163ffffffff16815250508161012081815250506000600460006101000a81548160ff021916908360018111156100f1576100f06102a9565b5b0217905550806101408181525050426003819055505050505050506102d8565b600080fd5b600073ffffffffffffffffffffffffffffffffffffffff82169050919050565b600061014182610116565b9050919050565b61015181610136565b811461015c57600080fd5b50565b60008151905061016e81610148565b92915050565b6000819050919050565b61018781610174565b811461019257600080fd5b50565b6000815190506101a48161017e565b92915050565b600063ffffffff82169050919050565b6101c3816101aa565b81146101ce57600080fd5b50565b6000815190506101e0816101ba565b92915050565b6000819050919050565b6101f9816101e6565b811461020457600080fd5b50565b600081519050610216816101f0565b92915050565b60008060008060008060c0878903121561023957610238610111565b5b600061024789828a0161015f565b965050602061025889828a01610195565b955050604061026989828a01610195565b945050606061027a89828a016101d1565b935050608061028b89828a01610207565b92505060a061029c89828a01610195565b9150509295509295509295565b7f4e487b7100000000000000000000000000000000000000000000000000000000600052602160045260246000fd5b60805160a05160c05160e0516101005161012051610140516114bf610347600039600081816107310152610838015260006105c80152600061060c015260006105e90152600061058c01526000818161026a01526103d40152600081816102a701526102fb01526114bf6000f3fe60806040526004361061009c5760003560e01c8063473f1ddc11610064578063473f1ddc146101535780636e04ff0d1461017e5780638a84c58e146101bc57806391ad27b4146101d3578063c1c244e8146101fe578063e55ae4e8146102295761009c565b806309bc33a7146100a1578063115cbaf5146100cc5780631fe543e3146100f75780632cfcc539146101205780634585e33b1461012a575b600080fd5b3480156100ad57600080fd5b506100b6610266565b6040516100c39190610c0d565b60405180910390f35b3480156100d857600080fd5b506100e161028e565b6040516100ee9190610c9f565b60405180910390f35b34801561010357600080fd5b5061011e60048036038101906101199190610e53565b6102a5565b005b610128610365565b005b34801561013657600080fd5b50610151600480360381019061014c9190610f0a565b6104d4565b005b34801561015f57600080fd5b506101686106c5565b6040516101759190610f98565b60405180910390f35b34801561018a57600080fd5b506101a560048036038101906101a09190611068565b6106ef565b6040516101b392919061114b565b60405180910390f35b3480156101c857600080fd5b506101d161079b565b005b3480156101df57600080fd5b506101e8610834565b6040516101f59190610c0d565b60405180910390f35b34801561020a57600080fd5b5061021361085c565b6040516102209190610c0d565b60405180910390f35b34801561023557600080fd5b50610250600480360381019061024b919061117b565b610866565b60405161025d91906111c9565b60405180910390f35b60007f0000000000000000000000000000000000000000000000000000000000000000905090565b6000600460009054906101000a900460ff16905090565b7f000000000000000000000000000000000000000000000000000000000000000073ffffffffffffffffffffffffffffffffffffffff163373ffffffffffffffffffffffffffffffffffffffff161461035757337f00000000000000000000000000000000000000000000000000000000000000006040517f1cf993f400000000000000000000000000000000000000000000000000000000815260040161034e9291906111e4565b60405180910390fd5b61036182826108ad565b5050565b6000600181111561037957610378610c28565b5b600460009054906101000a900460ff16600181111561039b5761039a610c28565b5b146103d2576040517f286c89dd00000000000000000000000000000000000000000000000000000000815260040160405180910390fd5b7f000000000000000000000000000000000000000000000000000000000000000034101561042c576040517f3038c00a00000000000000000000000000000000000000000000000000000000815260040160405180910390fd5b6000339080600181540180825580915050600190039060005260206000200160009091909190916101000a81548173ffffffffffffffffffffffffffffffffffffffff021916908373ffffffffffffffffffffffffffffffffffffffff1602179055503373ffffffffffffffffffffffffffffffffffffffff167f742d070bf0f3edace132a9da8ba725e8cf99c478869cee7f673ed6085e2f8e6460405160405180910390a2565b60006104ee604051806020016040528060008152506106ef565b5090508061055d5747600080549050600460009054906101000a900460ff16600181111561051f5761051e610c28565b5b6040517f5711a4030000000000000000000000000000000000000000000000000000000081526004016105549392919061120d565b60405180910390fd5b6001600460006101000a81548160ff0219169083600181111561058357610582610c28565b5b021790555060007f000000000000000000000000000000000000000000000000000000000000000073ffffffffffffffffffffffffffffffffffffffff16635d3b1d307f00000000000000000000000000000000000000000000000000000000000000007f000000000000000000000000000000000000000000000000000000000000000060037f000000000000000000000000000000000000000000000000000000000000000060016040518663ffffffff1660e01b815260040161064d9594939291906112bc565b6020604051808303816000875af115801561066c573d6000803e3d6000fd5b505050506040513d601f19601f820116820180604052508101906106909190611324565b9050807fc3d0c9fbc1987665462eec0262eb7fc743a27d411fd3a0b9c20c1c64d99347d360405160405180910390a250505050565b6000600160009054906101000a900473ffffffffffffffffffffffffffffffffffffffff16905090565b60006060600080600181111561070857610707610c28565b5b600460009054906101000a900460ff16600181111561072a57610729610c28565b5b14905060007f00000000000000000000000000000000000000000000000000000000000000006003544261075e9190611380565b1190506000806000805490501190506000804711905083801561077e5750825b80156107875750815b80156107905750805b955050505050915091565b600060018111156107af576107ae610c28565b5b600460009054906101000a900460ff1660018111156107d1576107d0610c28565b5b03610806576001600460006101000a81548160ff021916908360018111156107fc576107fb610c28565b5b0217905550610832565b6000600460006101000a81548160ff0219169083600181111561082c5761082b610c28565b5b02179055505b565b60007f0000000000000000000000000000000000000000000000000000000000000000905090565b6000600354905090565b600080828154811061087b5761087a6113b4565b5b9060005260206000200160009054906101000a900473ffffffffffffffffffffffffffffffffffffffff169050919050565b6001600460006101000a81548160ff021916908360018111156108d3576108d2610c28565b5b021790555060008080549050826000815181106108f3576108f26113b4565b5b60200260200101516109059190611412565b9050600080828154811061091c5761091b6113b4565b5b9060005260206000200160009054906101000a900473ffffffffffffffffffffffffffffffffffffffff16905080600160006101000a81548173ffffffffffffffffffffffffffffffffffffffff021916908373ffffffffffffffffffffffffffffffffffffffff1602179055506000600460006101000a81548160ff021916908360018111156109b0576109af610c28565b5b0217905550600067ffffffffffffffff8111156109d0576109cf610d10565b5b6040519080825280602002602001820160405280156109fe5781602001602082028036833780820191505090505b5060009080519060200190610a14929190610b4d565b50426003819055506000600160009054906101000a900473ffffffffffffffffffffffffffffffffffffffff1673ffffffffffffffffffffffffffffffffffffffff1647604051610a6490611474565b60006040518083038185875af1925050503d8060008114610aa1576040519150601f19603f3d011682016040523d82523d6000602084013e610aa6565b606091505b5050905080610ae1576040517f5714df0a00000000000000000000000000000000000000000000000000000000815260040160405180910390fd5b600160009054906101000a900473ffffffffffffffffffffffffffffffffffffffff1673ffffffffffffffffffffffffffffffffffffffff167f794919b0f484b8e90b1b817ac7f880f846fbd8a9813dee2a378e820db094e3d160405160405180910390a25050505050565b828054828255906000526020600020908101928215610bc6579160200282015b82811115610bc55782518260006101000a81548173ffffffffffffffffffffffffffffffffffffffff021916908373ffffffffffffffffffffffffffffffffffffffff16021790555091602001919060010190610b6d565b5b509050610bd39190610bd7565b5090565b5b80821115610bf0576000816000905550600101610bd8565b5090565b6000819050919050565b610c0781610bf4565b82525050565b6000602082019050610c226000830184610bfe565b92915050565b7f4e487b7100000000000000000000000000000000000000000000000000000000600052602160045260246000fd5b60028110610c6857610c67610c28565b5b50565b6000819050610c7982610c57565b919050565b6000610c8982610c6b565b9050919050565b610c9981610c7e565b82525050565b6000602082019050610cb46000830184610c90565b92915050565b6000604051905090565b600080fd5b600080fd5b610cd781610bf4565b8114610ce257600080fd5b50565b600081359050610cf481610cce565b92915050565b600080fd5b6000601f19601f8301169050919050565b7f4e487b7100000000000000000000000000000000000000000000000000000000600052604160045260246000fd5b610d4882610cff565b810181811067ffffffffffffffff82111715610d6757610d66610d10565b5b80604052505050565b6000610d7a610cba565b9050610d868282610d3f565b919050565b600067ffffffffffffffff821115610da657610da5610d10565b5b602082029050602081019050919050565b600080fd5b6000610dcf610dca84610d8b565b610d70565b90508083825260208201905060208402830185811115610df257610df1610db7565b5b835b81811015610e1b5780610e078882610ce5565b845260208401935050602081019050610df4565b5050509392505050565b600082601f830112610e3a57610e39610cfa565b5b8135610e4a848260208601610dbc565b91505092915050565b60008060408385031215610e6a57610e69610cc4565b5b6000610e7885828601610ce5565b925050602083013567ffffffffffffffff811115610e9957610e98610cc9565b5b610ea585828601610e25565b9150509250929050565b600080fd5b60008083601f840112610eca57610ec9610cfa565b5b8235905067ffffffffffffffff811115610ee757610ee6610eaf565b5b602083019150836001820283011115610f0357610f02610db7565b5b9250929050565b60008060208385031215610f2157610f20610cc4565b5b600083013567ffffffffffffffff811115610f3f57610f3e610cc9565b5b610f4b85828601610eb4565b92509250509250929050565b600073ffffffffffffffffffffffffffffffffffffffff82169050919050565b6000610f8282610f57565b9050919050565b610f9281610f77565b82525050565b6000602082019050610fad6000830184610f89565b92915050565b600080fd5b600067ffffffffffffffff821115610fd357610fd2610d10565b5b610fdc82610cff565b9050602081019050919050565b82818337600083830152505050565b600061100b61100684610fb8565b610d70565b90508281526020810184848401111561102757611026610fb3565b5b611032848285610fe9565b509392505050565b600082601f83011261104f5761104e610cfa565b5b813561105f848260208601610ff8565b91505092915050565b60006020828403121561107e5761107d610cc4565b5b600082013567ffffffffffffffff81111561109c5761109b610cc9565b5b6110a88482850161103a565b91505092915050565b60008115159050919050565b6110c6816110b1565b82525050565b600081519050919050565b600082825260208201905092915050565b60005b838110156111065780820151818401526020810190506110eb565b60008484015250505050565b600061111d826110cc565b61112781856110d7565b93506111378185602086016110e8565b61114081610cff565b840191505092915050565b600060408201905061116060008301856110bd565b81810360208301526111728184611112565b90509392505050565b60006020828403121561119157611190610cc4565b5b600061119f84828501610ce5565b91505092915050565b60006111b382610f57565b9050919050565b6111c3816111a8565b82525050565b60006020820190506111de60008301846111ba565b92915050565b60006040820190506111f96000830185610f89565b6112066020830184610f89565b9392505050565b60006060820190506112226000830186610bfe565b61122f6020830185610bfe565b61123c6040830184610bfe565b949350505050565b6000819050919050565b61125781611244565b82525050565b600067ffffffffffffffff82169050919050565b61127a8161125d565b82525050565b600061ffff82169050919050565b61129781611280565b82525050565b600063ffffffff82169050919050565b6112b68161129d565b82525050565b600060a0820190506112d1600083018861124e565b6112de6020830187611271565b6112eb604083018661128e565b6112f860608301856112ad565b61130560808301846112ad565b9695505050505050565b60008151905061131e81610cce565b92915050565b60006020828403121561133a57611339610cc4565b5b60006113488482850161130f565b91505092915050565b7f4e487b7100000000000000000000000000000000000000000000000000000000600052601160045260246000fd5b600061138b82610bf4565b915061139683610bf4565b92508282039050818111156113ae576113ad611351565b5b92915050565b7f4e487b7100000000000000000000000000000000000000000000000000000000600052603260045260246000fd5b7f4e487b7100000000000000000000000000000000000000000000000000000000600052601260045260246000fd5b600061141d82610bf4565b915061142883610bf4565b925082611438576114376113e3565b5b828206905092915050565b600081905092915050565b50565b600061145e600083611443565b91506114698261144e565b600082019050919050565b600061147f82611451565b915081905091905056fea2646970667358221220ccee18e063c7611cccf3c26cd5e5905607c6f39a4a28620f567a15461978974f64736f6c634300081c0033",
  "devdoc": {
    "kind": "dev",
    "methods": {},
    "version": 1
  },
  "userdoc": {
    "kind": "user",
    "methods": {},
    "version": 1
  },
  "storageLayout": {
    "storage": [
      {
        "astId": 253,
        "contract": "contracts/Raffle.sol:Raffle",
        "label": "s_players",
        "offset": 0,
        "slot": "0",
        "type": "t_array(t_address_payable)dyn_storage"
      },
      {
        "astId": 260,
        "contract": "contracts/Raffle.sol:Raffle",
        "label": "recentWinner",
        "offset": 0,
        "slot": "1",
        "type": "t_address_payable"
      },
      {
        "astId": 272,
        "contract": "contracts/Raffle.sol:Raffle",
        "label": "s_isOpen",
        "offset": 0,
        "slot": "2",
        "type": "t_uint256"
      },
      {
        "astId": 276,
        "contract": "contracts/Raffle.sol:Raffle",
        "label": "s_lastTimeStamp",
        "offset": 0,
        "slot": "3",
        "type": "t_uint256"
      },
      {
        "astId": 282,
        "contract": "contracts/Raffle.sol:Raffle",
        "label": "s_raffle_state",
        "offset": 0,
        "slot": "4",
        "type": "t_enum(RaffleState)279"
      }
    ],
    "types": {
      "t_address_payable": {
        "encoding": "inplace",
        "label": "address payable",
        "numberOfBytes": "20"
      },
      "t_array(t_address_payable)dyn_storage": {
        "base": "t_address_payable",
        "encoding": "dynamic_array",
        "label": "address payable[]",
        "numberOfBytes": "32"
      },
      "t_enum(RaffleState)279": {
        "encoding": "inplace",
        "label": "enum Raffle.RaffleState",
        "numberOfBytes": "1"
      },
      "t_uint256": {
        "encoding": "inplace",
        "label": "uint256",
        "numberOfBytes": "32"
      }
    }
  }
}