{
  "address": "0xCf7Ed3AccA5a467e9e704C703E8D87F634fB0Fc9",
  "abi": [
    {
      "inputs": [
        {
          "internalType": "uint256",
          "name": "entranceFee",
          "type": "uint256"
        },
        {
          "internalType": "uint256",
          "name": "interval",
          "type": "uint256"
        }
      ],
      "stateMutability": "nonpayable",
      "type": "constructor"
    },
    {
      "inputs": [],
      "name": "Raffle__RaffleNotOpen",
      "type": "error"
    },
    {
      "inputs": [],
      "name": "Raffle__SendMoreToEnterRaffle",
      "type": "error"
    },
    {
      "inputs": [],
      "name": "Raffle__TransferFailed",
      "type": "error"
    },
    {
      "anonymous": false,
      "inputs": [
        {
          "indexed": true,
          "internalType": "address",
          "name": "player",
          "type": "address"
        }
      ],
      "name": "RaffleEnter",
      "type": "event"
    },
    {
      "anonymous": false,
      "inputs": [
        {
          "indexed": true,
          "internalType": "address",
          "name": "winner",
          "type": "address"
        }
      ],
      "name": "WinnerPicked",
      "type": "event"
    },
    {
      "inputs": [],
      "name": "checkUpkeep",
      "outputs": [
        {
          "internalType": "bool",
          "name": "upkeepNeeded",
          "type": "bool"
        }
      ],
      "stateMutability": "view",
      "type": "function"
    },
    {
      "inputs": [],
      "name": "enterRaffle",
      "outputs": [],
      "stateMutability": "payable",
      "type": "function"
    },
    {
      "inputs": [],
      "name": "getAllPlayers",
      "outputs": [
        {
          "internalType": "address payable[]",
          "name": "",
          "type": "address[]"
        }
      ],
      "stateMutability": "view",
      "type": "function"
    },
    {
      "inputs": [],
      "name": "getAllPlayersCount",
      "outputs": [
        {
          "internalType": "uint256",
          "name": "",
          "type": "uint256"
        }
      ],
      "stateMutability": "view",
      "type": "function"
    },
    {
      "inputs": [],
      "name": "getBalance",
      "outputs": [
        {
          "internalType": "uint256",
          "name": "",
          "type": "uint256"
        }
      ],
      "stateMutability": "view",
      "type": "function"
    },
    {
      "inputs": [],
      "name": "getEntranceFee",
      "outputs": [
        {
          "internalType": "uint256",
          "name": "",
          "type": "uint256"
        }
      ],
      "stateMutability": "view",
      "type": "function"
    },
    {
      "inputs": [],
      "name": "getInterval",
      "outputs": [
        {
          "internalType": "uint256",
          "name": "",
          "type": "uint256"
        }
      ],
      "stateMutability": "view",
      "type": "function"
    },
    {
      "inputs": [],
      "name": "getLastTimeStamp",
      "outputs": [
        {
          "internalType": "uint256",
          "name": "",
          "type": "uint256"
        }
      ],
      "stateMutability": "view",
      "type": "function"
    },
    {
      "inputs": [],
      "name": "getNumberOfPlayers",
      "outputs": [
        {
          "internalType": "uint256",
          "name": "",
          "type": "uint256"
        }
      ],
      "stateMutability": "view",
      "type": "function"
    },
    {
      "inputs": [
        {
          "internalType": "uint256",
          "name": "index",
          "type": "uint256"
        }
      ],
      "name": "getPlayer",
      "outputs": [
        {
          "internalType": "address",
          "name": "",
          "type": "address"
        }
      ],
      "stateMutability": "view",
      "type": "function"
    },
    {
      "inputs": [],
      "name": "getRaffleState",
      "outputs": [
        {
          "internalType": "enum Raffle.RaffleState",
          "name": "",
          "type": "uint8"
        }
      ],
      "stateMutability": "view",
      "type": "function"
    },
    {
      "inputs": [],
      "name": "getRecentWinner",
      "outputs": [
        {
          "internalType": "address",
          "name": "",
          "type": "address"
        }
      ],
      "stateMutability": "view",
      "type": "function"
    },
    {
      "inputs": [],
      "name": "performUpkeep",
      "outputs": [],
      "stateMutability": "nonpayable",
      "type": "function"
    }
  ],
  "transactionHash": "0x74f403ca103e9e0b43c3405735ea17d51588e8c2cf1d65b02264ebe3d283ff70",
  "args": [
    "500000000000000",
    60
  ],
  "numDeployments": 1,
  "solcInputHash": "8554593986a753baadfe4f4769bd50ae",
  "bytecode": "0x60c060405234801561001057600080fd5b506040516110d13803806110d1833981810160405281019061003291906100b6565b81608081815250508060a081815250506000600360006101000a81548160ff02191690836001811115610068576100676100f6565b5b0217905550426000819055505050610125565b600080fd5b6000819050919050565b61009381610080565b811461009e57600080fd5b50565b6000815190506100b08161008a565b92915050565b600080604083850312156100cd576100cc61007b565b5b60006100db858286016100a1565b92505060206100ec858286016100a1565b9150509250929050565b7f4e487b7100000000000000000000000000000000000000000000000000000000600052602160045260246000fd5b60805160a051610f79610158600039600081816107c201526108260152600081816102d701526103890152610f796000f3fe6080604052600436106100c25760003560e01c806391ad27b41161007f578063e55ae4e811610059578063e55ae4e814610215578063efa1c48214610252578063f80b82f71461027d578063fd6673f5146102a8576100c2565b806391ad27b414610194578063a13abdad146101bf578063c1c244e8146101ea576100c2565b806309bc33a7146100c7578063115cbaf5146100f257806312065fe01461011d5780632cfcc53914610148578063473f1ddc146101525780636e4d243a1461017d575b600080fd5b3480156100d357600080fd5b506100dc6102d3565b6040516100e99190610a47565b60405180910390f35b3480156100fe57600080fd5b506101076102fb565b6040516101149190610ad9565b60405180910390f35b34801561012957600080fd5b50610132610312565b60405161013f9190610a47565b60405180910390f35b61015061031a565b005b34801561015e57600080fd5b50610167610489565b6040516101749190610b35565b60405180910390f35b34801561018957600080fd5b506101926104b3565b005b3480156101a057600080fd5b506101a96107be565b6040516101b69190610a47565b60405180910390f35b3480156101cb57600080fd5b506101d46107e6565b6040516101e19190610b6b565b60405180910390f35b3480156101f657600080fd5b506101ff61088e565b60405161020c9190610a47565b60405180910390f35b34801561022157600080fd5b5061023c60048036038101906102379190610bb7565b610897565b6040516102499190610b35565b60405180910390f35b34801561025e57600080fd5b506102676108df565b6040516102749190610cb4565b60405180910390f35b34801561028957600080fd5b5061029261096d565b60405161029f9190610a47565b60405180910390f35b3480156102b457600080fd5b506102bd61097a565b6040516102ca9190610a47565b60405180910390f35b60007f0000000000000000000000000000000000000000000000000000000000000000905090565b6000600360009054906101000a900460ff16905090565b600047905090565b6000600181111561032e5761032d610a62565b5b600360009054906101000a900460ff1660018111156103505761034f610a62565b5b14610387576040517fd24a271400000000000000000000000000000000000000000000000000000000815260040160405180910390fd5b7f00000000000000000000000000000000000000000000000000000000000000003410156103e1576040517f3038c00a00000000000000000000000000000000000000000000000000000000815260040160405180910390fd5b6002339080600181540180825580915050600190039060005260206000200160009091909190916101000a81548173ffffffffffffffffffffffffffffffffffffffff021916908373ffffffffffffffffffffffffffffffffffffffff1602179055503373ffffffffffffffffffffffffffffffffffffffff167f0805e1d667bddb8a95f0f09880cf94f403fb596ce79928d9f29b74203ba284d460405160405180910390a2565b6000600160009054906101000a900473ffffffffffffffffffffffffffffffffffffffff16905090565b6104bb6107e6565b6104fa576040517f08c379a00000000000000000000000000000000000000000000000000000000081526004016104f190610d33565b60405180910390fd5b6001600360006101000a81548160ff021916908360018111156105205761051f610a62565b5b021790555060006001436105349190610d82565b404260028054905060405160200161054e93929190610e02565b6040516020818303038152906040528051906020012060001c905060006002805490508261057c9190610e6e565b90506002818154811061059257610591610e9f565b5b9060005260206000200160009054906101000a900473ffffffffffffffffffffffffffffffffffffffff16600160006101000a81548173ffffffffffffffffffffffffffffffffffffffff021916908373ffffffffffffffffffffffffffffffffffffffff160217905550600067ffffffffffffffff81111561061857610617610ece565b5b6040519080825280602002602001820160405280156106465781602001602082028036833780820191505090505b506002908051906020019061065c929190610987565b50426000819055506000600360006101000a81548160ff0219169083600181111561068a57610689610a62565b5b02179055506000600160009054906101000a900473ffffffffffffffffffffffffffffffffffffffff1673ffffffffffffffffffffffffffffffffffffffff16476040516106d790610f2e565b60006040518083038185875af1925050503d8060008114610714576040519150601f19603f3d011682016040523d82523d6000602084013e610719565b606091505b5050905080610754576040517fa1d04b3900000000000000000000000000000000000000000000000000000000815260040160405180910390fd5b600160009054906101000a900473ffffffffffffffffffffffffffffffffffffffff1673ffffffffffffffffffffffffffffffffffffffff167f5b690ec4a06fe979403046eaeea5b3ce38524683c3001f662c8b5a829632f7df60405160405180910390a2505050565b60007f0000000000000000000000000000000000000000000000000000000000000000905090565b600080600060018111156107fd576107fc610a62565b5b600360009054906101000a900460ff16600181111561081f5761081e610a62565b5b14905060007f0000000000000000000000000000000000000000000000000000000000000000600054426108539190610d82565b119050600080600280549050119050600080471190508380156108735750815b801561087c5750825b80156108855750805b94505050505090565b60008054905090565b6000600282815481106108ad576108ac610e9f565b5b9060005260206000200160009054906101000a900473ffffffffffffffffffffffffffffffffffffffff169050919050565b6060600280548060200260200160405190810160405280929190818152602001828054801561096357602002820191906000526020600020905b8160009054906101000a900473ffffffffffffffffffffffffffffffffffffffff1673ffffffffffffffffffffffffffffffffffffffff1681526020019060010190808311610919575b5050505050905090565b6000600280549050905090565b6000600280549050905090565b828054828255906000526020600020908101928215610a00579160200282015b828111156109ff5782518260006101000a81548173ffffffffffffffffffffffffffffffffffffffff021916908373ffffffffffffffffffffffffffffffffffffffff160217905550916020019190600101906109a7565b5b509050610a0d9190610a11565b5090565b5b80821115610a2a576000816000905550600101610a12565b5090565b6000819050919050565b610a4181610a2e565b82525050565b6000602082019050610a5c6000830184610a38565b92915050565b7f4e487b7100000000000000000000000000000000000000000000000000000000600052602160045260246000fd5b60028110610aa257610aa1610a62565b5b50565b6000819050610ab382610a91565b919050565b6000610ac382610aa5565b9050919050565b610ad381610ab8565b82525050565b6000602082019050610aee6000830184610aca565b92915050565b600073ffffffffffffffffffffffffffffffffffffffff82169050919050565b6000610b1f82610af4565b9050919050565b610b2f81610b14565b82525050565b6000602082019050610b4a6000830184610b26565b92915050565b60008115159050919050565b610b6581610b50565b82525050565b6000602082019050610b806000830184610b5c565b92915050565b600080fd5b610b9481610a2e565b8114610b9f57600080fd5b50565b600081359050610bb181610b8b565b92915050565b600060208284031215610bcd57610bcc610b86565b5b6000610bdb84828501610ba2565b91505092915050565b600081519050919050565b600082825260208201905092915050565b6000819050602082019050919050565b6000610c1b82610af4565b9050919050565b610c2b81610c10565b82525050565b6000610c3d8383610c22565b60208301905092915050565b6000602082019050919050565b6000610c6182610be4565b610c6b8185610bef565b9350610c7683610c00565b8060005b83811015610ca7578151610c8e8882610c31565b9750610c9983610c49565b925050600181019050610c7a565b5085935050505092915050565b60006020820190508181036000830152610cce8184610c56565b905092915050565b600082825260208201905092915050565b7f636865636b55706b6565705f4e6f745f4e656564656400000000000000000000600082015250565b6000610d1d601683610cd6565b9150610d2882610ce7565b602082019050919050565b60006020820190508181036000830152610d4c81610d10565b9050919050565b7f4e487b7100000000000000000000000000000000000000000000000000000000600052601160045260246000fd5b6000610d8d82610a2e565b9150610d9883610a2e565b9250828203905081811115610db057610daf610d53565b5b92915050565b6000819050919050565b6000819050919050565b610ddb610dd682610db6565b610dc0565b82525050565b6000819050919050565b610dfc610df782610a2e565b610de1565b82525050565b6000610e0e8286610dca565b602082019150610e1e8285610deb565b602082019150610e2e8284610deb565b602082019150819050949350505050565b7f4e487b7100000000000000000000000000000000000000000000000000000000600052601260045260246000fd5b6000610e7982610a2e565b9150610e8483610a2e565b925082610e9457610e93610e3f565b5b828206905092915050565b7f4e487b7100000000000000000000000000000000000000000000000000000000600052603260045260246000fd5b7f4e487b7100000000000000000000000000000000000000000000000000000000600052604160045260246000fd5b600081905092915050565b50565b6000610f18600083610efd565b9150610f2382610f08565b600082019050919050565b6000610f3982610f0b565b915081905091905056fea2646970667358221220f8db027948b31ca67a060340341a4589ee206ba94191bad5d51b77b24632e23364736f6c634300081c0033",
  "devdoc": {
    "kind": "dev",
    "methods": {},
    "version": 1
  },
  "userdoc": {
    "kind": "user",
    "methods": {},
    "version": 1
  },
  "storageLayout": {
    "storage": [
      {
        "astId": 1370,
        "contract": "contracts/Raffle.sol:Raffle",
        "label": "s_lastTimeStamp",
        "offset": 0,
        "slot": "0",
        "type": "t_uint256"
      },
      {
        "astId": 1372,
        "contract": "contracts/Raffle.sol:Raffle",
        "label": "s_recentWinner",
        "offset": 0,
        "slot": "1",
        "type": "t_address"
      },
      {
        "astId": 1375,
        "contract": "contracts/Raffle.sol:Raffle",
        "label": "s_players",
        "offset": 0,
        "slot": "2",
        "type": "t_array(t_address_payable)dyn_storage"
      },
      {
        "astId": 1378,
        "contract": "contracts/Raffle.sol:Raffle",
        "label": "s_raffleState",
        "offset": 0,
        "slot": "3",
        "type": "t_enum(RaffleState)1364"
      }
    ],
    "types": {
      "t_address": {
        "encoding": "inplace",
        "label": "address",
        "numberOfBytes": "20"
      },
      "t_address_payable": {
        "encoding": "inplace",
        "label": "address payable",
        "numberOfBytes": "20"
      },
      "t_array(t_address_payable)dyn_storage": {
        "base": "t_address_payable",
        "encoding": "dynamic_array",
        "label": "address payable[]",
        "numberOfBytes": "32"
      },
      "t_enum(RaffleState)1364": {
        "encoding": "inplace",
        "label": "enum Raffle.RaffleState",
        "numberOfBytes": "1"
      },
      "t_uint256": {
        "encoding": "inplace",
        "label": "uint256",
        "numberOfBytes": "32"
      }
    }
  }
}