{
  "address": "0x90d791e553335C90C50894e0F9DCFCCf8219aeDb",
  "abi": [
    {
      "inputs": [
        {
          "internalType": "address",
          "name": "vrfCoordinatorV2",
          "type": "address"
        },
        {
          "internalType": "uint256",
          "name": "entrancefee",
          "type": "uint256"
        },
        {
          "internalType": "uint256",
          "name": "subscriptionId",
          "type": "uint256"
        },
        {
          "internalType": "uint32",
          "name": "callbackGasLimit",
          "type": "uint32"
        },
        {
          "internalType": "bytes32",
          "name": "gasLane",
          "type": "bytes32"
        },
        {
          "internalType": "uint256",
          "name": "interval",
          "type": "uint256"
        }
      ],
      "stateMutability": "nonpayable",
      "type": "constructor"
    },
    {
      "inputs": [
        {
          "internalType": "address",
          "name": "have",
          "type": "address"
        },
        {
          "internalType": "address",
          "name": "want",
          "type": "address"
        }
      ],
      "name": "OnlyCoordinatorCanFulfill",
      "type": "error"
    },
    {
      "inputs": [],
      "name": "OnlySimulatedBackend",
      "type": "error"
    },
    {
      "inputs": [],
      "name": "Raffle_Not_Open",
      "type": "error"
    },
    {
      "inputs": [],
      "name": "Raffle_TransferUnsuccessful",
      "type": "error"
    },
    {
      "inputs": [],
      "name": "Raffle__SendMoreToEnterRaffle",
      "type": "error"
    },
    {
      "inputs": [
        {
          "internalType": "uint256",
          "name": "currentBalance",
          "type": "uint256"
        },
        {
          "internalType": "uint256",
          "name": "numPlayers",
          "type": "uint256"
        },
        {
          "internalType": "uint256",
          "name": "raffleState",
          "type": "uint256"
        }
      ],
      "name": "checkUpkeep_Not_Needed",
      "type": "error"
    },
    {
      "anonymous": false,
      "inputs": [
        {
          "indexed": true,
          "internalType": "uint256",
          "name": "requestId",
          "type": "uint256"
        }
      ],
      "name": "RequestedRandomWords",
      "type": "event"
    },
    {
      "anonymous": false,
      "inputs": [
        {
          "indexed": true,
          "internalType": "address",
          "name": "player",
          "type": "address"
        }
      ],
      "name": "raffleEnter",
      "type": "event"
    },
    {
      "anonymous": false,
      "inputs": [
        {
          "indexed": true,
          "internalType": "address",
          "name": "winner",
          "type": "address"
        }
      ],
      "name": "winnerPicked",
      "type": "event"
    },
    {
      "inputs": [],
      "name": "changerafflestate",
      "outputs": [],
      "stateMutability": "nonpayable",
      "type": "function"
    },
    {
      "inputs": [
        {
          "internalType": "bytes",
          "name": "",
          "type": "bytes"
        }
      ],
      "name": "checkUpkeep",
      "outputs": [
        {
          "internalType": "bool",
          "name": "upkeepNeeded",
          "type": "bool"
        },
        {
          "internalType": "bytes",
          "name": "",
          "type": "bytes"
        }
      ],
      "stateMutability": "view",
      "type": "function"
    },
    {
      "inputs": [],
      "name": "enterRaffle",
      "outputs": [],
      "stateMutability": "payable",
      "type": "function"
    },
    {
      "inputs": [],
      "name": "getEntranceFee",
      "outputs": [
        {
          "internalType": "uint256",
          "name": "",
          "type": "uint256"
        }
      ],
      "stateMutability": "view",
      "type": "function"
    },
    {
      "inputs": [],
      "name": "getInterval",
      "outputs": [
        {
          "internalType": "uint256",
          "name": "",
          "type": "uint256"
        }
      ],
      "stateMutability": "view",
      "type": "function"
    },
    {
      "inputs": [],
      "name": "getLastTimeStamp",
      "outputs": [
        {
          "internalType": "uint256",
          "name": "",
          "type": "uint256"
        }
      ],
      "stateMutability": "view",
      "type": "function"
    },
    {
      "inputs": [
        {
          "internalType": "uint256",
          "name": "index",
          "type": "uint256"
        }
      ],
      "name": "getPlayer",
      "outputs": [
        {
          "internalType": "address payable",
          "name": "",
          "type": "address"
        }
      ],
      "stateMutability": "view",
      "type": "function"
    },
    {
      "inputs": [],
      "name": "getPlayers",
      "outputs": [
        {
          "internalType": "address payable[]",
          "name": "",
          "type": "address[]"
        }
      ],
      "stateMutability": "view",
      "type": "function"
    },
    {
      "inputs": [],
      "name": "getRaffleState",
      "outputs": [
        {
          "internalType": "enum Raffle.RaffleState",
          "name": "",
          "type": "uint8"
        }
      ],
      "stateMutability": "view",
      "type": "function"
    },
    {
      "inputs": [],
      "name": "getRecentWinner",
      "outputs": [
        {
          "internalType": "address",
          "name": "",
          "type": "address"
        }
      ],
      "stateMutability": "view",
      "type": "function"
    },
    {
      "inputs": [
        {
          "internalType": "bytes",
          "name": "",
          "type": "bytes"
        }
      ],
      "name": "performUpkeep",
      "outputs": [],
      "stateMutability": "nonpayable",
      "type": "function"
    },
    {
      "inputs": [
        {
          "internalType": "uint256",
          "name": "requestId",
          "type": "uint256"
        },
        {
          "internalType": "uint256[]",
          "name": "randomWords",
          "type": "uint256[]"
        }
      ],
      "name": "rawFulfillRandomWords",
      "outputs": [],
      "stateMutability": "nonpayable",
      "type": "function"
    }
  ],
  "transactionHash": "0x9abe3a42f1b2b94e7ea861c820ab95583fc57bb2b4183030b5927cfad327d545",
  "args": [
    "0x9DdfaCa8183c41ad55329BdeeD9F6A8d53168B1B",
    "10000000000000000",
    "5664947906665132366110571317591926086476359906219000072094485355230762233068",
    "500000",
    "0x787d74caea10b2b357790d5b5247c2f63d1d91572a9846f780606e4d953677ae",
    60
  ],
  "numDeployments": 2,
  "solcInputHash": "398865ed62313fc93548072e76bc13c3",
  "bytecode": "0x61016060405234801561001157600080fd5b506040516119aa3803806119aa8339818101604052810190610033919061021c565b858073ffffffffffffffffffffffffffffffffffffffff1660808173ffffffffffffffffffffffffffffffffffffffff1681525050508460a081815250508573ffffffffffffffffffffffffffffffffffffffff1660c08173ffffffffffffffffffffffffffffffffffffffff16815250508360e081815250508263ffffffff166101008163ffffffff16815250508161012081815250506000600460006101000a81548160ff021916908360018111156100f1576100f06102a9565b5b0217905550806101408181525050426003819055505050505050506102d8565b600080fd5b600073ffffffffffffffffffffffffffffffffffffffff82169050919050565b600061014182610116565b9050919050565b61015181610136565b811461015c57600080fd5b50565b60008151905061016e81610148565b92915050565b6000819050919050565b61018781610174565b811461019257600080fd5b50565b6000815190506101a48161017e565b92915050565b600063ffffffff82169050919050565b6101c3816101aa565b81146101ce57600080fd5b50565b6000815190506101e0816101ba565b92915050565b6000819050919050565b6101f9816101e6565b811461020457600080fd5b50565b600081519050610216816101f0565b92915050565b60008060008060008060c0878903121561023957610238610111565b5b600061024789828a0161015f565b965050602061025889828a01610195565b955050604061026989828a01610195565b945050606061027a89828a016101d1565b935050608061028b89828a01610207565b92505060a061029c89828a01610195565b9150509295509295509295565b7f4e487b7100000000000000000000000000000000000000000000000000000000600052602160045260246000fd5b60805160a05160c05160e0516101005161012051610140516116636103476000396000818161076701526108fc015260006105fe015260006106420152600061061f015260006105c20152600081816102a0015261040a0152600081816102dd015261033101526116636000f3fe6080604052600436106100a75760003560e01c80636e04ff0d116100645780636e04ff0d146101895780638a84c58e146101c75780638b5b9ccc146101de57806391ad27b414610209578063c1c244e814610234578063e55ae4e81461025f576100a7565b806309bc33a7146100ac578063115cbaf5146100d75780631fe543e3146101025780632cfcc5391461012b5780634585e33b14610135578063473f1ddc1461015e575b600080fd5b3480156100b857600080fd5b506100c161029c565b6040516100ce9190610cd1565b60405180910390f35b3480156100e357600080fd5b506100ec6102c4565b6040516100f99190610d63565b60405180910390f35b34801561010e57600080fd5b5061012960048036038101906101249190610f17565b6102db565b005b61013361039b565b005b34801561014157600080fd5b5061015c60048036038101906101579190610fce565b61050a565b005b34801561016a57600080fd5b506101736106fb565b604051610180919061105c565b60405180910390f35b34801561019557600080fd5b506101b060048036038101906101ab919061112c565b610725565b6040516101be92919061120f565b60405180910390f35b3480156101d357600080fd5b506101dc6107d1565b005b3480156101ea57600080fd5b506101f361086a565b604051610200919061130f565b60405180910390f35b34801561021557600080fd5b5061021e6108f8565b60405161022b9190610cd1565b60405180910390f35b34801561024057600080fd5b50610249610920565b6040516102569190610cd1565b60405180910390f35b34801561026b57600080fd5b5061028660048036038101906102819190611331565b61092a565b604051610293919061136d565b60405180910390f35b60007f0000000000000000000000000000000000000000000000000000000000000000905090565b6000600460009054906101000a900460ff16905090565b7f000000000000000000000000000000000000000000000000000000000000000073ffffffffffffffffffffffffffffffffffffffff163373ffffffffffffffffffffffffffffffffffffffff161461038d57337f00000000000000000000000000000000000000000000000000000000000000006040517f1cf993f4000000000000000000000000000000000000000000000000000000008152600401610384929190611388565b60405180910390fd5b6103978282610971565b5050565b600060018111156103af576103ae610cec565b5b600460009054906101000a900460ff1660018111156103d1576103d0610cec565b5b14610408576040517f286c89dd00000000000000000000000000000000000000000000000000000000815260040160405180910390fd5b7f0000000000000000000000000000000000000000000000000000000000000000341015610462576040517f3038c00a00000000000000000000000000000000000000000000000000000000815260040160405180910390fd5b6000339080600181540180825580915050600190039060005260206000200160009091909190916101000a81548173ffffffffffffffffffffffffffffffffffffffff021916908373ffffffffffffffffffffffffffffffffffffffff1602179055503373ffffffffffffffffffffffffffffffffffffffff167f742d070bf0f3edace132a9da8ba725e8cf99c478869cee7f673ed6085e2f8e6460405160405180910390a2565b600061052460405180602001604052806000815250610725565b509050806105935747600080549050600460009054906101000a900460ff16600181111561055557610554610cec565b5b6040517f5711a40300000000000000000000000000000000000000000000000000000000815260040161058a939291906113b1565b60405180910390fd5b6001600460006101000a81548160ff021916908360018111156105b9576105b8610cec565b5b021790555060007f000000000000000000000000000000000000000000000000000000000000000073ffffffffffffffffffffffffffffffffffffffff16635d3b1d307f00000000000000000000000000000000000000000000000000000000000000007f000000000000000000000000000000000000000000000000000000000000000060037f000000000000000000000000000000000000000000000000000000000000000060016040518663ffffffff1660e01b8152600401610683959493929190611460565b6020604051808303816000875af11580156106a2573d6000803e3d6000fd5b505050506040513d601f19601f820116820180604052508101906106c691906114c8565b9050807fc3d0c9fbc1987665462eec0262eb7fc743a27d411fd3a0b9c20c1c64d99347d360405160405180910390a250505050565b6000600160009054906101000a900473ffffffffffffffffffffffffffffffffffffffff16905090565b60006060600080600181111561073e5761073d610cec565b5b600460009054906101000a900460ff1660018111156107605761075f610cec565b5b14905060007f0000000000000000000000000000000000000000000000000000000000000000600354426107949190611524565b119050600080600080549050119050600080471190508380156107b45750825b80156107bd5750815b80156107c65750805b955050505050915091565b600060018111156107e5576107e4610cec565b5b600460009054906101000a900460ff16600181111561080757610806610cec565b5b0361083c576001600460006101000a81548160ff0219169083600181111561083257610831610cec565b5b0217905550610868565b6000600460006101000a81548160ff0219169083600181111561086257610861610cec565b5b02179055505b565b606060008054806020026020016040519081016040528092919081815260200182805480156108ee57602002820191906000526020600020905b8160009054906101000a900473ffffffffffffffffffffffffffffffffffffffff1673ffffffffffffffffffffffffffffffffffffffff16815260200190600101908083116108a4575b5050505050905090565b60007f0000000000000000000000000000000000000000000000000000000000000000905090565b6000600354905090565b600080828154811061093f5761093e611558565b5b9060005260206000200160009054906101000a900473ffffffffffffffffffffffffffffffffffffffff169050919050565b6001600460006101000a81548160ff0219169083600181111561099757610996610cec565b5b021790555060008080549050826000815181106109b7576109b6611558565b5b60200260200101516109c991906115b6565b905060008082815481106109e0576109df611558565b5b9060005260206000200160009054906101000a900473ffffffffffffffffffffffffffffffffffffffff16905080600160006101000a81548173ffffffffffffffffffffffffffffffffffffffff021916908373ffffffffffffffffffffffffffffffffffffffff1602179055506000600460006101000a81548160ff02191690836001811115610a7457610a73610cec565b5b0217905550600067ffffffffffffffff811115610a9457610a93610dd4565b5b604051908082528060200260200182016040528015610ac25781602001602082028036833780820191505090505b5060009080519060200190610ad8929190610c11565b50426003819055506000600160009054906101000a900473ffffffffffffffffffffffffffffffffffffffff1673ffffffffffffffffffffffffffffffffffffffff1647604051610b2890611618565b60006040518083038185875af1925050503d8060008114610b65576040519150601f19603f3d011682016040523d82523d6000602084013e610b6a565b606091505b5050905080610ba5576040517f5714df0a00000000000000000000000000000000000000000000000000000000815260040160405180910390fd5b600160009054906101000a900473ffffffffffffffffffffffffffffffffffffffff1673ffffffffffffffffffffffffffffffffffffffff167f794919b0f484b8e90b1b817ac7f880f846fbd8a9813dee2a378e820db094e3d160405160405180910390a25050505050565b828054828255906000526020600020908101928215610c8a579160200282015b82811115610c895782518260006101000a81548173ffffffffffffffffffffffffffffffffffffffff021916908373ffffffffffffffffffffffffffffffffffffffff16021790555091602001919060010190610c31565b5b509050610c979190610c9b565b5090565b5b80821115610cb4576000816000905550600101610c9c565b5090565b6000819050919050565b610ccb81610cb8565b82525050565b6000602082019050610ce66000830184610cc2565b92915050565b7f4e487b7100000000000000000000000000000000000000000000000000000000600052602160045260246000fd5b60028110610d2c57610d2b610cec565b5b50565b6000819050610d3d82610d1b565b919050565b6000610d4d82610d2f565b9050919050565b610d5d81610d42565b82525050565b6000602082019050610d786000830184610d54565b92915050565b6000604051905090565b600080fd5b600080fd5b610d9b81610cb8565b8114610da657600080fd5b50565b600081359050610db881610d92565b92915050565b600080fd5b6000601f19601f8301169050919050565b7f4e487b7100000000000000000000000000000000000000000000000000000000600052604160045260246000fd5b610e0c82610dc3565b810181811067ffffffffffffffff82111715610e2b57610e2a610dd4565b5b80604052505050565b6000610e3e610d7e565b9050610e4a8282610e03565b919050565b600067ffffffffffffffff821115610e6a57610e69610dd4565b5b602082029050602081019050919050565b600080fd5b6000610e93610e8e84610e4f565b610e34565b90508083825260208201905060208402830185811115610eb657610eb5610e7b565b5b835b81811015610edf5780610ecb8882610da9565b845260208401935050602081019050610eb8565b5050509392505050565b600082601f830112610efe57610efd610dbe565b5b8135610f0e848260208601610e80565b91505092915050565b60008060408385031215610f2e57610f2d610d88565b5b6000610f3c85828601610da9565b925050602083013567ffffffffffffffff811115610f5d57610f5c610d8d565b5b610f6985828601610ee9565b9150509250929050565b600080fd5b60008083601f840112610f8e57610f8d610dbe565b5b8235905067ffffffffffffffff811115610fab57610faa610f73565b5b602083019150836001820283011115610fc757610fc6610e7b565b5b9250929050565b60008060208385031215610fe557610fe4610d88565b5b600083013567ffffffffffffffff81111561100357611002610d8d565b5b61100f85828601610f78565b92509250509250929050565b600073ffffffffffffffffffffffffffffffffffffffff82169050919050565b60006110468261101b565b9050919050565b6110568161103b565b82525050565b6000602082019050611071600083018461104d565b92915050565b600080fd5b600067ffffffffffffffff82111561109757611096610dd4565b5b6110a082610dc3565b9050602081019050919050565b82818337600083830152505050565b60006110cf6110ca8461107c565b610e34565b9050828152602081018484840111156110eb576110ea611077565b5b6110f68482856110ad565b509392505050565b600082601f83011261111357611112610dbe565b5b81356111238482602086016110bc565b91505092915050565b60006020828403121561114257611141610d88565b5b600082013567ffffffffffffffff8111156111605761115f610d8d565b5b61116c848285016110fe565b91505092915050565b60008115159050919050565b61118a81611175565b82525050565b600081519050919050565b600082825260208201905092915050565b60005b838110156111ca5780820151818401526020810190506111af565b60008484015250505050565b60006111e182611190565b6111eb818561119b565b93506111fb8185602086016111ac565b61120481610dc3565b840191505092915050565b60006040820190506112246000830185611181565b818103602083015261123681846111d6565b90509392505050565b600081519050919050565b600082825260208201905092915050565b6000819050602082019050919050565b60006112768261101b565b9050919050565b6112868161126b565b82525050565b6000611298838361127d565b60208301905092915050565b6000602082019050919050565b60006112bc8261123f565b6112c6818561124a565b93506112d18361125b565b8060005b838110156113025781516112e9888261128c565b97506112f4836112a4565b9250506001810190506112d5565b5085935050505092915050565b6000602082019050818103600083015261132981846112b1565b905092915050565b60006020828403121561134757611346610d88565b5b600061135584828501610da9565b91505092915050565b6113678161126b565b82525050565b6000602082019050611382600083018461135e565b92915050565b600060408201905061139d600083018561104d565b6113aa602083018461104d565b9392505050565b60006060820190506113c66000830186610cc2565b6113d36020830185610cc2565b6113e06040830184610cc2565b949350505050565b6000819050919050565b6113fb816113e8565b82525050565b600067ffffffffffffffff82169050919050565b61141e81611401565b82525050565b600061ffff82169050919050565b61143b81611424565b82525050565b600063ffffffff82169050919050565b61145a81611441565b82525050565b600060a08201905061147560008301886113f2565b6114826020830187611415565b61148f6040830186611432565b61149c6060830185611451565b6114a96080830184611451565b9695505050505050565b6000815190506114c281610d92565b92915050565b6000602082840312156114de576114dd610d88565b5b60006114ec848285016114b3565b91505092915050565b7f4e487b7100000000000000000000000000000000000000000000000000000000600052601160045260246000fd5b600061152f82610cb8565b915061153a83610cb8565b9250828203905081811115611552576115516114f5565b5b92915050565b7f4e487b7100000000000000000000000000000000000000000000000000000000600052603260045260246000fd5b7f4e487b7100000000000000000000000000000000000000000000000000000000600052601260045260246000fd5b60006115c182610cb8565b91506115cc83610cb8565b9250826115dc576115db611587565b5b828206905092915050565b600081905092915050565b50565b60006116026000836115e7565b915061160d826115f2565b600082019050919050565b6000611623826115f5565b915081905091905056fea2646970667358221220aa79590c9a7dc26581118cf2927c5c8369207fb03c1a14215c4c3292090fc7d164736f6c634300081c0033",
  "devdoc": {
    "kind": "dev",
    "methods": {},
    "version": 1
  },
  "userdoc": {
    "kind": "user",
    "methods": {},
    "version": 1
  },
  "storageLayout": {
    "storage": [
      {
        "astId": 253,
        "contract": "contracts/Raffle.sol:Raffle",
        "label": "s_players",
        "offset": 0,
        "slot": "0",
        "type": "t_array(t_address_payable)dyn_storage"
      },
      {
        "astId": 260,
        "contract": "contracts/Raffle.sol:Raffle",
        "label": "recentWinner",
        "offset": 0,
        "slot": "1",
        "type": "t_address_payable"
      },
      {
        "astId": 272,
        "contract": "contracts/Raffle.sol:Raffle",
        "label": "s_isOpen",
        "offset": 0,
        "slot": "2",
        "type": "t_uint256"
      },
      {
        "astId": 276,
        "contract": "contracts/Raffle.sol:Raffle",
        "label": "s_lastTimeStamp",
        "offset": 0,
        "slot": "3",
        "type": "t_uint256"
      },
      {
        "astId": 282,
        "contract": "contracts/Raffle.sol:Raffle",
        "label": "s_raffle_state",
        "offset": 0,
        "slot": "4",
        "type": "t_enum(RaffleState)279"
      }
    ],
    "types": {
      "t_address_payable": {
        "encoding": "inplace",
        "label": "address payable",
        "numberOfBytes": "20"
      },
      "t_array(t_address_payable)dyn_storage": {
        "base": "t_address_payable",
        "encoding": "dynamic_array",
        "label": "address payable[]",
        "numberOfBytes": "32"
      },
      "t_enum(RaffleState)279": {
        "encoding": "inplace",
        "label": "enum Raffle.RaffleState",
        "numberOfBytes": "1"
      },
      "t_uint256": {
        "encoding": "inplace",
        "label": "uint256",
        "numberOfBytes": "32"
      }
    }
  }
}